{
  "address": "0xec5DC0659593B94a388C8868DD1505EF8177eCAC",
  "abi": [
    {
      "inputs": [
        {
          "internalType": "address",
          "name": "_predictionMarket",
          "type": "address"
        }
      ],
      "stateMutability": "nonpayable",
      "type": "constructor"
    },
    {
      "inputs": [],
      "name": "PM_InvalidPredictionId",
      "type": "error"
    },
    {
      "anonymous": false,
      "inputs": [
        {
          "indexed": true,
          "internalType": "address",
          "name": "previousOwner",
          "type": "address"
        },
        {
          "indexed": true,
          "internalType": "address",
          "name": "newOwner",
          "type": "address"
        }
      ],
      "name": "OwnershipTransferred",
      "type": "event"
    },
    {
      "inputs": [
        {
          "internalType": "uint256",
          "name": "_predictionId",
          "type": "uint256"
        }
      ],
      "name": "concludePrediction_1",
      "outputs": [],
      "stateMutability": "nonpayable",
      "type": "function"
    },
    {
      "inputs": [],
      "name": "owner",
      "outputs": [
        {
          "internalType": "address",
          "name": "",
          "type": "address"
        }
      ],
      "stateMutability": "view",
      "type": "function"
    },
    {
      "inputs": [],
      "name": "predictionMarketContract",
      "outputs": [
        {
          "internalType": "contract IPredictionMarket",
          "name": "",
          "type": "address"
        }
      ],
      "stateMutability": "view",
      "type": "function"
    },
    {
      "inputs": [],
      "name": "renounceOwnership",
      "outputs": [],
      "stateMutability": "nonpayable",
      "type": "function"
    },
    {
      "inputs": [
        {
          "internalType": "address",
          "name": "newOwner",
          "type": "address"
        }
      ],
      "name": "transferOwnership",
      "outputs": [],
      "stateMutability": "nonpayable",
      "type": "function"
    }
  ],
  "transactionHash": "0x267ffffedce06b1eaed5638088f5d1b5fbbbd69d8a8c53643783ee26cf583d31",
  "args": [
    "0xF1b2c142FF09eAc8dE9e6Ac19362e0F4bf895915"
  ],
  "numDeployments": 1,
  "solcInputHash": "8e9e1187a9d68a65943f6704ca5f0f81",
  "bytecode": "0x608060405234801561001057600080fd5b5060405161091f38038061091f83398101604081905261002f916100ad565b6100383361005d565b600180546001600160a01b0319166001600160a01b03929092169190911790556100dd565b600080546001600160a01b038381166001600160a01b0319831681178455604051919092169283917f8be0079c531659141344cd1fd0a4f28419497f9722a3daafe3b4186f6b6457e09190a35050565b6000602082840312156100bf57600080fd5b81516001600160a01b03811681146100d657600080fd5b9392505050565b610833806100ec6000396000f3fe608060405234801561001057600080fd5b50600436106100575760003560e01c80631c5ecf651461005c578063715018a6146100715780638da5cb5b14610079578063b15a9dd2146100a2578063f2fde38b146100b5575b600080fd5b61006f61006a366004610525565b6100c8565b005b61006f6103ee565b6000546001600160a01b03165b6040516001600160a01b03909116815260200160405180910390f35b600154610086906001600160a01b031681565b61006f6100c3366004610553565b610402565b806000600160009054906101000a90046001600160a01b03166001600160a01b0316633dcab2386040518163ffffffff1660e01b8152600401602060405180830381865afa15801561011e573d6000803e3d6000fd5b505050506040513d601f19601f820116820180604052508101906101429190610577565b905080821061016457604051638c3b1e5960e01b815260040160405180910390fd5b600154604051637f41df6760e11b8152600481018590526000916001600160a01b03169063fe83bece90602401600060405180830381865afa1580156101ae573d6000803e3d6000fd5b505050506040513d6000823e601f3d908101601f191682016040526101d691908101906106b8565b90506000816060015190506000816001600160a01b03166357de26a46040518163ffffffff1660e01b81526004016040805180830381865afa158015610220573d6000803e3d6000fd5b505050506040513d601f19601f82011682018060405250810190610244919061079e565b5090508260c0015142116102af5760405162461bcd60e51b815260206004820152602760248201527f43616e27742072756e206576616c756174696f6e2120446561646c696e65206e60448201526637ba1036b2ba1760c91b60648201526084015b60405180910390fd5b8260400151156103525780601b0b8360200151601b0b131561033857600180546001600160a01b031690631a171f39908890335b6040518463ffffffff1660e01b8152600401610301939291906107de565b600060405180830381600087803b15801561031b57600080fd5b505af115801561032f573d6000803e3d6000fd5b505050506103e6565b6001546001600160a01b0316631a171f39876000336102e3565b80601b0b8360200151601b0b121561038057600180546001600160a01b031690631a171f39908890336102e3565b6001546001600160a01b0316631a171f39876000336040518463ffffffff1660e01b81526004016103b3939291906107de565b600060405180830381600087803b1580156103cd57600080fd5b505af11580156103e1573d6000803e3d6000fd5b505050505b505050505050565b6103f661047b565b61040060006104d5565b565b61040a61047b565b6001600160a01b03811661046f5760405162461bcd60e51b815260206004820152602660248201527f4f776e61626c653a206e6577206f776e657220697320746865207a65726f206160448201526564647265737360d01b60648201526084016102a6565b610478816104d5565b50565b6000546001600160a01b031633146104005760405162461bcd60e51b815260206004820181905260248201527f4f776e61626c653a2063616c6c6572206973206e6f7420746865206f776e657260448201526064016102a6565b600080546001600160a01b038381166001600160a01b0319831681178455604051919092169283917f8be0079c531659141344cd1fd0a4f28419497f9722a3daafe3b4186f6b6457e09190a35050565b60006020828403121561053757600080fd5b5035919050565b6001600160a01b038116811461047857600080fd5b60006020828403121561056557600080fd5b81356105708161053e565b9392505050565b60006020828403121561058957600080fd5b5051919050565b634e487b7160e01b600052604160045260246000fd5b604051610120810167ffffffffffffffff811182821017156105ca576105ca610590565b60405290565b604051601f8201601f1916810167ffffffffffffffff811182821017156105f9576105f9610590565b604052919050565b600082601f83011261061257600080fd5b815167ffffffffffffffff81111561062c5761062c610590565b6020610640601f8301601f191682016105d0565b828152858284870101111561065457600080fd5b60005b83811015610672578581018301518282018401528201610657565b506000928101909101919091529392505050565b8051601b81900b811461069857600080fd5b919050565b8051801515811461069857600080fd5b80516106988161053e565b6000602082840312156106ca57600080fd5b815167ffffffffffffffff808211156106e257600080fd5b9083019061012082860312156106f757600080fd5b6106ff6105a6565b82518281111561070e57600080fd5b61071a87828601610601565b82525061072960208401610686565b602082015261073a6040840161069d565b604082015261074b606084016106ad565b60608201526080830151608082015260a083015160a082015260c083015160c082015261077a60e0840161069d565b60e0820152610100915061078f8284016106ad565b91810191909152949350505050565b600080604083850312156107b157600080fd5b6107ba83610686565b9150602083015163ffffffff811681146107d357600080fd5b809150509250929050565b92835290151560208301526001600160a01b031660408201526060019056fea2646970667358221220abd344bee130ba9b6d2cf41cc443535d7876250bb686d5e904de66766ee829df64736f6c63430008120033",
  "devdoc": {
    "details": "The contract is inherently a data feed reader",
    "kind": "dev",
    "methods": {
      "concludePrediction_1(uint256)": {
        "details": "We can add an incentive to whoever calls it get some % of overall protocol fee for a given prediction. Note that this should come out > gas fee to run the txn in the first place. Or we use CRON job, EAC, Cloud-based scheduler.Personally think that the 1st and 3rd options are good candidates.",
        "params": {
          "_predictionId": "The unique identifier for the prediction to be concluded."
        }
      },
      "constructor": {
        "params": {
          "_predictionMarket": "The Trading Contract"
        }
      },
      "owner()": {
        "details": "Returns the address of the current owner."
      },
      "renounceOwnership()": {
        "details": "Leaves the contract without owner. It will not be possible to call `onlyOwner` functions anymore. Can only be called by the current owner. NOTE: Renouncing ownership will leave the contract without an owner, thereby removing any functionality that is only available to the owner."
      },
      "transferOwnership(address)": {
        "details": "Transfers ownership of the contract to a new account (`newOwner`). Can only be called by the current owner."
      }
    },
    "version": 1
  },
  "userdoc": {
    "kind": "user",
    "methods": {
      "predictionMarketContract()": {
        "notice": "The PredictionMarket contract that acts as a middle ground for Settlement and MarketHandler"
      }
    },
    "version": 1
  },
  "storageLayout": {
    "storage": [
      {
        "astId": 26,
        "contract": "contracts/common/Settlement.sol:PM_Settlement",
        "label": "_owner",
        "offset": 0,
        "slot": "0",
        "type": "t_address"
      },
      {
        "astId": 1675,
        "contract": "contracts/common/Settlement.sol:PM_Settlement",
        "label": "predictionMarketContract",
        "offset": 0,
        "slot": "1",
        "type": "t_contract(IPredictionMarket)1666"
      }
    ],
    "types": {
      "t_address": {
        "encoding": "inplace",
        "label": "address",
        "numberOfBytes": "20"
      },
      "t_contract(IPredictionMarket)1666": {
        "encoding": "inplace",
        "label": "contract IPredictionMarket",
        "numberOfBytes": "20"
      }
    }
  }
}