{
  "address": "0xd315B21C5ddf43fA462E553eFf9eAfFbAbDe5238",
  "abi": [
    {
      "inputs": [
        {
          "internalType": "address",
          "name": "_trading",
          "type": "address"
        }
      ],
      "stateMutability": "nonpayable",
      "type": "constructor"
    },
    {
      "inputs": [],
      "name": "PM_InvalidPredictionId",
      "type": "error"
    },
    {
      "anonymous": false,
      "inputs": [
        {
          "indexed": true,
          "internalType": "address",
          "name": "previousOwner",
          "type": "address"
        },
        {
          "indexed": true,
          "internalType": "address",
          "name": "newOwner",
          "type": "address"
        }
      ],
      "name": "OwnershipTransferred",
      "type": "event"
    },
    {
      "inputs": [
        {
          "internalType": "uint256",
          "name": "_predictionId",
          "type": "uint256"
        }
      ],
      "name": "concludePrediction_1",
      "outputs": [],
      "stateMutability": "nonpayable",
      "type": "function"
    },
    {
      "inputs": [],
      "name": "owner",
      "outputs": [
        {
          "internalType": "address",
          "name": "",
          "type": "address"
        }
      ],
      "stateMutability": "view",
      "type": "function"
    },
    {
      "inputs": [],
      "name": "renounceOwnership",
      "outputs": [],
      "stateMutability": "nonpayable",
      "type": "function"
    },
    {
      "inputs": [],
      "name": "tradingContract",
      "outputs": [
        {
          "internalType": "contract ITrading",
          "name": "",
          "type": "address"
        }
      ],
      "stateMutability": "view",
      "type": "function"
    },
    {
      "inputs": [
        {
          "internalType": "address",
          "name": "newOwner",
          "type": "address"
        }
      ],
      "name": "transferOwnership",
      "outputs": [],
      "stateMutability": "nonpayable",
      "type": "function"
    }
  ],
  "transactionHash": "0x45113245394ae1daa0a5884200951c001a9bf1142a9759d8b77a368c07ade6cd",
  "args": [
    "0x9ccdc58EddbdF7c2C317A55E17AddAbEa0ed654b"
  ],
  "numDeployments": 3,
  "solcInputHash": "6b89c73f9a63d55059e9d50996e84879",
  "bytecode": "0x608060405234801561001057600080fd5b5060405161095038038061095083398101604081905261002f916100ad565b6100383361005d565b600180546001600160a01b0319166001600160a01b03929092169190911790556100dd565b600080546001600160a01b038381166001600160a01b0319831681178455604051919092169283917f8be0079c531659141344cd1fd0a4f28419497f9722a3daafe3b4186f6b6457e09190a35050565b6000602082840312156100bf57600080fd5b81516001600160a01b03811681146100d657600080fd5b9392505050565b610864806100ec6000396000f3fe608060405234801561001057600080fd5b50600436106100575760003560e01c80631c5ecf651461005c578063715018a6146100715780638da5cb5b146100795780639e4bd2e9146100a2578063f2fde38b146100b5575b600080fd5b61006f61006a366004610575565b6100c8565b005b61006f61043e565b6000546001600160a01b03165b6040516001600160a01b03909116815260200160405180910390f35b600154610086906001600160a01b031681565b61006f6100c33660046105a3565b610452565b806000600160009054906101000a90046001600160a01b03166001600160a01b0316633dcab2386040518163ffffffff1660e01b8152600401602060405180830381865afa15801561011e573d6000803e3d6000fd5b505050506040513d601f19601f8201168201806040525081019061014291906105c7565b905080821061016457604051638c3b1e5960e01b815260040160405180910390fd5b600154604051637f41df6760e11b8152600481018590526000916001600160a01b03169063fe83bece90602401600060405180830381865afa1580156101ae573d6000803e3d6000fd5b505050506040513d6000823e601f3d908101601f191682016040526101d69190810190610708565b9050600081606001519050600080826001600160a01b03166357de26a46040518163ffffffff1660e01b81526004016040805180830381865afa158015610221573d6000803e3d6000fd5b505050506040513d601f19601f8201168201806040525081019061024591906107ee565b63ffffffff16915091508360c001514211801561026557508360c0015181115b6102c65760405162461bcd60e51b815260206004820152602760248201527f43616e27742072756e206576616c756174696f6e2120446561646c696e65206e60448201526637ba1036b2ba1760c91b60648201526084015b60405180910390fd5b8360400151156103855781601b0b8460200151601b0b131561034d5760018054604051630f99b97f60e11b8152600481018a905260248101929092526001600160a01b031690631f3372fe906044015b600060405180830381600087803b15801561033057600080fd5b505af1158015610344573d6000803e3d6000fd5b50505050610435565b600154604051630f99b97f60e11b815260048101899052600060248201526001600160a01b0390911690631f3372fe90604401610316565b81601b0b8460200151601b0b12156103cf5760018054604051630f99b97f60e11b8152600481018a905260248101929092526001600160a01b031690631f3372fe90604401610316565b600154604051630f99b97f60e11b815260048101899052600060248201526001600160a01b0390911690631f3372fe90604401600060405180830381600087803b15801561041c57600080fd5b505af1158015610430573d6000803e3d6000fd5b505050505b50505050505050565b6104466104cb565b6104506000610525565b565b61045a6104cb565b6001600160a01b0381166104bf5760405162461bcd60e51b815260206004820152602660248201527f4f776e61626c653a206e6577206f776e657220697320746865207a65726f206160448201526564647265737360d01b60648201526084016102bd565b6104c881610525565b50565b6000546001600160a01b031633146104505760405162461bcd60e51b815260206004820181905260248201527f4f776e61626c653a2063616c6c6572206973206e6f7420746865206f776e657260448201526064016102bd565b600080546001600160a01b038381166001600160a01b0319831681178455604051919092169283917f8be0079c531659141344cd1fd0a4f28419497f9722a3daafe3b4186f6b6457e09190a35050565b60006020828403121561058757600080fd5b5035919050565b6001600160a01b03811681146104c857600080fd5b6000602082840312156105b557600080fd5b81356105c08161058e565b9392505050565b6000602082840312156105d957600080fd5b5051919050565b634e487b7160e01b600052604160045260246000fd5b604051610120810167ffffffffffffffff8111828210171561061a5761061a6105e0565b60405290565b604051601f8201601f1916810167ffffffffffffffff81118282101715610649576106496105e0565b604052919050565b600082601f83011261066257600080fd5b815167ffffffffffffffff81111561067c5761067c6105e0565b6020610690601f8301601f19168201610620565b82815285828487010111156106a457600080fd5b60005b838110156106c25785810183015182820184015282016106a7565b506000928101909101919091529392505050565b8051601b81900b81146106e857600080fd5b919050565b805180151581146106e857600080fd5b80516106e88161058e565b60006020828403121561071a57600080fd5b815167ffffffffffffffff8082111561073257600080fd5b90830190610120828603121561074757600080fd5b61074f6105f6565b82518281111561075e57600080fd5b61076a87828601610651565b825250610779602084016106d6565b602082015261078a604084016106ed565b604082015261079b606084016106fd565b60608201526080830151608082015260a083015160a082015260c083015160c08201526107ca60e084016106ed565b60e082015261010091506107df8284016106fd565b91810191909152949350505050565b6000806040838503121561080157600080fd5b61080a836106d6565b9150602083015163ffffffff8116811461082357600080fd5b80915050925092905056fea26469706673582212206aec83976ef1bd3043dfde530f374ca69a33ce94314c3e8ba50c14b2e741e97164736f6c63430008120033",
  "devdoc": {
    "details": "The contract is inherently a data feed reader",
    "kind": "dev",
    "methods": {
      "concludePrediction_1(uint256)": {
        "details": "We can add an incentive to whoever calls it get some % of overall protocol fee for a given prediction. Note that this should come out > gas fee to run the txn in the first place. Or we use CRON job, EAC, Cloud-based scheduler.Personally think that the 1st and 3rd options are good candidates.",
        "params": {
          "_predictionId": "The unique identifier for the prediction to be concluded."
        }
      },
      "constructor": {
        "params": {
          "_trading": "The Trading Contract"
        }
      },
      "owner()": {
        "details": "Returns the address of the current owner."
      },
      "renounceOwnership()": {
        "details": "Leaves the contract without owner. It will not be possible to call `onlyOwner` functions anymore. Can only be called by the current owner. NOTE: Renouncing ownership will leave the contract without an owner, thereby removing any functionality that is only available to the owner."
      },
      "transferOwnership(address)": {
        "details": "Transfers ownership of the contract to a new account (`newOwner`). Can only be called by the current owner."
      }
    },
    "version": 1
  },
  "userdoc": {
    "kind": "user",
    "methods": {
      "tradingContract()": {
        "notice": "The Trading contract that acts as a middle ground for Settlement and MarketHandler"
      }
    },
    "version": 1
  },
  "storageLayout": {
    "storage": [
      {
        "astId": 26,
        "contract": "contracts/common/Settlement.sol:PM_Settlement",
        "label": "_owner",
        "offset": 0,
        "slot": "0",
        "type": "t_address"
      },
      {
        "astId": 1006,
        "contract": "contracts/common/Settlement.sol:PM_Settlement",
        "label": "tradingContract",
        "offset": 0,
        "slot": "1",
        "type": "t_contract(ITrading)997"
      }
    ],
    "types": {
      "t_address": {
        "encoding": "inplace",
        "label": "address",
        "numberOfBytes": "20"
      },
      "t_contract(ITrading)997": {
        "encoding": "inplace",
        "label": "contract ITrading",
        "numberOfBytes": "20"
      }
    }
  }
}