{
  "address": "0x9BC2A147fab718893E4c011B5254888007E5e70c",
  "abi": [
    {
      "inputs": [
        {
          "internalType": "address",
          "name": "_usdcAddress",
          "type": "address"
        }
      ],
      "stateMutability": "nonpayable",
      "type": "constructor"
    },
    {
      "anonymous": false,
      "inputs": [
        {
          "indexed": true,
          "internalType": "address",
          "name": "previousOwner",
          "type": "address"
        },
        {
          "indexed": true,
          "internalType": "address",
          "name": "newOwner",
          "type": "address"
        }
      ],
      "name": "OwnershipTransferred",
      "type": "event"
    },
    {
      "inputs": [],
      "name": "I_USDC_CONTRACT",
      "outputs": [
        {
          "internalType": "contract IERC20",
          "name": "",
          "type": "address"
        }
      ],
      "stateMutability": "view",
      "type": "function"
    },
    {
      "inputs": [],
      "name": "currentBalance",
      "outputs": [
        {
          "internalType": "uint256",
          "name": "",
          "type": "uint256"
        }
      ],
      "stateMutability": "view",
      "type": "function"
    },
    {
      "inputs": [],
      "name": "owner",
      "outputs": [
        {
          "internalType": "address",
          "name": "",
          "type": "address"
        }
      ],
      "stateMutability": "view",
      "type": "function"
    },
    {
      "inputs": [],
      "name": "renounceOwnership",
      "outputs": [],
      "stateMutability": "nonpayable",
      "type": "function"
    },
    {
      "inputs": [
        {
          "internalType": "address",
          "name": "_receiver",
          "type": "address"
        }
      ],
      "name": "rewardConcluder",
      "outputs": [],
      "stateMutability": "nonpayable",
      "type": "function"
    },
    {
      "inputs": [],
      "name": "sendUSDC",
      "outputs": [],
      "stateMutability": "nonpayable",
      "type": "function"
    },
    {
      "inputs": [
        {
          "internalType": "address",
          "name": "_pmAddress",
          "type": "address"
        }
      ],
      "name": "setPredictionMarketAddress",
      "outputs": [],
      "stateMutability": "nonpayable",
      "type": "function"
    },
    {
      "inputs": [
        {
          "internalType": "address",
          "name": "newOwner",
          "type": "address"
        }
      ],
      "name": "transferOwnership",
      "outputs": [],
      "stateMutability": "nonpayable",
      "type": "function"
    }
  ],
  "transactionHash": "0x5af9ff66817e9d89800b39e77f42acede4cc07d32b6673418685e1fd70e0b64e",
  "args": [
    "0x7B28B177Bca06Abd37518F66ADa2825BF7386A7D"
  ],
  "numDeployments": 1,
  "solcInputHash": "8e9e1187a9d68a65943f6704ca5f0f81",
  "bytecode": "0x60a060405234801561001057600080fd5b506040516106cb3803806106cb83398101604081905261002f91610099565b61003833610049565b6001600160a01b03166080526100c9565b600080546001600160a01b038381166001600160a01b0319831681178455604051919092169283917f8be0079c531659141344cd1fd0a4f28419497f9722a3daafe3b4186f6b6457e09190a35050565b6000602082840312156100ab57600080fd5b81516001600160a01b03811681146100c257600080fd5b9392505050565b6080516105cc6100ff6000396000818160e001528181610142015281816101bc015281816102c9015261043e01526105cc6000f3fe608060405234801561001057600080fd5b50600436106100785760003560e01c80631457870a1461007d578063715018a61461008757806385edae491461008f5780638da5cb5b146100a2578063ce845d1d146100c5578063edd347cd146100db578063f2fde38b14610102578063f6a1431e14610115575b600080fd5b610085610128565b005b610085610271565b61008561009d366004610517565b610285565b6000546001600160a01b03165b6040516100bc9190610547565b60405180910390f35b6100cd6102af565b6040519081526020016100bc565b6100af7f000000000000000000000000000000000000000000000000000000000000000081565b610085610110366004610517565b610344565b610085610123366004610517565b6103c2565b6040516370a0823160e01b81526000906001600160a01b037f000000000000000000000000000000000000000000000000000000000000000016906370a0823190610177903090600401610547565b602060405180830381865afa158015610194573d6000803e3d6000fd5b505050506040513d601f19601f820116820180604052508101906101b8919061055b565b90507f00000000000000000000000000000000000000000000000000000000000000006001600160a01b031663a9059cbb6101fb6000546001600160a01b031690565b6040516001600160e01b031960e084901b1681526001600160a01b039091166004820152602481018490526044015b6020604051808303816000875af1158015610249573d6000803e3d6000fd5b505050506040513d601f19601f8201168201806040525081019061026d9190610574565b5050565b61027961046d565b61028360006104c7565b565b61028d61046d565b600180546001600160a01b0319166001600160a01b0392909216919091179055565b6040516370a0823160e01b81526000906001600160a01b037f000000000000000000000000000000000000000000000000000000000000000016906370a08231906102fe903090600401610547565b602060405180830381865afa15801561031b573d6000803e3d6000fd5b505050506040513d601f19601f8201168201806040525081019061033f919061055b565b905090565b61034c61046d565b6001600160a01b0381166103b65760405162461bcd60e51b815260206004820152602660248201527f4f776e61626c653a206e6577206f776e657220697320746865207a65726f206160448201526564647265737360d01b60648201526084015b60405180910390fd5b6103bf816104c7565b50565b6001546001600160a01b0316336001600160a01b0316146104155760405162461bcd60e51b815260206004820152600d60248201526c5265737472696374656421212160981b60448201526064016103ad565b60405163a9059cbb60e01b81526001600160a01b0382811660048301526302625a0060248301527f0000000000000000000000000000000000000000000000000000000000000000169063a9059cbb9060440161022a565b6000546001600160a01b031633146102835760405162461bcd60e51b815260206004820181905260248201527f4f776e61626c653a2063616c6c6572206973206e6f7420746865206f776e657260448201526064016103ad565b600080546001600160a01b038381166001600160a01b0319831681178455604051919092169283917f8be0079c531659141344cd1fd0a4f28419497f9722a3daafe3b4186f6b6457e09190a35050565b60006020828403121561052957600080fd5b81356001600160a01b038116811461054057600080fd5b9392505050565b6001600160a01b0391909116815260200190565b60006020828403121561056d57600080fd5b5051919050565b60006020828403121561058657600080fd5b8151801515811461054057600080fdfea2646970667358221220f8725b7d7e6b5f6de6c874e1fa10bbf063d9418335dd5891173cb9eaf26557f164736f6c63430008120033",
  "devdoc": {
    "kind": "dev",
    "methods": {
      "constructor": {
        "params": {
          "_usdcAddress": "Address assigned to the immutable USDC"
        }
      },
      "owner()": {
        "details": "Returns the address of the current owner."
      },
      "renounceOwnership()": {
        "details": "Leaves the contract without owner. It will not be possible to call `onlyOwner` functions anymore. Can only be called by the current owner. NOTE: Renouncing ownership will leave the contract without an owner, thereby removing any functionality that is only available to the owner."
      },
      "transferOwnership(address)": {
        "details": "Transfers ownership of the contract to a new account (`newOwner`). Can only be called by the current owner."
      }
    },
    "version": 1
  },
  "userdoc": {
    "kind": "user",
    "methods": {
      "I_USDC_CONTRACT()": {
        "notice": "The payment token address ie USDC"
      },
      "currentBalance()": {
        "notice": "Get the current USDC balance of the vault"
      },
      "sendUSDC()": {
        "notice": "Transfer all the USDC present in the contract to the owner"
      }
    },
    "notice": "Vault to store reserveFee of each MarketHandler when its concluded.",
    "version": 1
  },
  "storageLayout": {
    "storage": [
      {
        "astId": 26,
        "contract": "contracts/common/Vault.sol:PM_Vault",
        "label": "_owner",
        "offset": 0,
        "slot": "0",
        "type": "t_address"
      },
      {
        "astId": 1812,
        "contract": "contracts/common/Vault.sol:PM_Vault",
        "label": "PREDICTION_MARKET_ADDRESS",
        "offset": 0,
        "slot": "1",
        "type": "t_address"
      }
    ],
    "types": {
      "t_address": {
        "encoding": "inplace",
        "label": "address",
        "numberOfBytes": "20"
      }
    }
  }
}