{
  "address": "0xD15444a7ff0564AD8b283a94e8033F1ce31cd2E9",
  "abi": [
    {
      "inputs": [
        {
          "internalType": "address",
          "name": "_usdc",
          "type": "address"
        }
      ],
      "stateMutability": "nonpayable",
      "type": "constructor"
    },
    {
      "inputs": [],
      "name": "PM_InsufficientApprovedAmount",
      "type": "error"
    },
    {
      "anonymous": false,
      "inputs": [
        {
          "indexed": true,
          "internalType": "uint256",
          "name": "predictionId",
          "type": "uint256"
        },
        {
          "indexed": false,
          "internalType": "uint256",
          "name": "timestamp",
          "type": "uint256"
        },
        {
          "indexed": false,
          "internalType": "bool",
          "name": "isAbove",
          "type": "bool"
        },
        {
          "indexed": true,
          "internalType": "int224",
          "name": "priceReading",
          "type": "int224"
        },
        {
          "indexed": true,
          "internalType": "int224",
          "name": "priceTarget",
          "type": "int224"
        }
      ],
      "name": "ConcludeFatalError",
      "type": "event"
    },
    {
      "anonymous": false,
      "inputs": [
        {
          "indexed": true,
          "internalType": "uint256",
          "name": "predictionId",
          "type": "uint256"
        },
        {
          "indexed": true,
          "internalType": "address",
          "name": "marketHandler",
          "type": "address"
        },
        {
          "indexed": true,
          "internalType": "address",
          "name": "trader",
          "type": "address"
        },
        {
          "indexed": false,
          "internalType": "int256",
          "name": "amountYes",
          "type": "int256"
        },
        {
          "indexed": false,
          "internalType": "int256",
          "name": "amountNo",
          "type": "int256"
        }
      ],
      "name": "HandlerProgress",
      "type": "event"
    },
    {
      "anonymous": false,
      "inputs": [
        {
          "indexed": true,
          "internalType": "address",
          "name": "previousOwner",
          "type": "address"
        },
        {
          "indexed": true,
          "internalType": "address",
          "name": "newOwner",
          "type": "address"
        }
      ],
      "name": "OwnershipTransferred",
      "type": "event"
    },
    {
      "anonymous": false,
      "inputs": [
        {
          "indexed": true,
          "internalType": "uint256",
          "name": "predictionId",
          "type": "uint256"
        },
        {
          "indexed": false,
          "internalType": "uint256",
          "name": "timestamp",
          "type": "uint256"
        }
      ],
      "name": "PredictionConcluded",
      "type": "event"
    },
    {
      "anonymous": false,
      "inputs": [
        {
          "indexed": true,
          "internalType": "uint256",
          "name": "predictionId",
          "type": "uint256"
        },
        {
          "indexed": true,
          "internalType": "address",
          "name": "marketHandler",
          "type": "address"
        },
        {
          "indexed": false,
          "internalType": "address",
          "name": "creator",
          "type": "address"
        },
        {
          "indexed": false,
          "internalType": "uint256",
          "name": "timestamp",
          "type": "uint256"
        },
        {
          "indexed": true,
          "internalType": "uint256",
          "name": "deadline",
          "type": "uint256"
        }
      ],
      "name": "PredictionCreated",
      "type": "event"
    },
    {
      "stateMutability": "payable",
      "type": "fallback"
    },
    {
      "inputs": [],
      "name": "PLATFORM_FEE",
      "outputs": [
        {
          "internalType": "uint256",
          "name": "",
          "type": "uint256"
        }
      ],
      "stateMutability": "view",
      "type": "function"
    },
    {
      "inputs": [],
      "name": "TRADING_FEE",
      "outputs": [
        {
          "internalType": "uint256",
          "name": "",
          "type": "uint256"
        }
      ],
      "stateMutability": "view",
      "type": "function"
    },
    {
      "inputs": [
        {
          "internalType": "uint256",
          "name": "_predictionId",
          "type": "uint256"
        },
        {
          "internalType": "bool",
          "name": "_vote",
          "type": "bool"
        }
      ],
      "name": "concludePrediction_2",
      "outputs": [],
      "stateMutability": "nonpayable",
      "type": "function"
    },
    {
      "inputs": [
        {
          "internalType": "string",
          "name": "_tokenSymbol",
          "type": "string"
        },
        {
          "internalType": "address",
          "name": "_proxyAddress",
          "type": "address"
        },
        {
          "internalType": "bool",
          "name": "_isAbove",
          "type": "bool"
        },
        {
          "internalType": "int224",
          "name": "_targetPricePoint",
          "type": "int224"
        },
        {
          "internalType": "uint256",
          "name": "_deadline",
          "type": "uint256"
        },
        {
          "internalType": "uint256",
          "name": "_basePrice",
          "type": "uint256"
        }
      ],
      "name": "createPrediction",
      "outputs": [
        {
          "internalType": "uint256",
          "name": "",
          "type": "uint256"
        }
      ],
      "stateMutability": "nonpayable",
      "type": "function"
    },
    {
      "inputs": [],
      "name": "getNextPredictionId",
      "outputs": [
        {
          "internalType": "uint256",
          "name": "",
          "type": "uint256"
        }
      ],
      "stateMutability": "view",
      "type": "function"
    },
    {
      "inputs": [
        {
          "internalType": "uint256",
          "name": "_predictionId",
          "type": "uint256"
        }
      ],
      "name": "getPrediction",
      "outputs": [
        {
          "components": [
            {
              "internalType": "string",
              "name": "tokenSymbol",
              "type": "string"
            },
            {
              "internalType": "int224",
              "name": "targetPricePoint",
              "type": "int224"
            },
            {
              "internalType": "bool",
              "name": "isAbove",
              "type": "bool"
            },
            {
              "internalType": "address",
              "name": "proxyAddress",
              "type": "address"
            },
            {
              "internalType": "uint256",
              "name": "fee",
              "type": "uint256"
            },
            {
              "internalType": "uint256",
              "name": "timestamp",
              "type": "uint256"
            },
            {
              "internalType": "uint256",
              "name": "deadline",
              "type": "uint256"
            },
            {
              "internalType": "bool",
              "name": "isActive",
              "type": "bool"
            },
            {
              "internalType": "address",
              "name": "marketHandler",
              "type": "address"
            },
            {
              "internalType": "uint256",
              "name": "predictionTokenPrice",
              "type": "uint256"
            }
          ],
          "internalType": "struct Prediction",
          "name": "",
          "type": "tuple"
        }
      ],
      "stateMutability": "view",
      "type": "function"
    },
    {
      "inputs": [
        {
          "internalType": "uint256[]",
          "name": "_ids",
          "type": "uint256[]"
        },
        {
          "internalType": "uint256",
          "name": "_limit",
          "type": "uint256"
        }
      ],
      "name": "getPredictions",
      "outputs": [
        {
          "components": [
            {
              "internalType": "string",
              "name": "tokenSymbol",
              "type": "string"
            },
            {
              "internalType": "int224",
              "name": "targetPricePoint",
              "type": "int224"
            },
            {
              "internalType": "bool",
              "name": "isAbove",
              "type": "bool"
            },
            {
              "internalType": "address",
              "name": "proxyAddress",
              "type": "address"
            },
            {
              "internalType": "uint256",
              "name": "fee",
              "type": "uint256"
            },
            {
              "internalType": "uint256",
              "name": "timestamp",
              "type": "uint256"
            },
            {
              "internalType": "uint256",
              "name": "deadline",
              "type": "uint256"
            },
            {
              "internalType": "bool",
              "name": "isActive",
              "type": "bool"
            },
            {
              "internalType": "address",
              "name": "marketHandler",
              "type": "address"
            },
            {
              "internalType": "uint256",
              "name": "predictionTokenPrice",
              "type": "uint256"
            }
          ],
          "internalType": "struct Prediction[]",
          "name": "",
          "type": "tuple[]"
        }
      ],
      "stateMutability": "view",
      "type": "function"
    },
    {
      "inputs": [
        {
          "internalType": "uint256[]",
          "name": "_ids",
          "type": "uint256[]"
        },
        {
          "internalType": "uint256",
          "name": "_limit",
          "type": "uint256"
        }
      ],
      "name": "getProxiesForPredictions",
      "outputs": [
        {
          "internalType": "address[]",
          "name": "",
          "type": "address[]"
        }
      ],
      "stateMutability": "view",
      "type": "function"
    },
    {
      "inputs": [
        {
          "internalType": "uint256",
          "name": "_predictionId",
          "type": "uint256"
        }
      ],
      "name": "getProxyForPrediction",
      "outputs": [
        {
          "internalType": "address",
          "name": "",
          "type": "address"
        }
      ],
      "stateMutability": "view",
      "type": "function"
    },
    {
      "inputs": [],
      "name": "owner",
      "outputs": [
        {
          "internalType": "address",
          "name": "",
          "type": "address"
        }
      ],
      "stateMutability": "view",
      "type": "function"
    },
    {
      "inputs": [],
      "name": "renounceOwnership",
      "outputs": [],
      "stateMutability": "nonpayable",
      "type": "function"
    },
    {
      "inputs": [
        {
          "internalType": "address",
          "name": "_settlement",
          "type": "address"
        }
      ],
      "name": "setSettlementAddress",
      "outputs": [],
      "stateMutability": "nonpayable",
      "type": "function"
    },
    {
      "inputs": [
        {
          "internalType": "uint256",
          "name": "_newFee",
          "type": "uint256"
        }
      ],
      "name": "setTradingFee",
      "outputs": [],
      "stateMutability": "nonpayable",
      "type": "function"
    },
    {
      "inputs": [
        {
          "internalType": "address",
          "name": "_vault",
          "type": "address"
        }
      ],
      "name": "setVaultAddress",
      "outputs": [],
      "stateMutability": "nonpayable",
      "type": "function"
    },
    {
      "inputs": [],
      "name": "settlementAddress",
      "outputs": [
        {
          "internalType": "address",
          "name": "",
          "type": "address"
        }
      ],
      "stateMutability": "view",
      "type": "function"
    },
    {
      "inputs": [
        {
          "internalType": "uint256",
          "name": "_id",
          "type": "uint256"
        },
        {
          "internalType": "address",
          "name": "_caller",
          "type": "address"
        },
        {
          "internalType": "int256",
          "name": "_amountYes",
          "type": "int256"
        },
        {
          "internalType": "int256",
          "name": "_amountNo",
          "type": "int256"
        }
      ],
      "name": "trackProgress",
      "outputs": [],
      "stateMutability": "nonpayable",
      "type": "function"
    },
    {
      "inputs": [
        {
          "internalType": "address",
          "name": "newOwner",
          "type": "address"
        }
      ],
      "name": "transferOwnership",
      "outputs": [],
      "stateMutability": "nonpayable",
      "type": "function"
    },
    {
      "inputs": [],
      "name": "vaultAddress",
      "outputs": [
        {
          "internalType": "address",
          "name": "",
          "type": "address"
        }
      ],
      "stateMutability": "view",
      "type": "function"
    },
    {
      "stateMutability": "payable",
      "type": "receive"
    }
  ],
  "transactionHash": "0x057ee6788a9ae123ed43cb68416e64dbf3db3d0650ef8e21a4665ed93370dfca",
  "args": [
    "0x5E723bac7e84B85f81667E8c032ba6E52C41A0DB"
  ],
  "numDeployments": 1,
  "solcInputHash": "029a8be1d173191230bccf77c40e1ad5",
  "bytecode": "0x60a060405260326002553480156200001657600080fd5b50604051620044c4380380620044c48339810160408190526200003991620000c9565b620000443362000070565b6001600160a01b038116608052620000696001620000c0602090811b620012e017901c565b50620000fb565b600080546001600160a01b038381166001600160a01b0319831681178455604051919092169283917f8be0079c531659141344cd1fd0a4f28419497f9722a3daafe3b4186f6b6457e09190a35050565b80546001019055565b600060208284031215620000dc57600080fd5b81516001600160a01b0381168114620000f457600080fd5b9392505050565b60805161439f6200012560003960008181610a4001528181610dbb0152610e71015261439f6000f3fe608060405260043610620001335760003560e01c806373a3cc2311620000a9578063dcb6b26a1162000077578063f738c4a7116200005d578063f738c4a7146200038d578063f970201d14620003af578063fe83bece14620003d457005b8063dcb6b26a1462000343578063f2fde38b146200036857005b806373a3cc2314620002b457806385535cc514620002d95780638da5cb5b14620002fe578063b0d54bcf146200031e57005b8063430bf08a116200010157806360adf22311620000e757806360adf22314620002345780636c9e4d171462000268578063715018a6146200029c57005b8063430bf08a14620001bf578063461d282b14620001fa57005b80631f3372fe146200013d57806323531b90146200016257806334fbc9a1146200018d5780633dcab23814620001a757005b366200013b57005b005b3480156200014a57600080fd5b506200013b6200015c366004620013d1565b62000408565b3480156200016f57600080fd5b506200017a60025481565b6040519081526020015b60405180910390f35b3480156200019a57600080fd5b506200017a6302faf08081565b348015620001b457600080fd5b506200017a62000514565b348015620001cc57600080fd5b50600754620001e1906001600160a01b031681565b6040516001600160a01b03909116815260200162000184565b3480156200020757600080fd5b50620001e16200021936600462001404565b6000908152600460205260409020546001600160a01b031690565b3480156200024157600080fd5b50620002596200025336600462001468565b62000525565b60405162000184919062001623565b3480156200027557600080fd5b506200028d6200028736600462001468565b620006c5565b60405162000184919062001689565b348015620002a957600080fd5b506200013b62000759565b348015620002c157600080fd5b506200013b620002d3366004620016f0565b62000771565b348015620002e657600080fd5b506200013b620002f8366004620016f0565b620007aa565b3480156200030b57600080fd5b506000546001600160a01b0316620001e1565b3480156200032b57600080fd5b506200013b6200033d36600462001404565b620007e3565b3480156200035057600080fd5b506200013b6200036236600462001715565b620007f2565b3480156200037557600080fd5b506200013b62000387366004620016f0565b6200095f565b3480156200039a57600080fd5b50600654620001e1906001600160a01b031681565b348015620003bc57600080fd5b506200017a620003ce36600462001766565b620009f5565b348015620003e157600080fd5b50620003f9620003f336600462001404565b6200115a565b6040516200018491906200184e565b60065433906001600160a01b031681146200042257600080fd5b60008381526003602052604090206005015442106200044057600080fd5b600083815260036020526040908190206006015490517f10d9350200000000000000000000000000000000000000000000000000000000815283151560048201526101009091046001600160a01b031690819081906310d9350290602401600060405180830381600087803b158015620004b957600080fd5b505af1158015620004ce573d6000803e3d6000fd5b50505050847f8942a99ecf13e35a279676a3f0e93405df4c4022b90e0649908e349da0c64a5a426040516200050591815260200190565b60405180910390a25050505050565b60006200052060015490565b905090565b60608060005b83811015620006bd57600360008683815181106200054d576200054d62001863565b6020026020010151815260200190815260200160002060405180610140016040529081600082018054620005819062001879565b80601f0160208091040260200160405190810160405280929190818152602001828054620005af9062001879565b8015620006005780601f10620005d45761010080835404028352916020019162000600565b820191906000526020600020905b815481529060010190602001808311620005e257829003601f168201915b50505091835250506001820154601b81900b602083015260ff600160e01b90910481161515604083015260028301546001600160a01b03908116606084015260038401546080840152600484015460a0840152600584015460c08401526006840154918216151560e08401526101009182900416908201526007909101546101209091015282518390839081106200069c576200069c62001863565b60200260200101819052508080620006b490620018b5565b9150506200052b565b509392505050565b60608060005b83811015620006bd5760046000868381518110620006ed57620006ed62001863565b6020026020010151815260200190815260200160002060009054906101000a90046001600160a01b03168282815181106200072c576200072c62001863565b6001600160a01b0390921660209283029190910190910152806200075081620018b5565b915050620006cb565b62000763620012e9565b6200076f600062001345565b565b6200077b620012e9565b6006805473ffffffffffffffffffffffffffffffffffffffff19166001600160a01b0392909216919091179055565b620007b4620012e9565b6007805473ffffffffffffffffffffffffffffffffffffffff19166001600160a01b0392909216919091179055565b620007ed620012e9565b600255565b833360008281526003602052604090206006015461010090046001600160a01b031680620008675760405162461bcd60e51b815260206004820152601660248201527f496e76616c69642050726564696374696f6e204964210000000000000000000060448201526064015b60405180910390fd5b816001600160a01b0316816001600160a01b031614620008f05760405162461bcd60e51b815260206004820152602160248201527f43616c6c6572206973206e6f7420746865206d61726b65742068616e646c657260448201527f2e0000000000000000000000000000000000000000000000000000000000000060648201526084016200085e565b60008781526003602090815260409182902060060154825188815291820187905261010090046001600160a01b03908116929089169183918b917faa4efaf794e3033902d020af57e79b057692c8db2827c81e7bebe89009630212910160405180910390a45050505050505050565b62000969620012e9565b6001600160a01b038116620009e75760405162461bcd60e51b815260206004820152602660248201527f4f776e61626c653a206e6577206f776e657220697320746865207a65726f206160448201527f646472657373000000000000000000000000000000000000000000000000000060648201526084016200085e565b620009f28162001345565b50565b600080336040517fdd62ed3e0000000000000000000000000000000000000000000000000000000081526001600160a01b0380831660048301523060248301529192506302faf080917f0000000000000000000000000000000000000000000000000000000000000000169063dd62ed3e90604401602060405180830381865afa15801562000a88573d6000803e3d6000fd5b505050506040513d601f19601f8201168201806040525081019062000aae9190620018dd565b101562000afe5760405162461bcd60e51b815260206004820152601260248201527f416c6c6f77616e6365206e6f742073657421000000000000000000000000000060448201526064016200085e565b6001600160a01b03871662000b7c5760405162461bcd60e51b815260206004820152602f60248201527f43616e277420686176652061646472657373207a65726f20617320746865207060448201527f726f7879277320616464726573732e000000000000000000000000000000000060648201526084016200085e565b42841162000bcd5760405162461bcd60e51b815260206004820152601e60248201527f446561646c696e652063616e277420626520696e2074686520706173742e000060448201526064016200085e565b600062000bd960015490565b90506000600360008381526020019081526020016000206040518061014001604052908160008201805462000c0e9062001879565b80601f016020809104026020016040519081016040528092919081815260200182805462000c3c9062001879565b801562000c8d5780601f1062000c615761010080835404028352916020019162000c8d565b820191906000526020600020905b81548152906001019060200180831162000c6f57829003601f168201915b50505091835250506001820154601b81900b602083015260ff600160e01b90910481161515604083015260028301546001600160a01b03908116606084015260038401546080840152600484015460a080850191909152600585015460c08501526006850154928316151560e08501526101009283900490911691830191909152600790920154610120909101528101519091501562000d705760405162461bcd60e51b815260206004820152601a60248201527f50726564696374696f6e20616c7265616479206578697374732e00000000000060448201526064016200085e565b6040517f23b872dd0000000000000000000000000000000000000000000000000000000081526001600160a01b0384811660048301523060248301526302faf08060448301526000917f0000000000000000000000000000000000000000000000000000000000000000909116906323b872dd906064016020604051808303816000875af115801562000e07573d6000803e3d6000fd5b505050506040513d601f19601f8201168201806040525081019062000e2d9190620018f7565b90508062000e67576040517fca234f3900000000000000000000000000000000000000000000000000000000815260040160405180910390fd5b60008360025489897f0000000000000000000000000000000000000000000000000000000000000000600760009054906101000a90046001600160a01b031660405162000eb490620013a2565b9586526020860194909452604085019290925260608401526001600160a01b0390811660808401521660a082015260c001604051809103906000f08015801562000f02573d6000803e3d6000fd5b50905060006040518061014001604052808e81526020018b601b0b81526020018c151581526020018d6001600160a01b0316815260200160025481526020014281526020018a8152602001600115158152602001836001600160a01b031681526020018981525090508060036000878152602001908152602001600020600082015181600001908162000f9691906200196a565b5060208201518160010160006101000a8154817bffffffffffffffffffffffffffffffffffffffffffffffffffffffff0219169083601b0b7bffffffffffffffffffffffffffffffffffffffffffffffffffffffff160217905550604082015181600101601c6101000a81548160ff02191690831515021790555060608201518160020160006101000a8154816001600160a01b0302191690836001600160a01b031602179055506080820151816003015560a0820151816004015560c0820151816005015560e08201518160060160006101000a81548160ff0219169083151502179055506101008201518160060160016101000a8154816001600160a01b0302191690836001600160a01b0316021790555061012082015181600701559050508b6004600087815260200190815260200160002060006101000a8154816001600160a01b0302191690836001600160a01b03160217905550620010ff600180546001019055565b604080516001600160a01b0388811682524260208301528b929085169188917f7bed24594bc69eabc466d2e497d2f8ec45df38dea10026d0c4e0b31cb0a9b9c6910160405180910390a450929b9a5050505050505050505050565b6040805161014081018252606080825260006020830181905292820183905281018290526080810182905260a0810182905260c0810182905260e0810182905261010081018290526101208101919091526000828152600360205260409081902081516101408101909252805482908290620011d69062001879565b80601f0160208091040260200160405190810160405280929190818152602001828054620012049062001879565b8015620012555780601f10620012295761010080835404028352916020019162001255565b820191906000526020600020905b8154815290600101906020018083116200123757829003601f168201915b50505091835250506001820154601b81900b602083015260ff600160e01b90910481161515604083015260028301546001600160a01b03908116606084015260038401546080840152600484015460a0840152600584015460c08401526006840154918216151560e08401526101009182900416908201526007909101546101209091015292915050565b80546001019055565b6000546001600160a01b031633146200076f5760405162461bcd60e51b815260206004820181905260248201527f4f776e61626c653a2063616c6c6572206973206e6f7420746865206f776e657260448201526064016200085e565b600080546001600160a01b0383811673ffffffffffffffffffffffffffffffffffffffff19831681178455604051919092169283917f8be0079c531659141344cd1fd0a4f28419497f9722a3daafe3b4186f6b6457e09190a35050565b6129328062001a3883390190565b8015158114620009f257600080fd5b8035620013cc81620013b0565b919050565b60008060408385031215620013e557600080fd5b823591506020830135620013f981620013b0565b809150509250929050565b6000602082840312156200141757600080fd5b5035919050565b634e487b7160e01b600052604160045260246000fd5b604051601f8201601f1916810167ffffffffffffffff811182821017156200146057620014606200141e565b604052919050565b600080604083850312156200147c57600080fd5b823567ffffffffffffffff808211156200149557600080fd5b818501915085601f830112620014aa57600080fd5b8135602082821115620014c157620014c16200141e565b8160051b9250620014d481840162001434565b8281529284018101928181019089851115620014ef57600080fd5b948201945b848610156200150f57853582529482019490820190620014f4565b9997909101359750505050505050565b6000815180845260005b81811015620015475760208185018101518683018201520162001529565b506000602082860101526020601f19601f83011685010191505092915050565b600061014082518185526200157f828601826200151f565b9150506020830151620015976020860182601b0b9052565b506040830151620015ac604086018215159052565b506060830151620015c860608601826001600160a01b03169052565b506080830151608085015260a083015160a085015260c083015160c085015260e0830151620015fb60e086018215159052565b50610100838101516001600160a01b0316908501526101209283015192909301919091525090565b6000602080830181845280855180835260408601915060408160051b870101925083870160005b828110156200167c57603f198886030184526200166985835162001567565b945092850192908501906001016200164a565b5092979650505050505050565b6020808252825182820181905260009190848201906040850190845b81811015620016cc5783516001600160a01b031683529284019291840191600101620016a5565b50909695505050505050565b80356001600160a01b0381168114620013cc57600080fd5b6000602082840312156200170357600080fd5b6200170e82620016d8565b9392505050565b600080600080608085870312156200172c57600080fd5b843593506200173e60208601620016d8565b93969395505050506040820135916060013590565b8035601b81900b8114620013cc57600080fd5b60008060008060008060c087890312156200178057600080fd5b863567ffffffffffffffff808211156200179957600080fd5b818901915089601f830112620017ae57600080fd5b8135602082821115620017c557620017c56200141e565b620017d9601f8301601f1916820162001434565b92508183528b81838601011115620017f057600080fd5b8181850182850137600081838501015282995062001810818c01620016d8565b9850505050506200182460408801620013bf565b9350620018346060880162001753565b92506080870135915060a087013590509295509295509295565b6020815260006200170e602083018462001567565b634e487b7160e01b600052603260045260246000fd5b600181811c908216806200188e57607f821691505b602082108103620018af57634e487b7160e01b600052602260045260246000fd5b50919050565b600060018201620018d657634e487b7160e01b600052601160045260246000fd5b5060010190565b600060208284031215620018f057600080fd5b5051919050565b6000602082840312156200190a57600080fd5b81516200170e81620013b0565b601f8211156200196557600081815260208120601f850160051c81016020861015620019405750805b601f850160051c820191505b8181101562001961578281556001016200194c565b5050505b505050565b815167ffffffffffffffff8111156200198757620019876200141e565b6200199f8162001998845462001879565b8462001917565b602080601f831160018114620019d75760008415620019be5750858301515b600019600386901b1c1916600185901b17855562001961565b600085815260208120601f198616915b8281101562001a0857888601518255948401946001909101908401620019e7565b508582101562001a275787850151600019600388901b60f8161c191681555b5050505050600190811b0190555056fe6101406040523480156200001257600080fd5b5060405162002932380380620029328339810160408190526200003591620002de565b620000403362000268565b600680546001600160a01b031916331790556080869052620000658361271062000351565b60a05260c0849052600580546001600160a01b03808416620100000262010000600160b01b03199092169190911790915582166101208190526040805163313ce56760e01b8152905184929163313ce5679160048083019260209291908290030181865afa158015620000dc573d6000803e3d6000fd5b505050506040513d601f19601f8201168201806040525081019062000102919062000371565b6200010f90600a62000488565b60e08181525050612710816001600160a01b031663313ce5676040518163ffffffff1660e01b8152600401602060405180830381865afa15801562000158573d6000803e3d6000fd5b505050506040513d601f19601f820116820180604052508101906200017e919062000371565b6200018b90600a62000488565b62000197908862000351565b620001a391906200049d565b6101008181525050620001c26007620002b860201b620020ca1760201c565b600c80546001810182556000919091527fdf6966c971051c3d54ec59162606531493a51404a002842f56009d7e5cf4a8c70180546001600160a01b03191690556200021a600b620002b8602090811b620020ca17901c565b5050600880546001810182556000919091527ff3f7a9fe364faab93b216da50a3214154f22a0a2b415b23a84c8169e8b636ee30180546001600160a01b031916905550620004c09350505050565b600080546001600160a01b038381166001600160a01b0319831681178455604051919092169283917f8be0079c531659141344cd1fd0a4f28419497f9722a3daafe3b4186f6b6457e09190a35050565b80546001019055565b80516001600160a01b0381168114620002d957600080fd5b919050565b60008060008060008060c08789031215620002f857600080fd5b865195506020870151945060408701519350606087015192506200031f60808801620002c1565b91506200032f60a08801620002c1565b90509295509295509295565b634e487b7160e01b600052601160045260246000fd5b80820281158282048414176200036b576200036b6200033b565b92915050565b6000602082840312156200038457600080fd5b5051919050565b600181815b80851115620003cc578160001904821115620003b057620003b06200033b565b80851615620003be57918102915b93841c939080029062000390565b509250929050565b600082620003e5575060016200036b565b81620003f4575060006200036b565b81600181146200040d5760028114620004185762000438565b60019150506200036b565b60ff8411156200042c576200042c6200033b565b50506001821b6200036b565b5060208310610133831016604e8410600b84101617156200045d575081810a6200036b565b6200046983836200038b565b80600019048211156200048057620004806200033b565b029392505050565b6000620004968383620003d4565b9392505050565b600082620004bb57634e487b7160e01b600052601260045260246000fd5b500490565b60805160a05160c05160e0516101005161012051612334620005fe60003960008181610528015281816107e201528181610b0501528181610ca701528181610de701528181611034015281816110f3015281816111ed015281816114e00152818161159f01528181611699015281816119e101528181611b210152611e560152600081816103ca015261209501526000818161022701526120710152600081816104f4015281816105ac0152818161066e01528181610bcc01528181610fae0152818161145a015281816119060152611ce80152600081816102bb015281816106b401528181610c1201528181611002015281816114ae0152818161194c0152611d2e0152600081816103040152818161087a01528181610ec8015281816113800152818161182c01528181611c020152611eee01526123346000f3fe6080604052600436106101a35760003560e01c8063b5d53709116100e0578063dfbf53ae11610084578063edd347cd11610061578063edd347cd14610516578063efdf3c171461054a578063f2fde38b1461056a578063fcee45f41461058a57005b8063dfbf53ae1461048d578063e1a51dff146104ac578063e8b2d47f146104e257005b8063c1ff549b116100bd578063c1ff549b14610417578063c87b502e14610437578063ca015b621461044d578063db29cd3d1461046d57005b8063b5d53709146103b8578063b6e35797146103ec578063b8fe4cfb1461040157005b806370bb45b31161014757806377ed46571161012457806377ed46571461033b5780638da5cb5b146103505780638fb182aa146103825780639473223e1461039857005b806370bb45b3146102dd57806370daf9a3146102f2578063715018a61461032657005b806353aaf54c1161018057806353aaf54c14610249578063578a68061461025f578063690aa8951461027f57806369d5bf6b146102a957005b806310d93502146101ac578063181a2ea1146101cc578063501ff1741461021557005b366101aa57005b005b3480156101b857600080fd5b506101aa6101c736600461218b565b6105aa565b3480156101d857600080fd5b506102026101e73660046121af565b6001600160a01b03166000908152600e602052604090205490565b6040519081526020015b60405180910390f35b34801561022157600080fd5b506102027f000000000000000000000000000000000000000000000000000000000000000081565b34801561025557600080fd5b5061020260045481565b34801561026b57600080fd5b506101aa61027a3660046121d8565b61066c565b34801561028b57600080fd5b506005546102999060ff1681565b604051901515815260200161020c565b3480156102b557600080fd5b506102027f000000000000000000000000000000000000000000000000000000000000000081565b3480156102e957600080fd5b506101aa610970565b3480156102fe57600080fd5b506102027f000000000000000000000000000000000000000000000000000000000000000081565b34801561033257600080fd5b506101aa610bb6565b34801561034757600080fd5b50600354610202565b34801561035c57600080fd5b506000546001600160a01b03165b6040516001600160a01b03909116815260200161020c565b34801561038e57600080fd5b5061020260035481565b3480156103a457600080fd5b506101aa6103b33660046121d8565b610bca565b3480156103c457600080fd5b506102027f000000000000000000000000000000000000000000000000000000000000000081565b3480156103f857600080fd5b50600454610202565b34801561040d57600080fd5b5061020260025481565b34801561042357600080fd5b506101aa6104323660046121d8565b610fac565b34801561044357600080fd5b5061020260015481565b34801561045957600080fd5b506101aa6104683660046121d8565b611458565b34801561047957600080fd5b506101aa6104883660046121d8565b611904565b34801561049957600080fd5b5060055461029990610100900460ff1681565b3480156104b857600080fd5b506102026104c73660046121af565b6001600160a01b03166000908152600a602052604090205490565b3480156104ee57600080fd5b506102027f000000000000000000000000000000000000000000000000000000000000000081565b34801561052257600080fd5b5061036a7f000000000000000000000000000000000000000000000000000000000000000081565b34801561055657600080fd5b506101aa6105653660046121d8565b611ce6565b34801561057657600080fd5b506101aa6105853660046121af565b611fd8565b34801561059657600080fd5b506102026105a53660046121d8565b61206d565b7f00000000000000000000000000000000000000000000000000000000000000004211610603576040517fbfe082fc00000000000000000000000000000000000000000000000000000000815260040160405180910390fd5b61060b6120d3565b600580548215156101000261ff00199091161790556040517f029f9bb82bcc34b8fb93e2f45e19e0db433f6acd8b15ca883f0ef2143b58342c9061065490831515815260200190565b60405180910390a1506005805460ff19166001179055565b7f00000000000000000000000000000000000000000000000000000000000000004211156106ad5760405163700ec25b60e01b815260040160405180910390fd5b60006106d97f000000000000000000000000000000000000000000000000000000000000000083612207565b336000908152600e602052604090205490915081111561070b576040516296118960e51b815260040160405180910390fd5b60006107168261206d565b336000908152600e602052604081208054929350849290919061073a90849061221e565b925050819055508160046000828254610753919061221e565b909155506107639050818361221e565b336000908152600a602052604081208054909190610782908490612231565b92505081905550816003600082825461079b9190612231565b90915550600090506107ad828461221e565b60055460405163a9059cbb60e01b8152620100009091046001600160a01b0390811660048301526024820185905291925084917f0000000000000000000000000000000000000000000000000000000000000000169063a9059cbb906044016020604051808303816000875af115801561082b573d6000803e3d6000fd5b505050506040513d601f19601f8201168201806040525081019061084f9190612244565b5082600260008282546108629190612231565b90915550506006546001600160a01b031663dcb6b26a7f000000000000000000000000000000000000000000000000000000000000000033876108a781600019612261565b6040516001600160e01b031960e087901b16815260048101949094526001600160a01b03909216602484015260448301526064820152608401600060405180830381600087803b1580156108fa57600080fd5b505af115801561090e573d6000803e3d6000fd5b505050506109193390565b6001600160a01b03167fa19c60f7787bc349d4b0903c435f5372c0ec8bd2ac9878a60fbe838caee316668361095084600019612261565b604080519283526020830191909152015b60405180910390a25050505050565b60055460ff166109ac576040517f2ceb370f00000000000000000000000000000000000000000000000000000000815260040160405180910390fd5b336000908152600f602052604090205460ff16156109f6576040517f970f97c200000000000000000000000000000000000000000000000000000000815260040160405180910390fd5b60018054600554909160009182918291610100900460ff1615159003610a6657336000908152600a60205260408120549003610a45576040516302ee147360e21b815260040160405180910390fd5b600354336000908152600a6020526040812080549190559093509150610ab2565b336000908152600e60205260408120549003610a95576040516302ee147360e21b815260040160405180910390fd5b600454336000908152600e60205260408120805491905590935091505b82610abd8584612207565b610ac791906122ad565b336000818152600f60209081526040808320805460ff19166001179055805163a9059cbb60e01b8152600481019490945260248401859052519394507f00000000000000000000000000000000000000000000000000000000000000006001600160a01b03169363a9059cbb936044808201949183900301908290875af1158015610b56573d6000803e3d6000fd5b505050506040513d601f19601f82011682018060405250810190610b7a9190612244565b5060405181815233907fe8354b169cd993d5cdfad1036a9a3f1ea7ed77e430bccb279200fd088243f5959060200160405180910390a250505050565b610bbe6120d3565b610bc8600061212d565b565b7f0000000000000000000000000000000000000000000000000000000000000000421115610c0b5760405163700ec25b60e01b815260040160405180910390fd5b6000610c377f000000000000000000000000000000000000000000000000000000000000000083612207565b336000908152600a6020526040902054909150811115610c6a576040516327905ab760e21b815260040160405180910390fd5b6000610c758261206d565b60055460405163a9059cbb60e01b81526001600160a01b036201000090920482166004820152602481018390529192507f0000000000000000000000000000000000000000000000000000000000000000169063a9059cbb906044016020604051808303816000875af1158015610cf0573d6000803e3d6000fd5b505050506040513d601f19601f82011682018060405250810190610d149190612244565b508060026000828254610d279190612231565b9091555060009050610d39828461221e565b336000908152600a6020526040812080549293508592909190610d5d90849061221e565b9091555050336000908152600a60205260408120549003610ddb57336000908152600960205260408120546008805491929183908110610d9f57610d9f6122cf565b600091825260208083209190910180546001600160a01b0319166001600160a01b03949094169390931790925533815260099091526040812055505b60006001600160a01b037f00000000000000000000000000000000000000000000000000000000000000001663a9059cbb336040516001600160e01b031960e084901b1681526001600160a01b039091166004820152602481018590526044016020604051808303816000875af1158015610e5a573d6000803e3d6000fd5b505050506040513d601f19601f82011682018060405250810190610e7e9190612244565b905080610e9e5760405163c98df4e360e01b815260040160405180910390fd5b8360016000828254610eb0919061221e565b90915550506006546001600160a01b031663dcb6b26a7f000000000000000000000000000000000000000000000000000000000000000033610ef486600019612261565b6040516001600160e01b031960e086901b16815260048101939093526001600160a01b039091166024830152604482015260006064820152608401600060405180830381600087803b158015610f4957600080fd5b505af1158015610f5d573d6000803e3d6000fd5b50505050610f683390565b6001600160a01b03167fcbc0df49dd88ec0ba5b87a3c77ed66af6480b175df0f21649805ed6201c56145836000604051610961929190918252602082015260400190565b7f0000000000000000000000000000000000000000000000000000000000000000421115610fed5760405163700ec25b60e01b815260040160405180910390fd5b6001811015610ffb57600080fd5b60006110277f000000000000000000000000000000000000000000000000000000000000000083612207565b9050806001600160a01b037f00000000000000000000000000000000000000000000000000000000000000001663dd62ed3e336040516001600160e01b031960e084901b1681526001600160a01b039091166004820152306024820152604401602060405180830381865afa1580156110a4573d6000803e3d6000fd5b505050506040513d601f19601f820116820180604052508101906110c891906122e5565b10156110e75760405163ca234f3960e01b815260040160405180910390fd5b60006001600160a01b037f0000000000000000000000000000000000000000000000000000000000000000166323b872dd336040516001600160e01b031960e084901b1681526001600160a01b039091166004820152306024820152604481018590526064016020604051808303816000875af115801561116c573d6000803e3d6000fd5b505050506040513d601f19601f820116820180604052508101906111909190612244565b9050806111b05760405163c98df4e360e01b815260040160405180910390fd5b60006111bb8361206d565b60055460405163a9059cbb60e01b81526001600160a01b036201000090920482166004820152602481018390529192507f0000000000000000000000000000000000000000000000000000000000000000169063a9059cbb906044016020604051808303816000875af1158015611236573d6000803e3d6000fd5b505050506040513d601f19601f8201168201806040525081019061125a9190612244565b50806002600082825461126d9190612231565b9091555061127d9050818461221e565b6001600082825461128e9190612231565b9091555061129e9050818461221e565b600460008282546112af9190612231565b90915550600090506112c1828561221e565b336000908152600e60205260408120805492935083929091906112e5908490612231565b9091555050336000908152600d6020526040812054900361136d57600061130b600b5490565b336000818152600d6020526040812092909255600c805460018082018355919093527fdf6966c971051c3d54ec59162606531493a51404a002842f56009d7e5cf4a8c790920180546001600160a01b0319169091179055600b80549091019055505b6006546001600160a01b031663dcb6b26a7f0000000000000000000000000000000000000000000000000000000000000000336040516001600160e01b031960e085901b16815260048101929092526001600160a01b031660248201526000604482015260648101849052608401600060405180830381600087803b1580156113f557600080fd5b505af1158015611409573d6000803e3d6000fd5b505050506114143390565b6001600160a01b03167fc28482fd780ce54c9bfc165ed6ce12f1e7e4e07dc6270292223ac3275818dd0d600083604051610961929190918252602082015260400190565b7f00000000000000000000000000000000000000000000000000000000000000004211156114995760405163700ec25b60e01b815260040160405180910390fd5b60018110156114a757600080fd5b60006114d37f000000000000000000000000000000000000000000000000000000000000000083612207565b9050806001600160a01b037f00000000000000000000000000000000000000000000000000000000000000001663dd62ed3e336040516001600160e01b031960e084901b1681526001600160a01b039091166004820152306024820152604401602060405180830381865afa158015611550573d6000803e3d6000fd5b505050506040513d601f19601f8201168201806040525081019061157491906122e5565b10156115935760405163ca234f3960e01b815260040160405180910390fd5b60006001600160a01b037f0000000000000000000000000000000000000000000000000000000000000000166323b872dd336040516001600160e01b031960e084901b1681526001600160a01b039091166004820152306024820152604481018590526064016020604051808303816000875af1158015611618573d6000803e3d6000fd5b505050506040513d601f19601f8201168201806040525081019061163c9190612244565b90508061165c5760405163c98df4e360e01b815260040160405180910390fd5b60006116678361206d565b60055460405163a9059cbb60e01b81526001600160a01b036201000090920482166004820152602481018390529192507f0000000000000000000000000000000000000000000000000000000000000000169063a9059cbb906044016020604051808303816000875af11580156116e2573d6000803e3d6000fd5b505050506040513d601f19601f820116820180604052508101906117069190612244565b5080600260008282546117199190612231565b909155506117299050818461221e565b6001600082825461173a9190612231565b9091555061174a9050818461221e565b6003600082825461175b9190612231565b909155506000905061176d828561221e565b336000908152600a6020526040812080549293508392909190611791908490612231565b90915550503360009081526009602052604081205490036118195760006117b760075490565b336000818152600960205260408120929092556008805460018082018355919093527ff3f7a9fe364faab93b216da50a3214154f22a0a2b415b23a84c8169e8b636ee390920180546001600160a01b0319169091179055600780549091019055505b6006546001600160a01b031663dcb6b26a7f0000000000000000000000000000000000000000000000000000000000000000336040516001600160e01b031960e085901b16815260048101929092526001600160a01b031660248201526044810184905260006064820152608401600060405180830381600087803b1580156118a157600080fd5b505af11580156118b5573d6000803e3d6000fd5b505050506118c03390565b6001600160a01b03167fc28482fd780ce54c9bfc165ed6ce12f1e7e4e07dc6270292223ac3275818dd0d826000604051610961929190918252602082015260400190565b7f00000000000000000000000000000000000000000000000000000000000000004211156119455760405163700ec25b60e01b815260040160405180910390fd5b60006119717f000000000000000000000000000000000000000000000000000000000000000083612207565b336000908152600e60205260409020549091508111156119a4576040516327905ab760e21b815260040160405180910390fd5b60006119af8261206d565b60055460405163a9059cbb60e01b81526001600160a01b036201000090920482166004820152602481018390529192507f0000000000000000000000000000000000000000000000000000000000000000169063a9059cbb906044016020604051808303816000875af1158015611a2a573d6000803e3d6000fd5b505050506040513d601f19601f82011682018060405250810190611a4e9190612244565b508060026000828254611a619190612231565b9091555060009050611a73828461221e565b336000908152600e6020526040812080549293508592909190611a9790849061221e565b9091555050336000908152600e60205260408120549003611b1557336000908152600d6020526040812054600c805491929183908110611ad957611ad96122cf565b600091825260208083209190910180546001600160a01b0319166001600160a01b039490941693909317909255338152600d9091526040812055505b60006001600160a01b037f00000000000000000000000000000000000000000000000000000000000000001663a9059cbb336040516001600160e01b031960e084901b1681526001600160a01b039091166004820152602481018590526044016020604051808303816000875af1158015611b94573d6000803e3d6000fd5b505050506040513d601f19601f82011682018060405250810190611bb89190612244565b905080611bd85760405163c98df4e360e01b815260040160405180910390fd5b8360016000828254611bea919061221e565b90915550506006546001600160a01b031663dcb6b26a7f0000000000000000000000000000000000000000000000000000000000000000336000611c3087600019612261565b6040516001600160e01b031960e087901b16815260048101949094526001600160a01b03909216602484015260448301526064820152608401600060405180830381600087803b158015611c8357600080fd5b505af1158015611c97573d6000803e3d6000fd5b50505050611ca23390565b6001600160a01b03167fcbc0df49dd88ec0ba5b87a3c77ed66af6480b175df0f21649805ed6201c56145600084604051610961929190918252602082015260400190565b7f0000000000000000000000000000000000000000000000000000000000000000421115611d275760405163700ec25b60e01b815260040160405180910390fd5b6000611d537f000000000000000000000000000000000000000000000000000000000000000083612207565b336000908152600a6020526040902054909150811115611d85576040516296118960e51b815260040160405180910390fd5b6000611d908261206d565b9050611d9c818361221e565b336000908152600e602052604081208054909190611dbb908490612231565b925050819055508160046000828254611dd49190612231565b9091555050336000908152600a602052604081208054849290611df890849061221e565b925050819055508160036000828254611e11919061221e565b909155508290506000611e24838361221e565b60055460405163a9059cbb60e01b81526001600160a01b036201000090920482166004820152602481018690529192507f0000000000000000000000000000000000000000000000000000000000000000169063a9059cbb906044016020604051808303816000875af1158015611e9f573d6000803e3d6000fd5b505050506040513d601f19601f82011682018060405250810190611ec39190612244565b508260026000828254611ed69190612231565b90915550506006546001600160a01b031663dcb6b26a7f000000000000000000000000000000000000000000000000000000000000000033611f1a88600019612261565b6040516001600160e01b031960e086901b16815260048101939093526001600160a01b039091166024830152604482015260648101879052608401600060405180830381600087803b158015611f6f57600080fd5b505af1158015611f83573d6000803e3d6000fd5b50505050611f8e3390565b6001600160a01b03167fa19c60f7787bc349d4b0903c435f5372c0ec8bd2ac9878a60fbe838caee31666611fc484600019612261565b604080519182526020820185905201610961565b611fe06120d3565b6001600160a01b0381166120615760405162461bcd60e51b815260206004820152602660248201527f4f776e61626c653a206e6577206f776e657220697320746865207a65726f206160448201527f646472657373000000000000000000000000000000000000000000000000000060648201526084015b60405180910390fd5b61206a8161212d565b50565b60007f00000000000000000000000000000000000000000000000000000000000000006120ba7f000000000000000000000000000000000000000000000000000000000000000084612207565b6120c491906122ad565b92915050565b80546001019055565b6000546001600160a01b03163314610bc85760405162461bcd60e51b815260206004820181905260248201527f4f776e61626c653a2063616c6c6572206973206e6f7420746865206f776e65726044820152606401612058565b600080546001600160a01b038381166001600160a01b0319831681178455604051919092169283917f8be0079c531659141344cd1fd0a4f28419497f9722a3daafe3b4186f6b6457e09190a35050565b801515811461206a57600080fd5b60006020828403121561219d57600080fd5b81356121a88161217d565b9392505050565b6000602082840312156121c157600080fd5b81356001600160a01b03811681146121a857600080fd5b6000602082840312156121ea57600080fd5b5035919050565b634e487b7160e01b600052601160045260246000fd5b80820281158282048414176120c4576120c46121f1565b818103818111156120c4576120c46121f1565b808201808211156120c4576120c46121f1565b60006020828403121561225657600080fd5b81516121a88161217d565b808202600082127f800000000000000000000000000000000000000000000000000000000000000084141615612299576122996121f1565b81810583148215176120c4576120c46121f1565b6000826122ca57634e487b7160e01b600052601260045260246000fd5b500490565b634e487b7160e01b600052603260045260246000fd5b6000602082840312156122f757600080fd5b505191905056fea2646970667358221220038e5f75c0bad9f77c0afb30418b880b708a57badd0ac1958b0963c606f688e864736f6c63430008120033a264697066735822122060ebc291bc8c80880e7d228242832d5d7614645aa72ce81e9d41ef864e359b4264736f6c63430008120033",
  "devdoc": {
    "events": {
      "ConcludeFatalError(uint256,uint256,bool,int224,int224)": {
        "params": {
          "isAbove": "The target orice was supposed to be above a set limit.",
          "predictionId": "The unique identifier of the prediction.",
          "priceReading": "The current price reading provided by a dAPI.",
          "priceTarget": "The target point that was the base for a prediction.",
          "timestamp": "The timestamp when conclude failed."
        }
      },
      "PredictionCreated(uint256,address,address,uint256,uint256)": {
        "params": {
          "creator": "The creator responsible for creating the prediction.",
          "marketHandler": "The address of the MarketHandler that enables the prediction to be traded upon.",
          "predictionId": "The unique identifier of the prediction.",
          "timestamp": "The timestamp when the prediction was created to be traded upon."
        }
      }
    },
    "kind": "dev",
    "methods": {
      "concludePrediction_2(uint256,bool)": {
        "params": {
          "_predictionId": "The unique identifier for each prediction created.",
          "_vote": "The final result of the prediction. vote - True : The target price was predicted to be BELOW/ABOVE a threshold AND IS BELOW/ABOVE the threshold respectively. vote - False : The target price was predicted to be BELOW/ABOVE a threshold BUT IS ABOVE/BELOW the threshold respectively."
        }
      },
      "constructor": {
        "params": {
          "_usdc": "The payment token addresTRADING_FEEs."
        }
      },
      "createPrediction(string,address,bool,int224,uint256,uint256)": {
        "params": {
          "_basePrice": "The minimum cost of one 'Yes' or 'No' token for the prediction market to be created. Is a multiple of 0.01 USD or 1 cent.",
          "_deadline": "The timestamp when the target and current price are to be checked against.",
          "_isAbove": "True if for a prediction the price will go above a set limit and false if otherwise.",
          "_tokenSymbol": "The symbol to represent the asset we are prediction upon. Eg : BTC / ETH / XRP etc."
        }
      },
      "owner()": {
        "details": "Returns the address of the current owner."
      },
      "renounceOwnership()": {
        "details": "Leaves the contract without owner. It will not be possible to call `onlyOwner` functions anymore. Can only be called by the current owner. NOTE: Renouncing ownership will leave the contract without an owner, thereby removing any functionality that is only available to the owner."
      },
      "trackProgress(uint256,address,int256,int256)": {
        "details": "Is important since its harder to track each market handler on 'The Graph' separately."
      },
      "transferOwnership(address)": {
        "details": "Transfers ownership of the contract to a new account (`newOwner`). Can only be called by the current owner."
      }
    },
    "version": 1
  },
  "userdoc": {
    "events": {
      "ConcludeFatalError(uint256,uint256,bool,int224,int224)": {
        "notice": "To track if for some reason a certain prediction was not able to be concluded."
      },
      "PredictionCreated(uint256,address,address,uint256,uint256)": {
        "notice": "Event to declare a prediction market is available to be traded."
      }
    },
    "kind": "user",
    "methods": {
      "PLATFORM_FEE()": {
        "notice": "To avoid DDOS by adding some cost to the creation. Can't be changed once defined."
      },
      "TRADING_FEE()": {
        "notice": "0.01% * 50 = 0.5%."
      },
      "concludePrediction_2(uint256,bool)": {
        "notice": "Called by the Settlement contract which concludes the prediction and returns the vote i.e if the prediction was in the favour of 'Yes' or 'No'."
      },
      "createPrediction(string,address,bool,int224,uint256,uint256)": {
        "notice": "Called by the owner on behalf of the _caller and create a market for them.Step necessary to make sure all the parameters are vaild and are true with no manipulation."
      },
      "getNextPredictionId()": {
        "notice": "Getter functions ------"
      },
      "setSettlementAddress(address)": {
        "notice": "Setter functions ------"
      },
      "settlementAddress()": {
        "notice": "The address that starts the chain of concluding a prediction."
      },
      "trackProgress(uint256,address,int256,int256)": {
        "notice": "SPECIAL FUNCTION ====================================================Function provided to act as an aggregator and help track all the things that are happening on all of its child market handlers."
      },
      "vaultAddress()": {
        "notice": "The address responsible for storing the funds collected."
      }
    },
    "notice": "The centre point of Settlement and each new Market Handler",
    "version": 1
  },
  "storageLayout": {
    "storage": [
      {
        "astId": 26,
        "contract": "contracts/common/Trading.sol:PredictionMarket",
        "label": "_owner",
        "offset": 0,
        "slot": "0",
        "type": "t_address"
      },
      {
        "astId": 1171,
        "contract": "contracts/common/Trading.sol:PredictionMarket",
        "label": "nextPredictionId",
        "offset": 0,
        "slot": "1",
        "type": "t_struct(Counter)849_storage"
      },
      {
        "astId": 1183,
        "contract": "contracts/common/Trading.sol:PredictionMarket",
        "label": "TRADING_FEE",
        "offset": 0,
        "slot": "2",
        "type": "t_uint256"
      },
      {
        "astId": 1189,
        "contract": "contracts/common/Trading.sol:PredictionMarket",
        "label": "predictions",
        "offset": 0,
        "slot": "3",
        "type": "t_mapping(t_uint256,t_struct(Prediction)1156_storage)"
      },
      {
        "astId": 1194,
        "contract": "contracts/common/Trading.sol:PredictionMarket",
        "label": "predictionIdToProxy",
        "offset": 0,
        "slot": "4",
        "type": "t_mapping(t_uint256,t_address)"
      },
      {
        "astId": 1199,
        "contract": "contracts/common/Trading.sol:PredictionMarket",
        "label": "blacklisted",
        "offset": 0,
        "slot": "5",
        "type": "t_mapping(t_address,t_bool)"
      },
      {
        "astId": 1250,
        "contract": "contracts/common/Trading.sol:PredictionMarket",
        "label": "settlementAddress",
        "offset": 0,
        "slot": "6",
        "type": "t_address"
      },
      {
        "astId": 1253,
        "contract": "contracts/common/Trading.sol:PredictionMarket",
        "label": "vaultAddress",
        "offset": 0,
        "slot": "7",
        "type": "t_address"
      }
    ],
    "types": {
      "t_address": {
        "encoding": "inplace",
        "label": "address",
        "numberOfBytes": "20"
      },
      "t_bool": {
        "encoding": "inplace",
        "label": "bool",
        "numberOfBytes": "1"
      },
      "t_int224": {
        "encoding": "inplace",
        "label": "int224",
        "numberOfBytes": "28"
      },
      "t_mapping(t_address,t_bool)": {
        "encoding": "mapping",
        "key": "t_address",
        "label": "mapping(address => bool)",
        "numberOfBytes": "32",
        "value": "t_bool"
      },
      "t_mapping(t_uint256,t_address)": {
        "encoding": "mapping",
        "key": "t_uint256",
        "label": "mapping(uint256 => address)",
        "numberOfBytes": "32",
        "value": "t_address"
      },
      "t_mapping(t_uint256,t_struct(Prediction)1156_storage)": {
        "encoding": "mapping",
        "key": "t_uint256",
        "label": "mapping(uint256 => struct Prediction)",
        "numberOfBytes": "32",
        "value": "t_struct(Prediction)1156_storage"
      },
      "t_string_storage": {
        "encoding": "bytes",
        "label": "string",
        "numberOfBytes": "32"
      },
      "t_struct(Counter)849_storage": {
        "encoding": "inplace",
        "label": "struct Counters.Counter",
        "members": [
          {
            "astId": 848,
            "contract": "contracts/common/Trading.sol:PredictionMarket",
            "label": "_value",
            "offset": 0,
            "slot": "0",
            "type": "t_uint256"
          }
        ],
        "numberOfBytes": "32"
      },
      "t_struct(Prediction)1156_storage": {
        "encoding": "inplace",
        "label": "struct Prediction",
        "members": [
          {
            "astId": 1137,
            "contract": "contracts/common/Trading.sol:PredictionMarket",
            "label": "tokenSymbol",
            "offset": 0,
            "slot": "0",
            "type": "t_string_storage"
          },
          {
            "astId": 1139,
            "contract": "contracts/common/Trading.sol:PredictionMarket",
            "label": "targetPricePoint",
            "offset": 0,
            "slot": "1",
            "type": "t_int224"
          },
          {
            "astId": 1141,
            "contract": "contracts/common/Trading.sol:PredictionMarket",
            "label": "isAbove",
            "offset": 28,
            "slot": "1",
            "type": "t_bool"
          },
          {
            "astId": 1143,
            "contract": "contracts/common/Trading.sol:PredictionMarket",
            "label": "proxyAddress",
            "offset": 0,
            "slot": "2",
            "type": "t_address"
          },
          {
            "astId": 1145,
            "contract": "contracts/common/Trading.sol:PredictionMarket",
            "label": "fee",
            "offset": 0,
            "slot": "3",
            "type": "t_uint256"
          },
          {
            "astId": 1147,
            "contract": "contracts/common/Trading.sol:PredictionMarket",
            "label": "timestamp",
            "offset": 0,
            "slot": "4",
            "type": "t_uint256"
          },
          {
            "astId": 1149,
            "contract": "contracts/common/Trading.sol:PredictionMarket",
            "label": "deadline",
            "offset": 0,
            "slot": "5",
            "type": "t_uint256"
          },
          {
            "astId": 1151,
            "contract": "contracts/common/Trading.sol:PredictionMarket",
            "label": "isActive",
            "offset": 0,
            "slot": "6",
            "type": "t_bool"
          },
          {
            "astId": 1153,
            "contract": "contracts/common/Trading.sol:PredictionMarket",
            "label": "marketHandler",
            "offset": 1,
            "slot": "6",
            "type": "t_address"
          },
          {
            "astId": 1155,
            "contract": "contracts/common/Trading.sol:PredictionMarket",
            "label": "predictionTokenPrice",
            "offset": 0,
            "slot": "7",
            "type": "t_uint256"
          }
        ],
        "numberOfBytes": "256"
      },
      "t_uint256": {
        "encoding": "inplace",
        "label": "uint256",
        "numberOfBytes": "32"
      }
    }
  }
}