{
  "address": "0xF1b2c142FF09eAc8dE9e6Ac19362e0F4bf895915",
  "abi": [
    {
      "inputs": [
        {
          "internalType": "address",
          "name": "_usdc",
          "type": "address"
        }
      ],
      "stateMutability": "nonpayable",
      "type": "constructor"
    },
    {
      "inputs": [],
      "name": "PM_InsufficientApprovedAmount",
      "type": "error"
    },
    {
      "anonymous": false,
      "inputs": [
        {
          "indexed": true,
          "internalType": "uint256",
          "name": "predictionId",
          "type": "uint256"
        },
        {
          "indexed": false,
          "internalType": "uint256",
          "name": "timestamp",
          "type": "uint256"
        },
        {
          "indexed": false,
          "internalType": "bool",
          "name": "isAbove",
          "type": "bool"
        },
        {
          "indexed": true,
          "internalType": "int224",
          "name": "priceReading",
          "type": "int224"
        },
        {
          "indexed": true,
          "internalType": "int224",
          "name": "priceTarget",
          "type": "int224"
        }
      ],
      "name": "ConcludeFatalError",
      "type": "event"
    },
    {
      "anonymous": false,
      "inputs": [
        {
          "indexed": true,
          "internalType": "uint256",
          "name": "predictionId",
          "type": "uint256"
        },
        {
          "indexed": true,
          "internalType": "address",
          "name": "marketHandler",
          "type": "address"
        },
        {
          "indexed": true,
          "internalType": "address",
          "name": "trader",
          "type": "address"
        },
        {
          "indexed": false,
          "internalType": "int256",
          "name": "amountYes",
          "type": "int256"
        },
        {
          "indexed": false,
          "internalType": "int256",
          "name": "amountNo",
          "type": "int256"
        }
      ],
      "name": "HandlerProgress",
      "type": "event"
    },
    {
      "anonymous": false,
      "inputs": [
        {
          "indexed": true,
          "internalType": "address",
          "name": "previousOwner",
          "type": "address"
        },
        {
          "indexed": true,
          "internalType": "address",
          "name": "newOwner",
          "type": "address"
        }
      ],
      "name": "OwnershipTransferred",
      "type": "event"
    },
    {
      "anonymous": false,
      "inputs": [
        {
          "indexed": true,
          "internalType": "uint256",
          "name": "predictionId",
          "type": "uint256"
        },
        {
          "indexed": false,
          "internalType": "uint256",
          "name": "timestamp",
          "type": "uint256"
        }
      ],
      "name": "PredictionConcluded",
      "type": "event"
    },
    {
      "anonymous": false,
      "inputs": [
        {
          "indexed": true,
          "internalType": "uint256",
          "name": "predictionId",
          "type": "uint256"
        },
        {
          "indexed": true,
          "internalType": "address",
          "name": "marketHandler",
          "type": "address"
        },
        {
          "indexed": false,
          "internalType": "address",
          "name": "creator",
          "type": "address"
        },
        {
          "indexed": false,
          "internalType": "uint256",
          "name": "timestamp",
          "type": "uint256"
        },
        {
          "indexed": true,
          "internalType": "uint256",
          "name": "deadline",
          "type": "uint256"
        }
      ],
      "name": "PredictionCreated",
      "type": "event"
    },
    {
      "stateMutability": "payable",
      "type": "fallback"
    },
    {
      "inputs": [],
      "name": "PLATFORM_FEE",
      "outputs": [
        {
          "internalType": "uint256",
          "name": "",
          "type": "uint256"
        }
      ],
      "stateMutability": "view",
      "type": "function"
    },
    {
      "inputs": [],
      "name": "TRADING_FEE",
      "outputs": [
        {
          "internalType": "uint256",
          "name": "",
          "type": "uint256"
        }
      ],
      "stateMutability": "view",
      "type": "function"
    },
    {
      "inputs": [
        {
          "internalType": "bytes32",
          "name": "_bytes32Data",
          "type": "bytes32"
        }
      ],
      "name": "bytes32ToString",
      "outputs": [
        {
          "internalType": "string",
          "name": "",
          "type": "string"
        }
      ],
      "stateMutability": "pure",
      "type": "function"
    },
    {
      "inputs": [
        {
          "internalType": "uint256",
          "name": "_predictionId",
          "type": "uint256"
        },
        {
          "internalType": "bool",
          "name": "_vote",
          "type": "bool"
        },
        {
          "internalType": "address",
          "name": "_initiator",
          "type": "address"
        }
      ],
      "name": "concludePrediction_2",
      "outputs": [],
      "stateMutability": "nonpayable",
      "type": "function"
    },
    {
      "inputs": [
        {
          "internalType": "bytes32",
          "name": "_tokenSymbol",
          "type": "bytes32"
        },
        {
          "internalType": "address",
          "name": "_proxyAddress",
          "type": "address"
        },
        {
          "internalType": "bool",
          "name": "_isAbove",
          "type": "bool"
        },
        {
          "internalType": "int224",
          "name": "_targetPricePoint",
          "type": "int224"
        },
        {
          "internalType": "uint256",
          "name": "_deadline",
          "type": "uint256"
        },
        {
          "internalType": "uint256",
          "name": "_basePrice",
          "type": "uint256"
        }
      ],
      "name": "createPrediction",
      "outputs": [
        {
          "internalType": "uint256",
          "name": "",
          "type": "uint256"
        }
      ],
      "stateMutability": "nonpayable",
      "type": "function"
    },
    {
      "inputs": [],
      "name": "getNextPredictionId",
      "outputs": [
        {
          "internalType": "uint256",
          "name": "",
          "type": "uint256"
        }
      ],
      "stateMutability": "view",
      "type": "function"
    },
    {
      "inputs": [
        {
          "internalType": "uint256",
          "name": "_predictionId",
          "type": "uint256"
        }
      ],
      "name": "getPrediction",
      "outputs": [
        {
          "components": [
            {
              "internalType": "string",
              "name": "tokenSymbol",
              "type": "string"
            },
            {
              "internalType": "int224",
              "name": "targetPricePoint",
              "type": "int224"
            },
            {
              "internalType": "bool",
              "name": "isAbove",
              "type": "bool"
            },
            {
              "internalType": "address",
              "name": "proxyAddress",
              "type": "address"
            },
            {
              "internalType": "uint256",
              "name": "fee",
              "type": "uint256"
            },
            {
              "internalType": "uint256",
              "name": "timestamp",
              "type": "uint256"
            },
            {
              "internalType": "uint256",
              "name": "deadline",
              "type": "uint256"
            },
            {
              "internalType": "bool",
              "name": "isActive",
              "type": "bool"
            },
            {
              "internalType": "address",
              "name": "marketHandler",
              "type": "address"
            },
            {
              "internalType": "uint256",
              "name": "predictionTokenPrice",
              "type": "uint256"
            }
          ],
          "internalType": "struct Prediction",
          "name": "",
          "type": "tuple"
        }
      ],
      "stateMutability": "view",
      "type": "function"
    },
    {
      "inputs": [
        {
          "internalType": "uint256[]",
          "name": "_ids",
          "type": "uint256[]"
        },
        {
          "internalType": "uint256",
          "name": "_limit",
          "type": "uint256"
        }
      ],
      "name": "getPredictions",
      "outputs": [
        {
          "components": [
            {
              "internalType": "string",
              "name": "tokenSymbol",
              "type": "string"
            },
            {
              "internalType": "int224",
              "name": "targetPricePoint",
              "type": "int224"
            },
            {
              "internalType": "bool",
              "name": "isAbove",
              "type": "bool"
            },
            {
              "internalType": "address",
              "name": "proxyAddress",
              "type": "address"
            },
            {
              "internalType": "uint256",
              "name": "fee",
              "type": "uint256"
            },
            {
              "internalType": "uint256",
              "name": "timestamp",
              "type": "uint256"
            },
            {
              "internalType": "uint256",
              "name": "deadline",
              "type": "uint256"
            },
            {
              "internalType": "bool",
              "name": "isActive",
              "type": "bool"
            },
            {
              "internalType": "address",
              "name": "marketHandler",
              "type": "address"
            },
            {
              "internalType": "uint256",
              "name": "predictionTokenPrice",
              "type": "uint256"
            }
          ],
          "internalType": "struct Prediction[]",
          "name": "",
          "type": "tuple[]"
        }
      ],
      "stateMutability": "view",
      "type": "function"
    },
    {
      "inputs": [
        {
          "internalType": "uint256[]",
          "name": "_ids",
          "type": "uint256[]"
        },
        {
          "internalType": "uint256",
          "name": "_limit",
          "type": "uint256"
        }
      ],
      "name": "getProxiesForPredictions",
      "outputs": [
        {
          "internalType": "address[]",
          "name": "",
          "type": "address[]"
        }
      ],
      "stateMutability": "view",
      "type": "function"
    },
    {
      "inputs": [
        {
          "internalType": "uint256",
          "name": "_predictionId",
          "type": "uint256"
        }
      ],
      "name": "getProxyForPrediction",
      "outputs": [
        {
          "internalType": "address",
          "name": "",
          "type": "address"
        }
      ],
      "stateMutability": "view",
      "type": "function"
    },
    {
      "inputs": [],
      "name": "owner",
      "outputs": [
        {
          "internalType": "address",
          "name": "",
          "type": "address"
        }
      ],
      "stateMutability": "view",
      "type": "function"
    },
    {
      "inputs": [],
      "name": "renounceOwnership",
      "outputs": [],
      "stateMutability": "nonpayable",
      "type": "function"
    },
    {
      "inputs": [
        {
          "internalType": "address",
          "name": "_settlement",
          "type": "address"
        }
      ],
      "name": "setSettlementAddress",
      "outputs": [],
      "stateMutability": "nonpayable",
      "type": "function"
    },
    {
      "inputs": [
        {
          "internalType": "uint256",
          "name": "_newFee",
          "type": "uint256"
        }
      ],
      "name": "setTradingFee",
      "outputs": [],
      "stateMutability": "nonpayable",
      "type": "function"
    },
    {
      "inputs": [
        {
          "internalType": "address",
          "name": "_vault",
          "type": "address"
        }
      ],
      "name": "setVaultAddress",
      "outputs": [],
      "stateMutability": "nonpayable",
      "type": "function"
    },
    {
      "inputs": [],
      "name": "settlementAddress",
      "outputs": [
        {
          "internalType": "address",
          "name": "",
          "type": "address"
        }
      ],
      "stateMutability": "view",
      "type": "function"
    },
    {
      "inputs": [
        {
          "internalType": "uint256",
          "name": "_id",
          "type": "uint256"
        },
        {
          "internalType": "address",
          "name": "_caller",
          "type": "address"
        },
        {
          "internalType": "int256",
          "name": "_amountYes",
          "type": "int256"
        },
        {
          "internalType": "int256",
          "name": "_amountNo",
          "type": "int256"
        }
      ],
      "name": "trackProgress",
      "outputs": [],
      "stateMutability": "nonpayable",
      "type": "function"
    },
    {
      "inputs": [
        {
          "internalType": "address",
          "name": "newOwner",
          "type": "address"
        }
      ],
      "name": "transferOwnership",
      "outputs": [],
      "stateMutability": "nonpayable",
      "type": "function"
    },
    {
      "inputs": [],
      "name": "vaultAddress",
      "outputs": [
        {
          "internalType": "address",
          "name": "",
          "type": "address"
        }
      ],
      "stateMutability": "view",
      "type": "function"
    },
    {
      "stateMutability": "payable",
      "type": "receive"
    }
  ],
  "transactionHash": "0xcabe854fff4db1538eb02bdb3ef96e17eeb67da1a869eb76acf7cb7367899b4e",
  "args": [
    "0x7B28B177Bca06Abd37518F66ADa2825BF7386A7D"
  ],
  "numDeployments": 1,
  "solcInputHash": "8e9e1187a9d68a65943f6704ca5f0f81",
  "bytecode": "0x60a060405260326002553480156200001657600080fd5b5060405162004485380380620044858339810160408190526200003991620000c9565b620000443362000070565b6001600160a01b038116608052620000696001620000c0602090811b620012fd17901c565b50620000fb565b600080546001600160a01b038381166001600160a01b0319831681178455604051919092169283917f8be0079c531659141344cd1fd0a4f28419497f9722a3daafe3b4186f6b6457e09190a35050565b80546001019055565b600060208284031215620000dc57600080fd5b81516001600160a01b0381168114620000f457600080fd5b9392505050565b60805161436062000125600039600081816108ff01528181610c4c0152610ce901526143606000f3fe608060405260043610620001155760003560e01c806373a3cc2311620000a7578063d10d9e061162000069578063d10d9e061462000359578063dcb6b26a146200037e578063f2fde38b14620003a3578063f738c4a714620003c8578063fe83bece14620003ea57005b806373a3cc23146200029657806385535cc514620002bb5780638da5cb5b14620002e05780639201de551462000300578063b0d54bcf146200033457005b80631a171f39146200011f57806323531b90146200014457806334fbc9a1146200016f5780633dcab2381462000189578063430bf08a14620001a1578063461d282b14620001dc57806360adf22314620002165780636c9e4d17146200024a578063715018a6146200027e57005b366200011d57005b005b3480156200012c57600080fd5b506200011d6200013e366004620013ec565b6200041e565b3480156200015157600080fd5b506200015c60025481565b6040519081526020015b60405180910390f35b3480156200017c57600080fd5b506200015c6302faf08081565b3480156200019657600080fd5b506200015c62000576565b348015620001ae57600080fd5b50600754620001c3906001600160a01b031681565b6040516001600160a01b03909116815260200162000166565b348015620001e957600080fd5b50620001c3620001fb3660046200142f565b6000908152600460205260409020546001600160a01b031690565b3480156200022357600080fd5b506200023b620002353660046200145f565b62000587565b60405162000166919062001633565b3480156200025757600080fd5b506200026f620002693660046200145f565b62000727565b60405162000166919062001699565b3480156200028b57600080fd5b506200011d620007bb565b348015620002a357600080fd5b506200011d620002b5366004620016e8565b620007d3565b348015620002c857600080fd5b506200011d620002da366004620016e8565b620007ff565b348015620002ed57600080fd5b506000546001600160a01b0316620001c3565b3480156200030d57600080fd5b50620003256200031f3660046200142f565b6200082b565b6040516200016691906200170d565b3480156200034157600080fd5b506200011d620003533660046200142f565b620008be565b3480156200036657600080fd5b506200015c6200037836600462001722565b620008cd565b3480156200038b57600080fd5b506200011d6200039d36600462001792565b62000fb2565b348015620003b057600080fd5b506200011d620003c2366004620016e8565b620010f8565b348015620003d557600080fd5b50600654620001c3906001600160a01b031681565b348015620003f757600080fd5b506200040f620004093660046200142f565b62001177565b604051620001669190620017d0565b60065433906001600160a01b031681146200043857600080fd5b60008481526003602052604090206005015442106200045657600080fd5b6000848152600360205260409081902060060154905163086c9a8160e11b815284151560048201526101009091046001600160a01b031690819081906310d9350290602401600060405180830381600087803b158015620004b657600080fd5b505af1158015620004cb573d6000803e3d6000fd5b5050600754604051637b50a18f60e11b81526001600160a01b038881166004830152909116925082915063f6a1431e90602401600060405180830381600087803b1580156200051957600080fd5b505af11580156200052e573d6000803e3d6000fd5b50505050867f8942a99ecf13e35a279676a3f0e93405df4c4022b90e0649908e349da0c64a5a426040516200056591815260200190565b60405180910390a250505050505050565b60006200058260015490565b905090565b60608060005b838110156200071f5760036000868381518110620005af57620005af620017e5565b6020026020010151815260200190815260200160002060405180610140016040529081600082018054620005e390620017fb565b80601f01602080910402602001604051908101604052809291908181526020018280546200061190620017fb565b8015620006625780601f10620006365761010080835404028352916020019162000662565b820191906000526020600020905b8154815290600101906020018083116200064457829003601f168201915b50505091835250506001820154601b81900b602083015260ff600160e01b90910481161515604083015260028301546001600160a01b03908116606084015260038401546080840152600484015460a0840152600584015460c08401526006840154918216151560e0840152610100918290041690820152600790910154610120909101528251839083908110620006fe57620006fe620017e5565b60200260200101819052508080620007169062001837565b9150506200058d565b509392505050565b60608060005b838110156200071f57600460008683815181106200074f576200074f620017e5565b6020026020010151815260200190815260200160002060009054906101000a90046001600160a01b03168282815181106200078e576200078e620017e5565b6001600160a01b039092166020928302919091019091015280620007b28162001837565b9150506200072d565b620007c562001306565b620007d1600062001362565b565b620007dd62001306565b600680546001600160a01b0319166001600160a01b0392909216919091179055565b6200080962001306565b600780546001600160a01b0319166001600160a01b0392909216919091179055565b6040805160208082528183019092526060916000919060208201818036833701905050905060005b6020811015620008b757838160208110620008725762000872620017e5565b1a60f81b8282815181106200088b576200088b620017e5565b60200101906001600160f81b031916908160001a90535080620008ae8162001837565b91505062000853565b5092915050565b620008c862001306565b600255565b60008033604051636eb1769f60e11b81526001600160a01b0380831660048301523060248301529192506302faf080917f0000000000000000000000000000000000000000000000000000000000000000169063dd62ed3e90604401602060405180830381865afa15801562000947573d6000803e3d6000fd5b505050506040513d601f19601f820116820180604052508101906200096d91906200185f565b1015620009b65760405162461bcd60e51b8152602060048201526012602482015271416c6c6f77616e6365206e6f74207365742160701b60448201526064015b60405180910390fd5b6001600160a01b03871662000a265760405162461bcd60e51b815260206004820152602f60248201527f43616e277420686176652061646472657373207a65726f20617320746865207060448201526e3937bc3c93b99030b2323932b9b99760891b6064820152608401620009ad565b42841162000a775760405162461bcd60e51b815260206004820152601e60248201527f446561646c696e652063616e277420626520696e2074686520706173742e00006044820152606401620009ad565b600062000a8360015490565b90506000600360008381526020019081526020016000206040518061014001604052908160008201805462000ab890620017fb565b80601f016020809104026020016040519081016040528092919081815260200182805462000ae690620017fb565b801562000b375780601f1062000b0b5761010080835404028352916020019162000b37565b820191906000526020600020905b81548152906001019060200180831162000b1957829003601f168201915b50505091835250506001820154601b81900b602083015260ff600160e01b90910481161515604083015260028301546001600160a01b03908116606084015260038401546080840152600484015460a080850191909152600585015460c08501526006850154928316151560e08501526101009283900490911691830191909152600790920154610120909101528101519091501562000c1a5760405162461bcd60e51b815260206004820152601a60248201527f50726564696374696f6e20616c7265616479206578697374732e0000000000006044820152606401620009ad565b6040516323b872dd60e01b81526001600160a01b0384811660048301523060248301526302faf08060448301526000917f0000000000000000000000000000000000000000000000000000000000000000909116906323b872dd906064016020604051808303816000875af115801562000c98573d6000803e3d6000fd5b505050506040513d601f19601f8201168201806040525081019062000cbe919062001879565b90508062000cdf5760405163ca234f3960e01b815260040160405180910390fd5b60008360025489897f0000000000000000000000000000000000000000000000000000000000000000600760009054906101000a90046001600160a01b031660405162000d2c90620013b2565b9586526020860194909452604085019290925260608401526001600160a01b0390811660808401521660a082015260c001604051809103906000f08015801562000d7a573d6000803e3d6000fd5b509050600060405180610140016040528062000d968f6200082b565b81526020018b601b0b81526020018c151581526020018d6001600160a01b0316815260200160025481526020014281526020018a8152602001600115158152602001836001600160a01b031681526020018981525090508060036000878152602001908152602001600020600082015181600001908162000e189190620018ec565b5060208201518160010160006101000a8154816001600160e01b030219169083601b0b6001600160e01b03160217905550604082015181600101601c6101000a81548160ff02191690831515021790555060608201518160020160006101000a8154816001600160a01b0302191690836001600160a01b031602179055506080820151816003015560a0820151816004015560c0820151816005015560e08201518160060160006101000a81548160ff0219169083151502179055506101008201518160060160016101000a8154816001600160a01b0302191690836001600160a01b0316021790555061012082015181600701559050508b6004600087815260200190815260200160002060006101000a8154816001600160a01b0302191690836001600160a01b0316021790555062000f57600180546001019055565b604080516001600160a01b0388811682524260208301528b929085169188917f7bed24594bc69eabc466d2e497d2f8ec45df38dea10026d0c4e0b31cb0a9b9c6910160405180910390a450929b9a5050505050505050505050565b833360008281526003602052604090206006015461010090046001600160a01b0316806200101c5760405162461bcd60e51b8152602060048201526016602482015275496e76616c69642050726564696374696f6e2049642160501b6044820152606401620009ad565b816001600160a01b0316816001600160a01b031614620010895760405162461bcd60e51b815260206004820152602160248201527f43616c6c6572206973206e6f7420746865206d61726b65742068616e646c65726044820152601760f91b6064820152608401620009ad565b60008781526003602090815260409182902060060154825188815291820187905261010090046001600160a01b03908116929089169183918b917faa4efaf794e3033902d020af57e79b057692c8db2827c81e7bebe89009630212910160405180910390a45050505050505050565b6200110262001306565b6001600160a01b038116620011695760405162461bcd60e51b815260206004820152602660248201527f4f776e61626c653a206e6577206f776e657220697320746865207a65726f206160448201526564647265737360d01b6064820152608401620009ad565b620011748162001362565b50565b6040805161014081018252606080825260006020830181905292820183905281018290526080810182905260a0810182905260c0810182905260e0810182905261010081018290526101208101919091526000828152600360205260409081902081516101408101909252805482908290620011f390620017fb565b80601f01602080910402602001604051908101604052809291908181526020018280546200122190620017fb565b8015620012725780601f10620012465761010080835404028352916020019162001272565b820191906000526020600020905b8154815290600101906020018083116200125457829003601f168201915b50505091835250506001820154601b81900b602083015260ff600160e01b90910481161515604083015260028301546001600160a01b03908116606084015260038401546080840152600484015460a0840152600584015460c08401526006840154918216151560e08401526101009182900416908201526007909101546101209091015292915050565b80546001019055565b6000546001600160a01b03163314620007d15760405162461bcd60e51b815260206004820181905260248201527f4f776e61626c653a2063616c6c6572206973206e6f7420746865206f776e65726044820152606401620009ad565b600080546001600160a01b038381166001600160a01b0319831681178455604051919092169283917f8be0079c531659141344cd1fd0a4f28419497f9722a3daafe3b4186f6b6457e09190a35050565b61297180620019ba83390190565b80151581146200117457600080fd5b80356001600160a01b0381168114620013e757600080fd5b919050565b6000806000606084860312156200140257600080fd5b8335925060208401356200141681620013c0565b91506200142660408501620013cf565b90509250925092565b6000602082840312156200144257600080fd5b5035919050565b634e487b7160e01b600052604160045260246000fd5b600080604083850312156200147357600080fd5b823567ffffffffffffffff808211156200148c57600080fd5b818501915085601f830112620014a157600080fd5b8135602082821115620014b857620014b862001449565b8160051b604051601f19603f83011681018181108682111715620014e057620014e062001449565b604052928352818301935084810182019289841115620014ff57600080fd5b948201945b838610156200151f5785358552948201949382019362001504565b9997909101359750505050505050565b6000815180845260005b81811015620015575760208185018101518683018201520162001539565b506000602082860101526020601f19601f83011685010191505092915050565b600061014082518185526200158f828601826200152f565b9150506020830151620015a76020860182601b0b9052565b506040830151620015bc604086018215159052565b506060830151620015d860608601826001600160a01b03169052565b506080830151608085015260a083015160a085015260c083015160c085015260e08301516200160b60e086018215159052565b50610100838101516001600160a01b0316908501526101209283015192909301919091525090565b6000602080830181845280855180835260408601915060408160051b870101925083870160005b828110156200168c57603f198886030184526200167985835162001577565b945092850192908501906001016200165a565b5092979650505050505050565b6020808252825182820181905260009190848201906040850190845b81811015620016dc5783516001600160a01b031683529284019291840191600101620016b5565b50909695505050505050565b600060208284031215620016fb57600080fd5b6200170682620013cf565b9392505050565b6020815260006200170660208301846200152f565b60008060008060008060c087890312156200173c57600080fd5b863595506200174e60208801620013cf565b945060408701356200176081620013c0565b93506060870135601b81900b81146200177857600080fd5b9598949750929560808101359460a0909101359350915050565b60008060008060808587031215620017a957600080fd5b84359350620017bb60208601620013cf565b93969395505050506040820135916060013590565b60208152600062001706602083018462001577565b634e487b7160e01b600052603260045260246000fd5b600181811c908216806200181057607f821691505b6020821081036200183157634e487b7160e01b600052602260045260246000fd5b50919050565b6000600182016200185857634e487b7160e01b600052601160045260246000fd5b5060010190565b6000602082840312156200187257600080fd5b5051919050565b6000602082840312156200188c57600080fd5b81516200170681620013c0565b601f821115620018e757600081815260208120601f850160051c81016020861015620018c25750805b601f850160051c820191505b81811015620018e357828155600101620018ce565b5050505b505050565b815167ffffffffffffffff81111562001909576200190962001449565b62001921816200191a8454620017fb565b8462001899565b602080601f831160018114620019595760008415620019405750858301515b600019600386901b1c1916600185901b178555620018e3565b600085815260208120601f198616915b828110156200198a5788860151825594840194600190910190840162001969565b5085821015620019a95787850151600019600388901b60f8161c191681555b5050505050600190811b0190555056fe6101406040523480156200001257600080fd5b5060405162002971380380620029718339810160408190526200003591620002de565b620000403362000268565b600680546001600160a01b031916331790556080869052620000658361271062000351565b60a05260c0849052600580546001600160a01b03808416620100000262010000600160b01b03199092169190911790915582166101208190526040805163313ce56760e01b8152905184929163313ce5679160048083019260209291908290030181865afa158015620000dc573d6000803e3d6000fd5b505050506040513d601f19601f8201168201806040525081019062000102919062000371565b6200010f90600a62000488565b60e08181525050612710816001600160a01b031663313ce5676040518163ffffffff1660e01b8152600401602060405180830381865afa15801562000158573d6000803e3d6000fd5b505050506040513d601f19601f820116820180604052508101906200017e919062000371565b6200018b90600a62000488565b62000197908862000351565b620001a391906200049d565b6101008181525050620001c26007620002b860201b6200209a1760201c565b600c80546001810182556000919091527fdf6966c971051c3d54ec59162606531493a51404a002842f56009d7e5cf4a8c70180546001600160a01b03191690556200021a600b620002b8602090811b6200209a17901c565b5050600880546001810182556000919091527ff3f7a9fe364faab93b216da50a3214154f22a0a2b415b23a84c8169e8b636ee30180546001600160a01b031916905550620004c09350505050565b600080546001600160a01b038381166001600160a01b0319831681178455604051919092169283917f8be0079c531659141344cd1fd0a4f28419497f9722a3daafe3b4186f6b6457e09190a35050565b80546001019055565b80516001600160a01b0381168114620002d957600080fd5b919050565b60008060008060008060c08789031215620002f857600080fd5b865195506020870151945060408701519350606087015192506200031f60808801620002c1565b91506200032f60a08801620002c1565b90509295509295509295565b634e487b7160e01b600052601160045260246000fd5b80820281158282048414176200036b576200036b6200033b565b92915050565b6000602082840312156200038457600080fd5b5051919050565b600181815b80851115620003cc578160001904821115620003b057620003b06200033b565b80851615620003be57918102915b93841c939080029062000390565b509250929050565b600082620003e5575060016200036b565b81620003f4575060006200036b565b81600181146200040d5760028114620004185762000438565b60019150506200036b565b60ff8411156200042c576200042c6200033b565b50506001821b6200036b565b5060208310610133831016604e8410600b84101617156200045d575081810a6200036b565b6200046983836200038b565b80600019048211156200048057620004806200033b565b029392505050565b6000620004968383620003d4565b9392505050565b600082620004bb57634e487b7160e01b600052601260045260246000fd5b500490565b60805160a05160c05160e051610100516101205161234962000628600039600081816104f4015281816107bc01528181610a9901528181610c5c01528181610db70152818161100f015281816110d4015281816111a0015281816114c30152818161158801528181611654015281816119b701528181611b120152611e4301526000818161039601526120650152600081816101f30152818161066401528181610bae01528181610faf015281816114630152818161190901528181611ced01526120410152600081816104c0015281816105780152818161062101528181610b6b01528181610f5e01528181611412015281816118c60152611caa0152600081816102870152818161068801528181610bd201528181610fd3015281816114870152818161192d0152611d110152600081816102d00152818161086b01528181610e83015281816113510152818161180501528181611bde0152611ef001526123496000f3fe60806040526004361061016f5760003560e01c8063b5d53709116100c6578063dfbf53ae11610077578063dfbf53ae14610459578063e1a51dff14610478578063e8b2d47f146104ae578063edd347cd146104e2578063efdf3c1714610516578063f2fde38b14610536578063fcee45f41461055657005b8063b5d5370914610384578063b6e35797146103b8578063b8fe4cfb146103cd578063c1ff549b146103e3578063c87b502e14610403578063ca015b6214610419578063db29cd3d1461043957005b806370bb45b31161012057806370bb45b3146102a957806370daf9a3146102be578063715018a6146102f257806377ed4657146103075780638da5cb5b1461031c5780638fb182aa1461034e5780639473223e1461036457005b806310d9350214610178578063181a2ea114610198578063501ff174146101e157806353aaf54c14610215578063578a68061461022b578063690aa8951461024b57806369d5bf6b1461027557005b3661017657005b005b34801561018457600080fd5b5061017661019336600461215b565b610576565b3480156101a457600080fd5b506101ce6101b336600461217f565b6001600160a01b03166000908152600e602052604090205490565b6040519081526020015b60405180910390f35b3480156101ed57600080fd5b506101ce7f000000000000000000000000000000000000000000000000000000000000000081565b34801561022157600080fd5b506101ce60045481565b34801561023757600080fd5b506101766102463660046121a8565b61061f565b34801561025757600080fd5b506005546102659060ff1681565b60405190151581526020016101d8565b34801561028157600080fd5b506101ce7f000000000000000000000000000000000000000000000000000000000000000081565b3480156102b557600080fd5b50610176610948565b3480156102ca57600080fd5b506101ce7f000000000000000000000000000000000000000000000000000000000000000081565b3480156102fe57600080fd5b50610176610b55565b34801561031357600080fd5b506003546101ce565b34801561032857600080fd5b506000546001600160a01b03165b6040516001600160a01b0390911681526020016101d8565b34801561035a57600080fd5b506101ce60035481565b34801561037057600080fd5b5061017661037f3660046121a8565b610b69565b34801561039057600080fd5b506101ce7f000000000000000000000000000000000000000000000000000000000000000081565b3480156103c457600080fd5b506004546101ce565b3480156103d957600080fd5b506101ce60025481565b3480156103ef57600080fd5b506101766103fe3660046121a8565b610f5c565b34801561040f57600080fd5b506101ce60015481565b34801561042557600080fd5b506101766104343660046121a8565b611410565b34801561044557600080fd5b506101766104543660046121a8565b6118c4565b34801561046557600080fd5b5060055461026590610100900460ff1681565b34801561048457600080fd5b506101ce61049336600461217f565b6001600160a01b03166000908152600a602052604090205490565b3480156104ba57600080fd5b506101ce7f000000000000000000000000000000000000000000000000000000000000000081565b3480156104ee57600080fd5b506103367f000000000000000000000000000000000000000000000000000000000000000081565b34801561052257600080fd5b506101766105313660046121a8565b611ca8565b34801561054257600080fd5b5061017661055136600461217f565b611fbf565b34801561056257600080fd5b506101ce6105713660046121a8565b61203d565b7f000000000000000000000000000000000000000000000000000000000000000042116105b657604051632ff820bf60e21b815260040160405180910390fd5b6105be6120a3565b600580548215156101000261ff00199091161790556040517f029f9bb82bcc34b8fb93e2f45e19e0db433f6acd8b15ca883f0ef2143b58342c9061060790831515815260200190565b60405180910390a1506005805460ff19166001179055565b7f00000000000000000000000000000000000000000000000000000000000000004211156106605760405163700ec25b60e01b815260040160405180910390fd5b60007f00000000000000000000000000000000000000000000000000000000000000006106ad7f0000000000000000000000000000000000000000000000000000000000000000846121d7565b6106b791906121ee565b905060006106c48261203d565b905060006106d18461203d565b336000908152600e6020526040902054909150841115610703576040516296118960e51b815260040160405180910390fd5b336000908152600e602052604081208054869290610722908490612210565b92505081905550826004600082825461073b9190612210565b9091555061074b90508185612210565b336000908152600a60205260408120805490919061076a908490612223565b9091555061077a90508284612210565b6003600082825461078b9190612223565b909155506000905061079d8286612210565b60055460405163a9059cbb60e01b815291925086916001600160a01b037f000000000000000000000000000000000000000000000000000000000000000081169263a9059cbb926107fd9262010000909204909116908890600401612236565b6020604051808303816000875af115801561081c573d6000803e3d6000fd5b505050506040513d601f19601f82011682018060405250810190610840919061224f565b5083600260008282546108539190612223565b90915550506006546001600160a01b031663dcb6b26a7f000000000000000000000000000000000000000000000000000000000000000033856108988660001961226c565b6040518563ffffffff1660e01b81526004016108b7949392919061229c565b600060405180830381600087803b1580156108d157600080fd5b505af11580156108e5573d6000803e3d6000fd5b505050506108f03390565b6001600160a01b03167fa19c60f7787bc349d4b0903c435f5372c0ec8bd2ac9878a60fbe838caee31666836109278460001961226c565b604080519283526020830191909152015b60405180910390a2505050505050565b60055460ff1661096b57604051632ceb370f60e01b815260040160405180910390fd5b336000908152600f602052604090205460ff161561099c57604051634b87cbe160e11b815260040160405180910390fd5b60018054600554909160009182918291610100900460ff1615159003610a0c57336000908152600a602052604081205490036109eb576040516302ee147360e21b815260040160405180910390fd5b600354336000908152600a6020526040812080549190559093509150610a58565b336000908152600e60205260408120549003610a3b576040516302ee147360e21b815260040160405180910390fd5b600454336000908152600e60205260408120805491905590935091505b82610a6385846121d7565b610a6d91906121ee565b336000818152600f602052604090819020805460ff191660011790555163a9059cbb60e01b81529192507f00000000000000000000000000000000000000000000000000000000000000006001600160a01b03169163a9059cbb91610ad6918590600401612236565b6020604051808303816000875af1158015610af5573d6000803e3d6000fd5b505050506040513d601f19601f82011682018060405250810190610b19919061224f565b5060405181815233907fe8354b169cd993d5cdfad1036a9a3f1ea7ed77e430bccb279200fd088243f5959060200160405180910390a250505050565b610b5d6120a3565b610b6760006120fd565b565b7f0000000000000000000000000000000000000000000000000000000000000000421115610baa5760405163700ec25b60e01b815260040160405180910390fd5b60007f0000000000000000000000000000000000000000000000000000000000000000610bf77f0000000000000000000000000000000000000000000000000000000000000000846121d7565b610c0191906121ee565b336000908152600a6020526040902054909150821115610c34576040516327905ab760e21b815260040160405180910390fd5b6000610c3f8261203d565b60055460405163a9059cbb60e01b81529192506001600160a01b037f000000000000000000000000000000000000000000000000000000000000000081169263a9059cbb92610c9b926201000090910416908590600401612236565b6020604051808303816000875af1158015610cba573d6000803e3d6000fd5b505050506040513d601f19601f82011682018060405250810190610cde919061224f565b508060026000828254610cf19190612223565b9091555060009050610d038284612210565b336000908152600a6020526040812080549293508692909190610d27908490612210565b9091555050336000908152600a60205260408120549003610da557336000908152600960205260408120546008805491929183908110610d6957610d696122c0565b600091825260208083209190910180546001600160a01b0319166001600160a01b03949094169390931790925533815260099091526040812055505b60405163a9059cbb60e01b81526000907f00000000000000000000000000000000000000000000000000000000000000006001600160a01b03169063a9059cbb90610df69033908690600401612236565b6020604051808303816000875af1158015610e15573d6000803e3d6000fd5b505050506040513d601f19601f82011682018060405250810190610e39919061224f565b905080610e595760405163c98df4e360e01b815260040160405180910390fd5b8360016000828254610e6b9190612210565b90915550506006546001600160a01b031663dcb6b26a7f000000000000000000000000000000000000000000000000000000000000000033610eaf8960001961226c565b60006040518563ffffffff1660e01b8152600401610ed0949392919061229c565b600060405180830381600087803b158015610eea57600080fd5b505af1158015610efe573d6000803e3d6000fd5b50505050610f093390565b6001600160a01b03167fcbc0df49dd88ec0ba5b87a3c77ed66af6480b175df0f21649805ed6201c56145866000604051610f4d929190918252602082015260400190565b60405180910390a25050505050565b7f0000000000000000000000000000000000000000000000000000000000000000421115610f9d5760405163700ec25b60e01b815260040160405180910390fd5b6001811015610fab57600080fd5b60007f0000000000000000000000000000000000000000000000000000000000000000610ff87f0000000000000000000000000000000000000000000000000000000000000000846121d7565b61100291906121ee565b9050806001600160a01b037f00000000000000000000000000000000000000000000000000000000000000001663dd62ed3e336040516001600160e01b031960e084901b1681526001600160a01b039091166004820152306024820152604401602060405180830381865afa15801561107f573d6000803e3d6000fd5b505050506040513d601f19601f820116820180604052508101906110a391906122d6565b10156110c25760405163ca234f3960e01b815260040160405180910390fd5b6040516323b872dd60e01b81526000907f00000000000000000000000000000000000000000000000000000000000000006001600160a01b0316906323b872dd90611115903390309087906004016122ef565b6020604051808303816000875af1158015611134573d6000803e3d6000fd5b505050506040513d601f19601f82011682018060405250810190611158919061224f565b9050806111785760405163c98df4e360e01b815260040160405180910390fd5b60006111838361203d565b60055460405163a9059cbb60e01b81529192506001600160a01b037f000000000000000000000000000000000000000000000000000000000000000081169263a9059cbb926111df926201000090910416908590600401612236565b6020604051808303816000875af11580156111fe573d6000803e3d6000fd5b505050506040513d601f19601f82011682018060405250810190611222919061224f565b5080600260008282546112359190612223565b9091555061124590508184612210565b600160008282546112569190612223565b9091555061126690508184612210565b600460008282546112779190612223565b90915550600090506112888561203d565b6112929086612210565b336000908152600e60205260408120805492935083929091906112b6908490612223565b9091555050336000908152600d6020526040812054900361133e5760006112dc600b5490565b336000818152600d6020526040812092909255600c805460018082018355919093527fdf6966c971051c3d54ec59162606531493a51404a002842f56009d7e5cf4a8c790920180546001600160a01b0319169091179055600b80549091019055505b6006546001600160a01b031663dcb6b26a7f0000000000000000000000000000000000000000000000000000000000000000336000856040518563ffffffff1660e01b8152600401611393949392919061229c565b600060405180830381600087803b1580156113ad57600080fd5b505af11580156113c1573d6000803e3d6000fd5b505050506113cc3390565b6001600160a01b03167fc28482fd780ce54c9bfc165ed6ce12f1e7e4e07dc6270292223ac3275818dd0d600083604051610f4d929190918252602082015260400190565b7f00000000000000000000000000000000000000000000000000000000000000004211156114515760405163700ec25b60e01b815260040160405180910390fd5b600181101561145f57600080fd5b60007f00000000000000000000000000000000000000000000000000000000000000006114ac7f0000000000000000000000000000000000000000000000000000000000000000846121d7565b6114b691906121ee565b9050806001600160a01b037f00000000000000000000000000000000000000000000000000000000000000001663dd62ed3e336040516001600160e01b031960e084901b1681526001600160a01b039091166004820152306024820152604401602060405180830381865afa158015611533573d6000803e3d6000fd5b505050506040513d601f19601f8201168201806040525081019061155791906122d6565b10156115765760405163ca234f3960e01b815260040160405180910390fd5b6040516323b872dd60e01b81526000907f00000000000000000000000000000000000000000000000000000000000000006001600160a01b0316906323b872dd906115c9903390309087906004016122ef565b6020604051808303816000875af11580156115e8573d6000803e3d6000fd5b505050506040513d601f19601f8201168201806040525081019061160c919061224f565b90508061162c5760405163c98df4e360e01b815260040160405180910390fd5b60006116378361203d565b60055460405163a9059cbb60e01b81529192506001600160a01b037f000000000000000000000000000000000000000000000000000000000000000081169263a9059cbb92611693926201000090910416908590600401612236565b6020604051808303816000875af11580156116b2573d6000803e3d6000fd5b505050506040513d601f19601f820116820180604052508101906116d6919061224f565b5080600260008282546116e99190612223565b909155506116f990508184612210565b6001600082825461170a9190612223565b9091555061171a90508184612210565b6003600082825461172b9190612223565b909155506000905061173c8561203d565b6117469086612210565b336000908152600a602052604081208054929350839290919061176a908490612223565b90915550503360009081526009602052604081205490036117f257600061179060075490565b336000818152600960205260408120929092556008805460018082018355919093527ff3f7a9fe364faab93b216da50a3214154f22a0a2b415b23a84c8169e8b636ee390920180546001600160a01b0319169091179055600780549091019055505b6006546001600160a01b031663dcb6b26a7f0000000000000000000000000000000000000000000000000000000000000000338460006040518563ffffffff1660e01b8152600401611847949392919061229c565b600060405180830381600087803b15801561186157600080fd5b505af1158015611875573d6000803e3d6000fd5b505050506118803390565b6001600160a01b03167fc28482fd780ce54c9bfc165ed6ce12f1e7e4e07dc6270292223ac3275818dd0d826000604051610f4d929190918252602082015260400190565b7f00000000000000000000000000000000000000000000000000000000000000004211156119055760405163700ec25b60e01b815260040160405180910390fd5b60007f00000000000000000000000000000000000000000000000000000000000000006119527f0000000000000000000000000000000000000000000000000000000000000000846121d7565b61195c91906121ee565b336000908152600e602052604090205490915082111561198f576040516327905ab760e21b815260040160405180910390fd5b600061199a8261203d565b60055460405163a9059cbb60e01b81529192506001600160a01b037f000000000000000000000000000000000000000000000000000000000000000081169263a9059cbb926119f6926201000090910416908590600401612236565b6020604051808303816000875af1158015611a15573d6000803e3d6000fd5b505050506040513d601f19601f82011682018060405250810190611a39919061224f565b508060026000828254611a4c9190612223565b9091555060009050611a5e8284612210565b336000908152600e6020526040812080549293508692909190611a82908490612210565b9091555050336000908152600e60205260408120549003611b0057336000908152600d6020526040812054600c805491929183908110611ac457611ac46122c0565b600091825260208083209190910180546001600160a01b0319166001600160a01b039490941693909317909255338152600d9091526040812055505b60405163a9059cbb60e01b81526000907f00000000000000000000000000000000000000000000000000000000000000006001600160a01b03169063a9059cbb90611b519033908690600401612236565b6020604051808303816000875af1158015611b70573d6000803e3d6000fd5b505050506040513d601f19601f82011682018060405250810190611b94919061224f565b905080611bb45760405163c98df4e360e01b815260040160405180910390fd5b8360016000828254611bc69190612210565b90915550506006546001600160a01b031663dcb6b26a7f0000000000000000000000000000000000000000000000000000000000000000336000611c0c8a60001961226c565b6040518563ffffffff1660e01b8152600401611c2b949392919061229c565b600060405180830381600087803b158015611c4557600080fd5b505af1158015611c59573d6000803e3d6000fd5b50505050611c643390565b6001600160a01b03167fcbc0df49dd88ec0ba5b87a3c77ed66af6480b175df0f21649805ed6201c56145600087604051610f4d929190918252602082015260400190565b7f0000000000000000000000000000000000000000000000000000000000000000421115611ce95760405163700ec25b60e01b815260040160405180910390fd5b60007f0000000000000000000000000000000000000000000000000000000000000000611d367f0000000000000000000000000000000000000000000000000000000000000000846121d7565b611d4091906121ee565b90506000611d4d8261203d565b90506000611d5a8461203d565b336000908152600a6020526040902054909150841115611d8c576040516296118960e51b815260040160405180910390fd5b611d968185612210565b336000908152600e602052604081208054909190611db5908490612223565b90915550611dc590508284612210565b60046000828254611dd69190612223565b9091555050336000908152600a602052604081208054869290611dfa908490612210565b925050819055508260036000828254611e139190612210565b909155508490506000611e268383612210565b60055460405163a9059cbb60e01b81529192506001600160a01b037f000000000000000000000000000000000000000000000000000000000000000081169263a9059cbb92611e82926201000090910416908890600401612236565b6020604051808303816000875af1158015611ea1573d6000803e3d6000fd5b505050506040513d601f19601f82011682018060405250810190611ec5919061224f565b508360026000828254611ed89190612223565b90915550506006546001600160a01b031663dcb6b26a7f000000000000000000000000000000000000000000000000000000000000000033611f1c8660001961226c565b856040518563ffffffff1660e01b8152600401611f3c949392919061229c565b600060405180830381600087803b158015611f5657600080fd5b505af1158015611f6a573d6000803e3d6000fd5b50505050611f753390565b6001600160a01b03167fa19c60f7787bc349d4b0903c435f5372c0ec8bd2ac9878a60fbe838caee31666611fab8460001961226c565b604080519182526020820185905201610938565b611fc76120a3565b6001600160a01b0381166120315760405162461bcd60e51b815260206004820152602660248201527f4f776e61626c653a206e6577206f776e657220697320746865207a65726f206160448201526564647265737360d01b60648201526084015b60405180910390fd5b61203a816120fd565b50565b60007f000000000000000000000000000000000000000000000000000000000000000061208a7f0000000000000000000000000000000000000000000000000000000000000000846121d7565b61209491906121ee565b92915050565b80546001019055565b6000546001600160a01b03163314610b675760405162461bcd60e51b815260206004820181905260248201527f4f776e61626c653a2063616c6c6572206973206e6f7420746865206f776e65726044820152606401612028565b600080546001600160a01b038381166001600160a01b0319831681178455604051919092169283917f8be0079c531659141344cd1fd0a4f28419497f9722a3daafe3b4186f6b6457e09190a35050565b801515811461203a57600080fd5b60006020828403121561216d57600080fd5b81356121788161214d565b9392505050565b60006020828403121561219157600080fd5b81356001600160a01b038116811461217857600080fd5b6000602082840312156121ba57600080fd5b5035919050565b634e487b7160e01b600052601160045260246000fd5b8082028115828204841417612094576120946121c1565b60008261220b57634e487b7160e01b600052601260045260246000fd5b500490565b81810381811115612094576120946121c1565b80820180821115612094576120946121c1565b6001600160a01b03929092168252602082015260400190565b60006020828403121561226157600080fd5b81516121788161214d565b80820260008212600160ff1b84141615612288576122886121c1565b8181058314821517612094576120946121c1565b9384526001600160a01b039290921660208401526040830152606082015260800190565b634e487b7160e01b600052603260045260246000fd5b6000602082840312156122e857600080fd5b5051919050565b6001600160a01b03938416815291909216602082015260408101919091526060019056fea2646970667358221220fd414fcb36e177ca580cf3ee62ff9c30adaf26a62735978677fb42e9c3aab29f64736f6c63430008120033a26469706673582212203f1332aaf45a9e4f743fc48aff667e94434a63e7254d58943429d26b69f30c4664736f6c63430008120033",
  "devdoc": {
    "events": {
      "ConcludeFatalError(uint256,uint256,bool,int224,int224)": {
        "params": {
          "isAbove": "The target orice was supposed to be above a set limit.",
          "predictionId": "The unique identifier of the prediction.",
          "priceReading": "The current price reading provided by a dAPI.",
          "priceTarget": "The target point that was the base for a prediction.",
          "timestamp": "The timestamp when conclude failed."
        }
      },
      "PredictionCreated(uint256,address,address,uint256,uint256)": {
        "params": {
          "creator": "The creator responsible for creating the prediction.",
          "marketHandler": "The address of the MarketHandler that enables the prediction to be traded upon.",
          "predictionId": "The unique identifier of the prediction.",
          "timestamp": "The timestamp when the prediction was created to be traded upon."
        }
      }
    },
    "kind": "dev",
    "methods": {
      "concludePrediction_2(uint256,bool,address)": {
        "params": {
          "_predictionId": "The unique identifier for each prediction created.",
          "_vote": "The final result of the prediction. vote - True : The target price was predicted to be BELOW/ABOVE a threshold AND IS BELOW/ABOVE the threshold respectively. vote - False : The target price was predicted to be BELOW/ABOVE a threshold BUT IS ABOVE/BELOW the threshold respectively."
        }
      },
      "constructor": {
        "params": {
          "_usdc": "The payment token addresTRADING_FEEs."
        }
      },
      "createPrediction(bytes32,address,bool,int224,uint256,uint256)": {
        "params": {
          "_basePrice": "The minimum cost of one 'Yes' or 'No' token for the prediction market to be created. Is a multiple of 0.01 USD or 1 cent.",
          "_deadline": "The timestamp when the target and current price are to be checked against.",
          "_isAbove": "True if for a prediction the price will go above a set limit and false if otherwise.",
          "_tokenSymbol": "The symbol to represent the asset we are prediction upon. Eg : BTC / ETH / XRP etc."
        }
      },
      "owner()": {
        "details": "Returns the address of the current owner."
      },
      "renounceOwnership()": {
        "details": "Leaves the contract without owner. It will not be possible to call `onlyOwner` functions anymore. Can only be called by the current owner. NOTE: Renouncing ownership will leave the contract without an owner, thereby removing any functionality that is only available to the owner."
      },
      "trackProgress(uint256,address,int256,int256)": {
        "details": "Is important since its harder to track each market handler on 'The Graph' separately."
      },
      "transferOwnership(address)": {
        "details": "Transfers ownership of the contract to a new account (`newOwner`). Can only be called by the current owner."
      }
    },
    "version": 1
  },
  "userdoc": {
    "events": {
      "ConcludeFatalError(uint256,uint256,bool,int224,int224)": {
        "notice": "To track if for some reason a certain prediction was not able to be concluded."
      },
      "PredictionCreated(uint256,address,address,uint256,uint256)": {
        "notice": "Event to declare a prediction market is available to be traded."
      }
    },
    "kind": "user",
    "methods": {
      "PLATFORM_FEE()": {
        "notice": "To avoid DDOS by adding some cost to the creation. Can't be changed once defined."
      },
      "TRADING_FEE()": {
        "notice": "0.01% * 50 = 0.5%."
      },
      "concludePrediction_2(uint256,bool,address)": {
        "notice": "Called by the Settlement contract which concludes the prediction and returns the vote i.e if the prediction was in the favour of 'Yes' or 'No'."
      },
      "createPrediction(bytes32,address,bool,int224,uint256,uint256)": {
        "notice": "Called by the owner on behalf of the _caller and create a market for them.Step necessary to make sure all the parameters are vaild and are true with no manipulation."
      },
      "getNextPredictionId()": {
        "notice": "Getter functions ------"
      },
      "setSettlementAddress(address)": {
        "notice": "Setter functions ------"
      },
      "settlementAddress()": {
        "notice": "The address that starts the chain of concluding a prediction."
      },
      "trackProgress(uint256,address,int256,int256)": {
        "notice": "SPECIAL FUNCTION ====================================================Function provided to act as an aggregator and help track all the things that are happening on all of its child market handlers."
      },
      "vaultAddress()": {
        "notice": "The address responsible for storing the funds collected."
      }
    },
    "notice": "The centre point of Settlement and each new Market Handler",
    "version": 1
  },
  "storageLayout": {
    "storage": [
      {
        "astId": 26,
        "contract": "contracts/common/PredictionMarket.sol:PredictionMarket",
        "label": "_owner",
        "offset": 0,
        "slot": "0",
        "type": "t_address"
      },
      {
        "astId": 1001,
        "contract": "contracts/common/PredictionMarket.sol:PredictionMarket",
        "label": "nextPredictionId",
        "offset": 0,
        "slot": "1",
        "type": "t_struct(Counter)849_storage"
      },
      {
        "astId": 1013,
        "contract": "contracts/common/PredictionMarket.sol:PredictionMarket",
        "label": "TRADING_FEE",
        "offset": 0,
        "slot": "2",
        "type": "t_uint256"
      },
      {
        "astId": 1019,
        "contract": "contracts/common/PredictionMarket.sol:PredictionMarket",
        "label": "predictions",
        "offset": 0,
        "slot": "3",
        "type": "t_mapping(t_uint256,t_struct(Prediction)986_storage)"
      },
      {
        "astId": 1024,
        "contract": "contracts/common/PredictionMarket.sol:PredictionMarket",
        "label": "predictionIdToProxy",
        "offset": 0,
        "slot": "4",
        "type": "t_mapping(t_uint256,t_address)"
      },
      {
        "astId": 1029,
        "contract": "contracts/common/PredictionMarket.sol:PredictionMarket",
        "label": "blacklisted",
        "offset": 0,
        "slot": "5",
        "type": "t_mapping(t_address,t_bool)"
      },
      {
        "astId": 1080,
        "contract": "contracts/common/PredictionMarket.sol:PredictionMarket",
        "label": "settlementAddress",
        "offset": 0,
        "slot": "6",
        "type": "t_address"
      },
      {
        "astId": 1083,
        "contract": "contracts/common/PredictionMarket.sol:PredictionMarket",
        "label": "vaultAddress",
        "offset": 0,
        "slot": "7",
        "type": "t_address"
      }
    ],
    "types": {
      "t_address": {
        "encoding": "inplace",
        "label": "address",
        "numberOfBytes": "20"
      },
      "t_bool": {
        "encoding": "inplace",
        "label": "bool",
        "numberOfBytes": "1"
      },
      "t_int224": {
        "encoding": "inplace",
        "label": "int224",
        "numberOfBytes": "28"
      },
      "t_mapping(t_address,t_bool)": {
        "encoding": "mapping",
        "key": "t_address",
        "label": "mapping(address => bool)",
        "numberOfBytes": "32",
        "value": "t_bool"
      },
      "t_mapping(t_uint256,t_address)": {
        "encoding": "mapping",
        "key": "t_uint256",
        "label": "mapping(uint256 => address)",
        "numberOfBytes": "32",
        "value": "t_address"
      },
      "t_mapping(t_uint256,t_struct(Prediction)986_storage)": {
        "encoding": "mapping",
        "key": "t_uint256",
        "label": "mapping(uint256 => struct Prediction)",
        "numberOfBytes": "32",
        "value": "t_struct(Prediction)986_storage"
      },
      "t_string_storage": {
        "encoding": "bytes",
        "label": "string",
        "numberOfBytes": "32"
      },
      "t_struct(Counter)849_storage": {
        "encoding": "inplace",
        "label": "struct Counters.Counter",
        "members": [
          {
            "astId": 848,
            "contract": "contracts/common/PredictionMarket.sol:PredictionMarket",
            "label": "_value",
            "offset": 0,
            "slot": "0",
            "type": "t_uint256"
          }
        ],
        "numberOfBytes": "32"
      },
      "t_struct(Prediction)986_storage": {
        "encoding": "inplace",
        "label": "struct Prediction",
        "members": [
          {
            "astId": 967,
            "contract": "contracts/common/PredictionMarket.sol:PredictionMarket",
            "label": "tokenSymbol",
            "offset": 0,
            "slot": "0",
            "type": "t_string_storage"
          },
          {
            "astId": 969,
            "contract": "contracts/common/PredictionMarket.sol:PredictionMarket",
            "label": "targetPricePoint",
            "offset": 0,
            "slot": "1",
            "type": "t_int224"
          },
          {
            "astId": 971,
            "contract": "contracts/common/PredictionMarket.sol:PredictionMarket",
            "label": "isAbove",
            "offset": 28,
            "slot": "1",
            "type": "t_bool"
          },
          {
            "astId": 973,
            "contract": "contracts/common/PredictionMarket.sol:PredictionMarket",
            "label": "proxyAddress",
            "offset": 0,
            "slot": "2",
            "type": "t_address"
          },
          {
            "astId": 975,
            "contract": "contracts/common/PredictionMarket.sol:PredictionMarket",
            "label": "fee",
            "offset": 0,
            "slot": "3",
            "type": "t_uint256"
          },
          {
            "astId": 977,
            "contract": "contracts/common/PredictionMarket.sol:PredictionMarket",
            "label": "timestamp",
            "offset": 0,
            "slot": "4",
            "type": "t_uint256"
          },
          {
            "astId": 979,
            "contract": "contracts/common/PredictionMarket.sol:PredictionMarket",
            "label": "deadline",
            "offset": 0,
            "slot": "5",
            "type": "t_uint256"
          },
          {
            "astId": 981,
            "contract": "contracts/common/PredictionMarket.sol:PredictionMarket",
            "label": "isActive",
            "offset": 0,
            "slot": "6",
            "type": "t_bool"
          },
          {
            "astId": 983,
            "contract": "contracts/common/PredictionMarket.sol:PredictionMarket",
            "label": "marketHandler",
            "offset": 1,
            "slot": "6",
            "type": "t_address"
          },
          {
            "astId": 985,
            "contract": "contracts/common/PredictionMarket.sol:PredictionMarket",
            "label": "predictionTokenPrice",
            "offset": 0,
            "slot": "7",
            "type": "t_uint256"
          }
        ],
        "numberOfBytes": "256"
      },
      "t_uint256": {
        "encoding": "inplace",
        "label": "uint256",
        "numberOfBytes": "32"
      }
    }
  }
}