{
  "address": "0xAd4C14DBb3A17d7f5495177a2861645d2165B2d2",
  "abi": [
    {
      "inputs": [
        {
          "internalType": "address",
          "name": "_trading",
          "type": "address"
        }
      ],
      "stateMutability": "nonpayable",
      "type": "constructor"
    },
    {
      "anonymous": false,
      "inputs": [
        {
          "indexed": true,
          "internalType": "address",
          "name": "previousOwner",
          "type": "address"
        },
        {
          "indexed": true,
          "internalType": "address",
          "name": "newOwner",
          "type": "address"
        }
      ],
      "name": "OwnershipTransferred",
      "type": "event"
    },
    {
      "inputs": [
        {
          "internalType": "uint256",
          "name": "_predictionId",
          "type": "uint256"
        }
      ],
      "name": "concludePrediction_1",
      "outputs": [],
      "stateMutability": "nonpayable",
      "type": "function"
    },
    {
      "inputs": [],
      "name": "owner",
      "outputs": [
        {
          "internalType": "address",
          "name": "",
          "type": "address"
        }
      ],
      "stateMutability": "view",
      "type": "function"
    },
    {
      "inputs": [],
      "name": "renounceOwnership",
      "outputs": [],
      "stateMutability": "nonpayable",
      "type": "function"
    },
    {
      "inputs": [],
      "name": "tradingContract",
      "outputs": [
        {
          "internalType": "contract ITrading",
          "name": "",
          "type": "address"
        }
      ],
      "stateMutability": "view",
      "type": "function"
    },
    {
      "inputs": [
        {
          "internalType": "address",
          "name": "newOwner",
          "type": "address"
        }
      ],
      "name": "transferOwnership",
      "outputs": [],
      "stateMutability": "nonpayable",
      "type": "function"
    }
  ],
  "transactionHash": "0xba6987d0eecac291d5240ce97734349de4d757ee0fa644aa636d44312c5430e6",
  "args": [
    "0x6d9C9574B896FDC45cc209EeA8a0BcE9f5826EC8"
  ],
  "numDeployments": 10,
  "solcInputHash": "aafd06b46ab80a5b5043715e09b9e12f",
  "bytecode": "0x608060405234801561001057600080fd5b5060405161092038038061092083398101604081905261002f916100ad565b6100383361005d565b600180546001600160a01b0319166001600160a01b03929092169190911790556100dd565b600080546001600160a01b038381166001600160a01b0319831681178455604051919092169283917f8be0079c531659141344cd1fd0a4f28419497f9722a3daafe3b4186f6b6457e09190a35050565b6000602082840312156100bf57600080fd5b81516001600160a01b03811681146100d657600080fd5b9392505050565b610834806100ec6000396000f3fe608060405234801561001057600080fd5b50600436106100675760003560e01c80638da5cb5b116100505780638da5cb5b146100895780639e4bd2e9146100b2578063f2fde38b146100c557600080fd5b80631c5ecf651461006c578063715018a614610081575b600080fd5b61007f61007a366004610545565b6100d8565b005b61007f6103df565b6000546001600160a01b03165b6040516001600160a01b03909116815260200160405180910390f35b600154610096906001600160a01b031681565b61007f6100d3366004610573565b6103f3565b6001546040517ffe83bece000000000000000000000000000000000000000000000000000000008152600481018390526000916001600160a01b03169063fe83bece90602401600060405180830381865afa15801561013b573d6000803e3d6000fd5b505050506040513d6000823e601f3d908101601f1916820160405261016391908101906106d8565b9050600081606001519050600080826001600160a01b03166357de26a46040518163ffffffff1660e01b81526004016040805180830381865afa1580156101ae573d6000803e3d6000fd5b505050506040513d601f19601f820116820180604052508101906101d291906107be565b63ffffffff16915091508360c00151421180156101f257508360c0015181115b6102695760405162461bcd60e51b815260206004820152602760248201527f43616e27742072756e206576616c756174696f6e2120446561646c696e65206e60448201527f6f74206d65742e0000000000000000000000000000000000000000000000000060648201526084015b60405180910390fd5b8360400151156103285781601b0b8460200151601b0b13156102f05760018054604051630f99b97f60e11b81526004810188905260248101929092526001600160a01b031690631f3372fe906044015b600060405180830381600087803b1580156102d357600080fd5b505af11580156102e7573d6000803e3d6000fd5b505050506103d8565b600154604051630f99b97f60e11b815260048101879052600060248201526001600160a01b0390911690631f3372fe906044016102b9565b81601b0b8460200151601b0b12156103725760018054604051630f99b97f60e11b81526004810188905260248101929092526001600160a01b031690631f3372fe906044016102b9565b600154604051630f99b97f60e11b815260048101879052600060248201526001600160a01b0390911690631f3372fe90604401600060405180830381600087803b1580156103bf57600080fd5b505af11580156103d3573d6000803e3d6000fd5b505050505b5050505050565b6103e7610483565b6103f160006104dd565b565b6103fb610483565b6001600160a01b0381166104775760405162461bcd60e51b815260206004820152602660248201527f4f776e61626c653a206e6577206f776e657220697320746865207a65726f206160448201527f64647265737300000000000000000000000000000000000000000000000000006064820152608401610260565b610480816104dd565b50565b6000546001600160a01b031633146103f15760405162461bcd60e51b815260206004820181905260248201527f4f776e61626c653a2063616c6c6572206973206e6f7420746865206f776e65726044820152606401610260565b600080546001600160a01b038381167fffffffffffffffffffffffff0000000000000000000000000000000000000000831681178455604051919092169283917f8be0079c531659141344cd1fd0a4f28419497f9722a3daafe3b4186f6b6457e09190a35050565b60006020828403121561055757600080fd5b5035919050565b6001600160a01b038116811461048057600080fd5b60006020828403121561058557600080fd5b81356105908161055e565b9392505050565b7f4e487b7100000000000000000000000000000000000000000000000000000000600052604160045260246000fd5b604051610120810167ffffffffffffffff811182821017156105ea576105ea610597565b60405290565b604051601f8201601f1916810167ffffffffffffffff8111828210171561061957610619610597565b604052919050565b600082601f83011261063257600080fd5b815167ffffffffffffffff81111561064c5761064c610597565b6020610660601f8301601f191682016105f0565b828152858284870101111561067457600080fd5b60005b83811015610692578581018301518282018401528201610677565b506000928101909101919091529392505050565b8051601b81900b81146106b857600080fd5b919050565b805180151581146106b857600080fd5b80516106b88161055e565b6000602082840312156106ea57600080fd5b815167ffffffffffffffff8082111561070257600080fd5b90830190610120828603121561071757600080fd5b61071f6105c6565b82518281111561072e57600080fd5b61073a87828601610621565b825250610749602084016106a6565b602082015261075a604084016106bd565b604082015261076b606084016106cd565b60608201526080830151608082015260a083015160a082015260c083015160c082015261079a60e084016106bd565b60e082015261010091506107af8284016106cd565b91810191909152949350505050565b600080604083850312156107d157600080fd5b6107da836106a6565b9150602083015163ffffffff811681146107f357600080fd5b80915050925092905056fea2646970667358221220fd337fe0c4faec48d51907ac469b82d846372bacb5f870100aa0d5863304139064736f6c63430008120033",
  "devdoc": {
    "details": "The contract is inherently a data feed reader",
    "kind": "dev",
    "methods": {
      "concludePrediction_1(uint256)": {
        "details": "We can add an incentive to whoever calls it get some % of overall protocol fee for a given prediction. Note that this should come out > gas fee to run the txn in the first place. Or we use CRON job, EAC, Cloud-based scheduler.Personally think that the 1st and 3rd options are good candidates.",
        "params": {
          "_predictionId": "The unique identifier for the prediction to be concluded."
        }
      },
      "constructor": {
        "params": {
          "_trading": "The Trading Contract"
        }
      },
      "owner()": {
        "details": "Returns the address of the current owner."
      },
      "renounceOwnership()": {
        "details": "Leaves the contract without owner. It will not be possible to call `onlyOwner` functions anymore. Can only be called by the current owner. NOTE: Renouncing ownership will leave the contract without an owner, thereby removing any functionality that is only available to the owner."
      },
      "transferOwnership(address)": {
        "details": "Transfers ownership of the contract to a new account (`newOwner`). Can only be called by the current owner."
      }
    },
    "version": 1
  },
  "userdoc": {
    "kind": "user",
    "methods": {
      "tradingContract()": {
        "notice": "The Trading contract that acts as a middle ground for Settlement and MarketHandler"
      }
    },
    "version": 1
  },
  "storageLayout": {
    "storage": [
      {
        "astId": 26,
        "contract": "contracts/common/Settlement.sol:PM_Settlement",
        "label": "_owner",
        "offset": 0,
        "slot": "0",
        "type": "t_address"
      },
      {
        "astId": 273,
        "contract": "contracts/common/Settlement.sol:PM_Settlement",
        "label": "tradingContract",
        "offset": 0,
        "slot": "1",
        "type": "t_contract(ITrading)266"
      }
    ],
    "types": {
      "t_address": {
        "encoding": "inplace",
        "label": "address",
        "numberOfBytes": "20"
      },
      "t_contract(ITrading)266": {
        "encoding": "inplace",
        "label": "contract ITrading",
        "numberOfBytes": "20"
      }
    }
  }
}