{
  "address": "0x5D1D9137Ee156A11097C206028999A924ef590b1",
  "abi": [
    {
      "inputs": [
        {
          "internalType": "address",
          "name": "_usdcAddress",
          "type": "address"
        }
      ],
      "stateMutability": "nonpayable",
      "type": "constructor"
    },
    {
      "anonymous": false,
      "inputs": [
        {
          "indexed": true,
          "internalType": "address",
          "name": "previousOwner",
          "type": "address"
        },
        {
          "indexed": true,
          "internalType": "address",
          "name": "newOwner",
          "type": "address"
        }
      ],
      "name": "OwnershipTransferred",
      "type": "event"
    },
    {
      "inputs": [],
      "name": "I_USDC_CONTRACT",
      "outputs": [
        {
          "internalType": "contract IERC20",
          "name": "",
          "type": "address"
        }
      ],
      "stateMutability": "view",
      "type": "function"
    },
    {
      "inputs": [],
      "name": "currentBalance",
      "outputs": [
        {
          "internalType": "uint256",
          "name": "",
          "type": "uint256"
        }
      ],
      "stateMutability": "view",
      "type": "function"
    },
    {
      "inputs": [],
      "name": "owner",
      "outputs": [
        {
          "internalType": "address",
          "name": "",
          "type": "address"
        }
      ],
      "stateMutability": "view",
      "type": "function"
    },
    {
      "inputs": [],
      "name": "renounceOwnership",
      "outputs": [],
      "stateMutability": "nonpayable",
      "type": "function"
    },
    {
      "inputs": [],
      "name": "sendUSDC",
      "outputs": [],
      "stateMutability": "nonpayable",
      "type": "function"
    },
    {
      "inputs": [
        {
          "internalType": "address",
          "name": "newOwner",
          "type": "address"
        }
      ],
      "name": "transferOwnership",
      "outputs": [],
      "stateMutability": "nonpayable",
      "type": "function"
    }
  ],
  "transactionHash": "0x39de5e48d836c871cae34bd9581f3dc15fe872dc6ccead463694ee99f5e0207f",
  "args": [
    "0x31a0EDA48F467105EF31909465a7403d2e657bCC"
  ],
  "numDeployments": 2,
  "solcInputHash": "931781c410f71d6a72a66438dbd0c2f9",
  "bytecode": "0x60a060405234801561001057600080fd5b506040516105f23803806105f283398101604081905261002f91610099565b61003833610049565b6001600160a01b03166080526100c9565b600080546001600160a01b038381166001600160a01b0319831681178455604051919092169283917f8be0079c531659141344cd1fd0a4f28419497f9722a3daafe3b4186f6b6457e09190a35050565b6000602082840312156100ab57600080fd5b81516001600160a01b03811681146100c257600080fd5b9392505050565b6080516104fa6100f86000396000818160ce0152818161011b01528181610192015261028a01526104fa6000f3fe608060405234801561001057600080fd5b50600436106100725760003560e01c8063ce845d1d11610050578063ce845d1d146100b3578063edd347cd146100c9578063f2fde38b146100f057600080fd5b80631457870a14610077578063715018a6146100815780638da5cb5b14610089575b600080fd5b61007f610103565b005b61007f61025e565b6000546001600160a01b03165b6040516001600160a01b0390911681526020015b60405180910390f35b6100bb610272565b6040519081526020016100aa565b6100967f000000000000000000000000000000000000000000000000000000000000000081565b61007f6100fe366004610459565b610302565b6040516370a0823160e01b81523060048201526000907f00000000000000000000000000000000000000000000000000000000000000006001600160a01b0316906370a0823190602401602060405180830381865afa15801561016a573d6000803e3d6000fd5b505050506040513d601f19601f8201168201806040525081019061018e9190610489565b90507f00000000000000000000000000000000000000000000000000000000000000006001600160a01b031663a9059cbb6101d16000546001600160a01b031690565b6040517fffffffff0000000000000000000000000000000000000000000000000000000060e084901b1681526001600160a01b039091166004820152602481018490526044016020604051808303816000875af1158015610236573d6000803e3d6000fd5b505050506040513d601f19601f8201168201806040525081019061025a91906104a2565b5050565b610266610397565b61027060006103f1565b565b6040516370a0823160e01b81523060048201526000907f00000000000000000000000000000000000000000000000000000000000000006001600160a01b0316906370a0823190602401602060405180830381865afa1580156102d9573d6000803e3d6000fd5b505050506040513d601f19601f820116820180604052508101906102fd9190610489565b905090565b61030a610397565b6001600160a01b03811661038b5760405162461bcd60e51b815260206004820152602660248201527f4f776e61626c653a206e6577206f776e657220697320746865207a65726f206160448201527f646472657373000000000000000000000000000000000000000000000000000060648201526084015b60405180910390fd5b610394816103f1565b50565b6000546001600160a01b031633146102705760405162461bcd60e51b815260206004820181905260248201527f4f776e61626c653a2063616c6c6572206973206e6f7420746865206f776e65726044820152606401610382565b600080546001600160a01b038381167fffffffffffffffffffffffff0000000000000000000000000000000000000000831681178455604051919092169283917f8be0079c531659141344cd1fd0a4f28419497f9722a3daafe3b4186f6b6457e09190a35050565b60006020828403121561046b57600080fd5b81356001600160a01b038116811461048257600080fd5b9392505050565b60006020828403121561049b57600080fd5b5051919050565b6000602082840312156104b457600080fd5b8151801515811461048257600080fdfea264697066735822122053543f32b56a6dd51dcb8e931fae633468579e9d9012c8bad25efc5d4e5aa2f364736f6c63430008120033",
  "devdoc": {
    "kind": "dev",
    "methods": {
      "constructor": {
        "params": {
          "_usdcAddress": "Address assigned to the immutable USDC"
        }
      },
      "owner()": {
        "details": "Returns the address of the current owner."
      },
      "renounceOwnership()": {
        "details": "Leaves the contract without owner. It will not be possible to call `onlyOwner` functions anymore. Can only be called by the current owner. NOTE: Renouncing ownership will leave the contract without an owner, thereby removing any functionality that is only available to the owner."
      },
      "transferOwnership(address)": {
        "details": "Transfers ownership of the contract to a new account (`newOwner`). Can only be called by the current owner."
      }
    },
    "version": 1
  },
  "userdoc": {
    "kind": "user",
    "methods": {
      "I_USDC_CONTRACT()": {
        "notice": "The payment token address ie USDC"
      },
      "currentBalance()": {
        "notice": "Get the current USDC balance of the vault"
      },
      "sendUSDC()": {
        "notice": "Transfer all the USDC present in the contract to the owner"
      }
    },
    "notice": "Vault to store reserveFee of each MarketHandler when its concluded.",
    "version": 1
  },
  "storageLayout": {
    "storage": [
      {
        "astId": 26,
        "contract": "contracts/common/Vault.sol:PM_Vault",
        "label": "_owner",
        "offset": 0,
        "slot": "0",
        "type": "t_address"
      }
    ],
    "types": {
      "t_address": {
        "encoding": "inplace",
        "label": "address",
        "numberOfBytes": "20"
      }
    }
  }
}