{
  "address": "0x2eeE4AEd9db1652b4b4136905a7436f5D679EFA7",
  "abi": [
    {
      "inputs": [
        {
          "internalType": "address",
          "name": "_usdcAddress",
          "type": "address"
        }
      ],
      "stateMutability": "nonpayable",
      "type": "constructor"
    },
    {
      "anonymous": false,
      "inputs": [
        {
          "indexed": true,
          "internalType": "address",
          "name": "previousOwner",
          "type": "address"
        },
        {
          "indexed": true,
          "internalType": "address",
          "name": "newOwner",
          "type": "address"
        }
      ],
      "name": "OwnershipTransferred",
      "type": "event"
    },
    {
      "inputs": [],
      "name": "I_USDC_CONTRACT",
      "outputs": [
        {
          "internalType": "contract IERC20",
          "name": "",
          "type": "address"
        }
      ],
      "stateMutability": "view",
      "type": "function"
    },
    {
      "inputs": [],
      "name": "currentBalance",
      "outputs": [
        {
          "internalType": "uint256",
          "name": "",
          "type": "uint256"
        }
      ],
      "stateMutability": "view",
      "type": "function"
    },
    {
      "inputs": [],
      "name": "owner",
      "outputs": [
        {
          "internalType": "address",
          "name": "",
          "type": "address"
        }
      ],
      "stateMutability": "view",
      "type": "function"
    },
    {
      "inputs": [],
      "name": "renounceOwnership",
      "outputs": [],
      "stateMutability": "nonpayable",
      "type": "function"
    },
    {
      "inputs": [],
      "name": "sendUSDC",
      "outputs": [],
      "stateMutability": "nonpayable",
      "type": "function"
    },
    {
      "inputs": [
        {
          "internalType": "address",
          "name": "newOwner",
          "type": "address"
        }
      ],
      "name": "transferOwnership",
      "outputs": [],
      "stateMutability": "nonpayable",
      "type": "function"
    }
  ],
  "transactionHash": "0xecd0deeefab72a2bf37c81a41e46b0820a5e8039388e17c373b8ec4947ed6dc7",
  "args": [
    "0xE31b51DD1bC6e5e99F027a10b19aEc1E9EBa53Ed"
  ],
  "numDeployments": 1,
  "solcInputHash": "f88c65ed91359b9bb8dbe993181ff172",
  "bytecode": "0x60a060405234801561001057600080fd5b506040516105b23803806105b283398101604081905261002f91610099565b61003833610049565b6001600160a01b03166080526100c9565b600080546001600160a01b038381166001600160a01b0319831681178455604051919092169283917f8be0079c531659141344cd1fd0a4f28419497f9722a3daafe3b4186f6b6457e09190a35050565b6000602082840312156100ab57600080fd5b81516001600160a01b03811681146100c257600080fd5b9392505050565b6080516104ba6100f86000396000818160b70152818161010601528181610180015261026201526104ba6000f3fe608060405234801561001057600080fd5b50600436106100625760003560e01c80631457870a14610067578063715018a6146100715780638da5cb5b14610079578063ce845d1d1461009c578063edd347cd146100b2578063f2fde38b146100d9575b600080fd5b61006f6100ec565b005b61006f610234565b6000546001600160a01b03165b6040516100939190610405565b60405180910390f35b6100a4610248565b604051908152602001610093565b6100867f000000000000000000000000000000000000000000000000000000000000000081565b61006f6100e7366004610419565b6102dd565b6040516370a0823160e01b81526000906001600160a01b037f000000000000000000000000000000000000000000000000000000000000000016906370a082319061013b903090600401610405565b602060405180830381865afa158015610158573d6000803e3d6000fd5b505050506040513d601f19601f8201168201806040525081019061017c9190610449565b90507f00000000000000000000000000000000000000000000000000000000000000006001600160a01b031663a9059cbb6101bf6000546001600160a01b031690565b6040516001600160e01b031960e084901b1681526001600160a01b039091166004820152602481018490526044016020604051808303816000875af115801561020c573d6000803e3d6000fd5b505050506040513d601f19601f820116820180604052508101906102309190610462565b5050565b61023c61035b565b61024660006103b5565b565b6040516370a0823160e01b81526000906001600160a01b037f000000000000000000000000000000000000000000000000000000000000000016906370a0823190610297903090600401610405565b602060405180830381865afa1580156102b4573d6000803e3d6000fd5b505050506040513d601f19601f820116820180604052508101906102d89190610449565b905090565b6102e561035b565b6001600160a01b03811661034f5760405162461bcd60e51b815260206004820152602660248201527f4f776e61626c653a206e6577206f776e657220697320746865207a65726f206160448201526564647265737360d01b60648201526084015b60405180910390fd5b610358816103b5565b50565b6000546001600160a01b031633146102465760405162461bcd60e51b815260206004820181905260248201527f4f776e61626c653a2063616c6c6572206973206e6f7420746865206f776e65726044820152606401610346565b600080546001600160a01b038381166001600160a01b0319831681178455604051919092169283917f8be0079c531659141344cd1fd0a4f28419497f9722a3daafe3b4186f6b6457e09190a35050565b6001600160a01b0391909116815260200190565b60006020828403121561042b57600080fd5b81356001600160a01b038116811461044257600080fd5b9392505050565b60006020828403121561045b57600080fd5b5051919050565b60006020828403121561047457600080fd5b8151801515811461044257600080fdfea26469706673582212208915c82dbe548f9716d0d63b94992fb638302507913e96dd9306bfe9332343e464736f6c63430008120033",
  "devdoc": {
    "kind": "dev",
    "methods": {
      "constructor": {
        "params": {
          "_usdcAddress": "Address assigned to the immutable USDC"
        }
      },
      "owner()": {
        "details": "Returns the address of the current owner."
      },
      "renounceOwnership()": {
        "details": "Leaves the contract without owner. It will not be possible to call `onlyOwner` functions anymore. Can only be called by the current owner. NOTE: Renouncing ownership will leave the contract without an owner, thereby removing any functionality that is only available to the owner."
      },
      "transferOwnership(address)": {
        "details": "Transfers ownership of the contract to a new account (`newOwner`). Can only be called by the current owner."
      }
    },
    "version": 1
  },
  "userdoc": {
    "kind": "user",
    "methods": {
      "I_USDC_CONTRACT()": {
        "notice": "The payment token address ie USDC"
      },
      "currentBalance()": {
        "notice": "Get the current USDC balance of the vault"
      },
      "sendUSDC()": {
        "notice": "Transfer all the USDC present in the contract to the owner"
      }
    },
    "notice": "Vault to store reserveFee of each MarketHandler when its concluded.",
    "version": 1
  },
  "storageLayout": {
    "storage": [
      {
        "astId": 26,
        "contract": "contracts/common/Vault.sol:PM_Vault",
        "label": "_owner",
        "offset": 0,
        "slot": "0",
        "type": "t_address"
      }
    ],
    "types": {
      "t_address": {
        "encoding": "inplace",
        "label": "address",
        "numberOfBytes": "20"
      }
    }
  }
}