{
  "address": "0x900353b9FC5dFa3a09D9793129456c2e1710b68A",
  "abi": [
    {
      "inputs": [
        {
          "internalType": "address",
          "name": "_usdc",
          "type": "address"
        },
        {
          "internalType": "string[]",
          "name": "_assets",
          "type": "string[]"
        },
        {
          "internalType": "address[]",
          "name": "_proxies",
          "type": "address[]"
        },
        {
          "internalType": "uint256",
          "name": "_limit",
          "type": "uint256"
        }
      ],
      "stateMutability": "nonpayable",
      "type": "constructor"
    },
    {
      "inputs": [],
      "name": "PM_InsufficientApprovedAmount",
      "type": "error"
    },
    {
      "anonymous": false,
      "inputs": [
        {
          "indexed": true,
          "internalType": "uint256",
          "name": "predictionId",
          "type": "uint256"
        },
        {
          "indexed": false,
          "internalType": "uint256",
          "name": "timestamp",
          "type": "uint256"
        },
        {
          "indexed": false,
          "internalType": "bool",
          "name": "isAbove",
          "type": "bool"
        },
        {
          "indexed": true,
          "internalType": "int224",
          "name": "priceReading",
          "type": "int224"
        },
        {
          "indexed": true,
          "internalType": "int224",
          "name": "priceTarget",
          "type": "int224"
        }
      ],
      "name": "ConcludeFatalError",
      "type": "event"
    },
    {
      "anonymous": false,
      "inputs": [
        {
          "indexed": true,
          "internalType": "uint256",
          "name": "predictionId",
          "type": "uint256"
        },
        {
          "indexed": true,
          "internalType": "address",
          "name": "marketHandler",
          "type": "address"
        },
        {
          "indexed": true,
          "internalType": "address",
          "name": "trader",
          "type": "address"
        },
        {
          "indexed": false,
          "internalType": "int256",
          "name": "amountYes",
          "type": "int256"
        },
        {
          "indexed": false,
          "internalType": "int256",
          "name": "amountNo",
          "type": "int256"
        }
      ],
      "name": "HandlerProgress",
      "type": "event"
    },
    {
      "anonymous": false,
      "inputs": [
        {
          "indexed": true,
          "internalType": "address",
          "name": "previousOwner",
          "type": "address"
        },
        {
          "indexed": true,
          "internalType": "address",
          "name": "newOwner",
          "type": "address"
        }
      ],
      "name": "OwnershipTransferred",
      "type": "event"
    },
    {
      "anonymous": false,
      "inputs": [
        {
          "indexed": true,
          "internalType": "uint256",
          "name": "predictionId",
          "type": "uint256"
        },
        {
          "indexed": true,
          "internalType": "address",
          "name": "marketHandler",
          "type": "address"
        },
        {
          "indexed": false,
          "internalType": "address",
          "name": "creator",
          "type": "address"
        },
        {
          "indexed": false,
          "internalType": "uint256",
          "name": "timestamp",
          "type": "uint256"
        },
        {
          "indexed": true,
          "internalType": "uint256",
          "name": "deadline",
          "type": "uint256"
        }
      ],
      "name": "PredictionCreated",
      "type": "event"
    },
    {
      "stateMutability": "payable",
      "type": "fallback"
    },
    {
      "inputs": [],
      "name": "PLATFORM_FEE",
      "outputs": [
        {
          "internalType": "uint256",
          "name": "",
          "type": "uint256"
        }
      ],
      "stateMutability": "view",
      "type": "function"
    },
    {
      "inputs": [],
      "name": "TRADING_FEE",
      "outputs": [
        {
          "internalType": "uint256",
          "name": "",
          "type": "uint256"
        }
      ],
      "stateMutability": "view",
      "type": "function"
    },
    {
      "inputs": [
        {
          "internalType": "uint256",
          "name": "_predictionId",
          "type": "uint256"
        },
        {
          "internalType": "bool",
          "name": "_vote",
          "type": "bool"
        }
      ],
      "name": "concludePrediction_2",
      "outputs": [],
      "stateMutability": "nonpayable",
      "type": "function"
    },
    {
      "inputs": [
        {
          "internalType": "string",
          "name": "_tokenSymbol",
          "type": "string"
        },
        {
          "internalType": "bool",
          "name": "_isAbove",
          "type": "bool"
        },
        {
          "internalType": "int224",
          "name": "_targetPricePoint",
          "type": "int224"
        },
        {
          "internalType": "uint256",
          "name": "_deadline",
          "type": "uint256"
        },
        {
          "internalType": "uint256",
          "name": "_basePrice",
          "type": "uint256"
        }
      ],
      "name": "createPrediction",
      "outputs": [
        {
          "internalType": "uint256",
          "name": "",
          "type": "uint256"
        }
      ],
      "stateMutability": "nonpayable",
      "type": "function"
    },
    {
      "inputs": [
        {
          "internalType": "string",
          "name": "_asset",
          "type": "string"
        }
      ],
      "name": "getAssetToProxy",
      "outputs": [
        {
          "internalType": "address",
          "name": "",
          "type": "address"
        }
      ],
      "stateMutability": "view",
      "type": "function"
    },
    {
      "inputs": [
        {
          "internalType": "uint256",
          "name": "_predictionId",
          "type": "uint256"
        }
      ],
      "name": "getPrediction",
      "outputs": [
        {
          "components": [
            {
              "internalType": "string",
              "name": "tokenSymbol",
              "type": "string"
            },
            {
              "internalType": "int224",
              "name": "targetPricePoint",
              "type": "int224"
            },
            {
              "internalType": "bool",
              "name": "isAbove",
              "type": "bool"
            },
            {
              "internalType": "address",
              "name": "proxyAddress",
              "type": "address"
            },
            {
              "internalType": "uint256",
              "name": "fee",
              "type": "uint256"
            },
            {
              "internalType": "uint256",
              "name": "timestamp",
              "type": "uint256"
            },
            {
              "internalType": "uint256",
              "name": "deadline",
              "type": "uint256"
            },
            {
              "internalType": "bool",
              "name": "isActive",
              "type": "bool"
            },
            {
              "internalType": "address",
              "name": "marketHandler",
              "type": "address"
            }
          ],
          "internalType": "struct Prediction",
          "name": "",
          "type": "tuple"
        }
      ],
      "stateMutability": "view",
      "type": "function"
    },
    {
      "inputs": [
        {
          "internalType": "uint256[]",
          "name": "_ids",
          "type": "uint256[]"
        },
        {
          "internalType": "uint256",
          "name": "_limit",
          "type": "uint256"
        }
      ],
      "name": "getPredictions",
      "outputs": [
        {
          "components": [
            {
              "internalType": "string",
              "name": "tokenSymbol",
              "type": "string"
            },
            {
              "internalType": "int224",
              "name": "targetPricePoint",
              "type": "int224"
            },
            {
              "internalType": "bool",
              "name": "isAbove",
              "type": "bool"
            },
            {
              "internalType": "address",
              "name": "proxyAddress",
              "type": "address"
            },
            {
              "internalType": "uint256",
              "name": "fee",
              "type": "uint256"
            },
            {
              "internalType": "uint256",
              "name": "timestamp",
              "type": "uint256"
            },
            {
              "internalType": "uint256",
              "name": "deadline",
              "type": "uint256"
            },
            {
              "internalType": "bool",
              "name": "isActive",
              "type": "bool"
            },
            {
              "internalType": "address",
              "name": "marketHandler",
              "type": "address"
            }
          ],
          "internalType": "struct Prediction[]",
          "name": "",
          "type": "tuple[]"
        }
      ],
      "stateMutability": "view",
      "type": "function"
    },
    {
      "inputs": [
        {
          "internalType": "uint256[]",
          "name": "_ids",
          "type": "uint256[]"
        },
        {
          "internalType": "uint256",
          "name": "_limit",
          "type": "uint256"
        }
      ],
      "name": "getProxiesForPredictions",
      "outputs": [
        {
          "internalType": "address[]",
          "name": "",
          "type": "address[]"
        }
      ],
      "stateMutability": "view",
      "type": "function"
    },
    {
      "inputs": [
        {
          "internalType": "uint256",
          "name": "_predictionId",
          "type": "uint256"
        }
      ],
      "name": "getProxyForPrediction",
      "outputs": [
        {
          "internalType": "address",
          "name": "",
          "type": "address"
        }
      ],
      "stateMutability": "view",
      "type": "function"
    },
    {
      "inputs": [],
      "name": "owner",
      "outputs": [
        {
          "internalType": "address",
          "name": "",
          "type": "address"
        }
      ],
      "stateMutability": "view",
      "type": "function"
    },
    {
      "inputs": [],
      "name": "renounceOwnership",
      "outputs": [],
      "stateMutability": "nonpayable",
      "type": "function"
    },
    {
      "inputs": [
        {
          "internalType": "string",
          "name": "_asset",
          "type": "string"
        },
        {
          "internalType": "address",
          "name": "_proxy",
          "type": "address"
        }
      ],
      "name": "setProxyForAsseet",
      "outputs": [],
      "stateMutability": "nonpayable",
      "type": "function"
    },
    {
      "inputs": [
        {
          "internalType": "address",
          "name": "_settlement",
          "type": "address"
        }
      ],
      "name": "setSettlementAddress",
      "outputs": [],
      "stateMutability": "nonpayable",
      "type": "function"
    },
    {
      "inputs": [
        {
          "internalType": "uint256",
          "name": "_newFee",
          "type": "uint256"
        }
      ],
      "name": "setTradingFee",
      "outputs": [],
      "stateMutability": "nonpayable",
      "type": "function"
    },
    {
      "inputs": [
        {
          "internalType": "address",
          "name": "_vault",
          "type": "address"
        }
      ],
      "name": "setVaultAddress",
      "outputs": [],
      "stateMutability": "nonpayable",
      "type": "function"
    },
    {
      "inputs": [],
      "name": "settlementAddress",
      "outputs": [
        {
          "internalType": "address",
          "name": "",
          "type": "address"
        }
      ],
      "stateMutability": "view",
      "type": "function"
    },
    {
      "inputs": [
        {
          "internalType": "uint256",
          "name": "_id",
          "type": "uint256"
        },
        {
          "internalType": "address",
          "name": "_caller",
          "type": "address"
        },
        {
          "internalType": "int256",
          "name": "_amountYes",
          "type": "int256"
        },
        {
          "internalType": "int256",
          "name": "_amountNo",
          "type": "int256"
        }
      ],
      "name": "trackProgress",
      "outputs": [],
      "stateMutability": "nonpayable",
      "type": "function"
    },
    {
      "inputs": [
        {
          "internalType": "address",
          "name": "newOwner",
          "type": "address"
        }
      ],
      "name": "transferOwnership",
      "outputs": [],
      "stateMutability": "nonpayable",
      "type": "function"
    },
    {
      "inputs": [],
      "name": "vaultAddress",
      "outputs": [
        {
          "internalType": "address",
          "name": "",
          "type": "address"
        }
      ],
      "stateMutability": "view",
      "type": "function"
    },
    {
      "stateMutability": "payable",
      "type": "receive"
    }
  ],
  "transactionHash": "0xc50e0ba0f4639719f45e20de41fcf453e64fca9e6951784a1906d161c785ef58",
  "args": [
    "0x31a0EDA48F467105EF31909465a7403d2e657bCC",
    [
      "AAVE",
      "API3",
      "BTC",
      "ETH",
      "MATIC"
    ],
    [
      "0x13d1Ed8c24911d88e6155cE32A66908399C97924",
      "0xf25b7429406b24da879f0d1a008596b74fcb9c2f",
      "0xe5Cf15fED24942E656dBF75165aF1851C89F21B5",
      "0x26690F9f17FdC26D419371315bc17950a0FC90eD",
      "0x3ACccB328Db79Af1B81a4801DAf9ac8370b9FBF8"
    ],
    5
  ],
  "numDeployments": 9,
  "solcInputHash": "40fa8abb537d7f6d29647ee6d2beeaa4",
  "bytecode": "0x60a060405260326002553480156200001657600080fd5b506040516200492338038062004923833981016040819052620000399162000295565b62000044336200010e565b6001600160a01b03841660805260005b81811015620000ec57828181518110620000725762000072620003ec565b60200260200101516003858381518110620000915762000091620003ec565b6020026020010151604051620000a8919062000402565b90815260405190819003602001902080546001600160a01b03929092166001600160a01b031990921691909117905580620000e38162000420565b91505062000054565b506200010460016200015e60201b620013611760201c565b5050505062000448565b600080546001600160a01b038381166001600160a01b0319831681178455604051919092169283917f8be0079c531659141344cd1fd0a4f28419497f9722a3daafe3b4186f6b6457e09190a35050565b80546001019055565b80516001600160a01b03811681146200017f57600080fd5b919050565b634e487b7160e01b600052604160045260246000fd5b604051601f8201601f191681016001600160401b0381118282101715620001c557620001c562000184565b604052919050565b60006001600160401b03821115620001e957620001e962000184565b5060051b60200190565b60005b8381101562000210578181015183820152602001620001f6565b50506000910152565b600082601f8301126200022b57600080fd5b81516020620002446200023e83620001cd565b6200019a565b82815260059290921b840181019181810190868411156200026457600080fd5b8286015b848110156200028a576200027c8162000167565b835291830191830162000268565b509695505050505050565b60008060008060808587031215620002ac57600080fd5b620002b78562000167565b602086810151919550906001600160401b0380821115620002d757600080fd5b818801915088601f830112620002ec57600080fd5b8151620002fd6200023e82620001cd565b81815260059190911b8301840190848101908b8311156200031d57600080fd5b8585015b83811015620003b0578051858111156200033a57600080fd5b8601603f81018e136200034c57600080fd5b878101518681111562000363576200036362000184565b62000377601f8201601f19168a016200019a565b8181528f60408385010111156200038e5760008081fd5b620003a0828b830160408601620001f3565b8552505091860191860162000321565b5060408b01519098509450505080831115620003cb57600080fd5b5050620003db8782880162000219565b606096909601519497939650505050565b634e487b7160e01b600052603260045260246000fd5b6000825162000416818460208701620001f3565b9190910192915050565b6000600182016200044157634e487b7160e01b600052601160045260246000fd5b5060010190565b6080516144b162000472600039600081816105990152818161090801526109be01526144b16000f3fe6080604052600436106200014d5760003560e01c8063715018a611620000c3578063d075006b1162000077578063f2fde38b116200005d578063f2fde38b14620003d9578063f738c4a714620003fe578063fe83bece146200042057005b8063d075006b146200038f578063dcb6b26a14620003b457005b806385535cc511620000a957806385535cc514620003255780638da5cb5b146200034a578063b0d54bcf146200036a57005b8063715018a614620002e857806373a3cc23146200030057005b8063430bf08a116200011b578063533a6f221162000101578063533a6f22146200025b57806360adf22314620002805780636c9e4d1714620002b457005b8063430bf08a14620001e6578063461d282b146200022157005b80631f3372fe146200015757806323531b90146200017c57806323c3190c14620001a757806334fbc9a114620001cc57005b366200015557005b005b3480156200016457600080fd5b50620001556200017636600462001433565b62000454565b3480156200018957600080fd5b506200019460025481565b6040519081526020015b60405180910390f35b348015620001b457600080fd5b5062000194620001c636600462001527565b62000529565b348015620001d957600080fd5b50620001946302faf08081565b348015620001f357600080fd5b5060085462000208906001600160a01b031681565b6040516001600160a01b0390911681526020016200019e565b3480156200022e57600080fd5b506200020862000240366004620015a9565b6000908152600560205260409020546001600160a01b031690565b3480156200026857600080fd5b50620002086200027a366004620015c3565b62000c6c565b3480156200028d57600080fd5b50620002a56200029f36600462001604565b62000c9f565b6040516200019e9190620017b9565b348015620002c157600080fd5b50620002d9620002d336600462001604565b62000e34565b6040516200019e91906200181f565b348015620002f557600080fd5b506200015562000ec8565b3480156200030d57600080fd5b50620001556200031f3660046200188b565b62000ee0565b3480156200033257600080fd5b5062000155620003443660046200188b565b62000f0c565b3480156200035757600080fd5b506000546001600160a01b031662000208565b3480156200037757600080fd5b506200015562000389366004620015a9565b62000f38565b3480156200039c57600080fd5b5062000155620003ae366004620018b0565b62000f47565b348015620003c157600080fd5b5062000155620003d336600462001904565b62000fef565b348015620003e657600080fd5b5062000155620003f83660046200188b565b62001158565b3480156200040b57600080fd5b5060075462000208906001600160a01b031681565b3480156200042d57600080fd5b50620004456200043f366004620015a9565b620011ee565b6040516200019e919062001942565b60075433906001600160a01b031681146200046e57600080fd5b60008381526004602052604090206005015442106200048c57600080fd5b6000838152600460208190526040918290206006015491517f10d93502000000000000000000000000000000000000000000000000000000008152841515918101919091526101009091046001600160a01b031690819081906310d9350290602401600060405180830381600087803b1580156200050957600080fd5b505af11580156200051e573d6000803e3d6000fd5b505050505050505050565b600080339050600060038860405162000543919062001957565b908152604051908190036020018120547fdd62ed3e0000000000000000000000000000000000000000000000000000000082526001600160a01b03848116600484015230602484015290811692506302faf080917f00000000000000000000000000000000000000000000000000000000000000009091169063dd62ed3e90604401602060405180830381865afa158015620005e3573d6000803e3d6000fd5b505050506040513d601f19601f8201168201806040525081019062000609919062001975565b10156200065d5760405162461bcd60e51b815260206004820152601260248201527f416c6c6f77616e6365206e6f742073657421000000000000000000000000000060448201526064015b60405180910390fd5b6001600160a01b038116620006db5760405162461bcd60e51b815260206004820152602f60248201527f43616e277420686176652061646472657373207a65726f20617320746865207060448201527f726f7879277320616464726573732e0000000000000000000000000000000000606482015260840162000654565b4285116200072c5760405162461bcd60e51b815260206004820152601e60248201527f446561646c696e652063616e277420626520696e2074686520706173742e0000604482015260640162000654565b60006200073860015490565b9050600060046000838152602001908152602001600020604051806101200160405290816000820180546200076d906200198f565b80601f01602080910402602001604051908101604052809291908181526020018280546200079b906200198f565b8015620007ec5780601f10620007c057610100808354040283529160200191620007ec565b820191906000526020600020905b815481529060010190602001808311620007ce57829003601f168201915b50505091835250506001820154601b81900b602083015260ff600160e01b90910481161515604083015260028301546001600160a01b03908116606084015260038401546080840152600484015460a080850191909152600585015460c0850152600690940154918216151560e0840152610100918290041691015281015190915015620008bd5760405162461bcd60e51b815260206004820152601a60248201527f50726564696374696f6e20616c7265616479206578697374732e000000000000604482015260640162000654565b6040517f23b872dd0000000000000000000000000000000000000000000000000000000081526001600160a01b0385811660048301523060248301526302faf08060448301526000917f0000000000000000000000000000000000000000000000000000000000000000909116906323b872dd906064016020604051808303816000875af115801562000954573d6000803e3d6000fd5b505050506040513d601f19601f820116820180604052508101906200097a9190620019cb565b905080620009b4576040517fca234f3900000000000000000000000000000000000000000000000000000000815260040160405180910390fd5b6000836002548a8a7f0000000000000000000000000000000000000000000000000000000000000000600860009054906101000a90046001600160a01b031660405162000a019062001416565b9586526020860194909452604085019290925260608401526001600160a01b0390811660808401521660a082015260c001604051809103906000f08015801562000a4f573d6000803e3d6000fd5b5060408051610120810182528e8152601b8d900b6020808301919091528e1515828401526001600160a01b03808a16606084015260025460808401524260a084015260c083018e9052600160e08401528416610100830152600088815260049091529190912081519293509091829190819062000acd908262001a3e565b50602082810151600180840180546040808801511515600160e01b027fffffff00000000000000000000000000000000000000000000000000000000009092167bffffffffffffffffffffffffffffffffffffffffffffffffffffffff9095169490941717905560608501516002850180546001600160a01b039283166001600160a01b0319918216179091556080870151600387015560a0870151600487015560c087015160058088019190915560e088015160069097018054610100998a015185169099027fffffffffffffffffffffff0000000000000000000000000000000000000000ff981515989098167fffffffffffffffffffffff000000000000000000000000000000000000000000909916989098179690961790965560008b81529490935292208054918a16919093161790915562000c119080546001019055565b604080516001600160a01b0389811682524260208301528c929085169188917f7bed24594bc69eabc466d2e497d2f8ec45df38dea10026d0c4e0b31cb0a9b9c6910160405180910390a450929b9a5050505050505050505050565b600060038260405162000c80919062001957565b908152604051908190036020019020546001600160a01b031692915050565b60608060005b8381101562000e2c576004600086838151811062000cc75762000cc762001b0b565b602002602001015181526020019081526020016000206040518061012001604052908160008201805462000cfb906200198f565b80601f016020809104026020016040519081016040528092919081815260200182805462000d29906200198f565b801562000d7a5780601f1062000d4e5761010080835404028352916020019162000d7a565b820191906000526020600020905b81548152906001019060200180831162000d5c57829003601f168201915b50505091835250506001820154601b81900b602083015260ff600160e01b90910481161515604083015260028301546001600160a01b03908116606084015260038401546080840152600484015460a0840152600584015460c0840152600690930154908116151560e083015261010090819004909216910152825183908390811062000e0b5762000e0b62001b0b565b6020026020010181905250808062000e239062001b21565b91505062000ca5565b509392505050565b60608060005b8381101562000e2c576005600086838151811062000e5c5762000e5c62001b0b565b6020026020010151815260200190815260200160002060009054906101000a90046001600160a01b031682828151811062000e9b5762000e9b62001b0b565b6001600160a01b03909216602092830291909101909101528062000ebf8162001b21565b91505062000e3a565b62000ed26200136a565b62000ede6000620013c6565b565b62000eea6200136a565b600780546001600160a01b0319166001600160a01b0392909216919091179055565b62000f166200136a565b600880546001600160a01b0319166001600160a01b0392909216919091179055565b62000f426200136a565b600255565b62000f516200136a565b6001600160a01b03811662000fa95760405162461bcd60e51b815260206004820152601660248201527f43616e2774206265207a65726f20616464726573732e00000000000000000000604482015260640162000654565b8060038360405162000fbc919062001957565b90815260405190819003602001902080546001600160a01b03929092166001600160a01b03199092169190911790555050565b833360008281526004602052604090206006015461010090046001600160a01b031680620010605760405162461bcd60e51b815260206004820152601660248201527f496e76616c69642050726564696374696f6e2049642100000000000000000000604482015260640162000654565b816001600160a01b0316816001600160a01b031614620010e95760405162461bcd60e51b815260206004820152602160248201527f43616c6c6572206973206e6f7420746865206d61726b65742068616e646c657260448201527f2e00000000000000000000000000000000000000000000000000000000000000606482015260840162000654565b60008781526004602090815260409182902060060154825188815291820187905261010090046001600160a01b03908116929089169183918b917faa4efaf794e3033902d020af57e79b057692c8db2827c81e7bebe89009630212910160405180910390a45050505050505050565b620011626200136a565b6001600160a01b038116620011e05760405162461bcd60e51b815260206004820152602660248201527f4f776e61626c653a206e6577206f776e657220697320746865207a65726f206160448201527f6464726573730000000000000000000000000000000000000000000000000000606482015260840162000654565b620011eb81620013c6565b50565b6040805161012081018252606080825260006020830181905292820183905281018290526080810182905260a0810182905260c0810182905260e08101829052610100810191909152600082815260046020526040908190208151610120810190925280548290829062001262906200198f565b80601f016020809104026020016040519081016040528092919081815260200182805462001290906200198f565b8015620012e15780601f10620012b557610100808354040283529160200191620012e1565b820191906000526020600020905b815481529060010190602001808311620012c357829003601f168201915b50505091835250506001820154601b81900b602083015260ff600160e01b90910481161515604083015260028301546001600160a01b03908116606084015260038401546080840152600484015460a0840152600584015460c0840152600690930154908116151560e08301526101009081900490921691015292915050565b80546001019055565b6000546001600160a01b0316331462000ede5760405162461bcd60e51b815260206004820181905260248201527f4f776e61626c653a2063616c6c6572206973206e6f7420746865206f776e6572604482015260640162000654565b600080546001600160a01b038381166001600160a01b0319831681178455604051919092169283917f8be0079c531659141344cd1fd0a4f28419497f9722a3daafe3b4186f6b6457e09190a35050565b6129328062001b4a83390190565b8015158114620011eb57600080fd5b600080604083850312156200144757600080fd5b8235915060208301356200145b8162001424565b809150509250929050565b634e487b7160e01b600052604160045260246000fd5b604051601f8201601f1916810167ffffffffffffffff81118282101715620014a857620014a862001466565b604052919050565b600082601f830112620014c257600080fd5b813567ffffffffffffffff811115620014df57620014df62001466565b620014f4601f8201601f19166020016200147c565b8181528460208386010111156200150a57600080fd5b816020850160208301376000918101602001919091529392505050565b600080600080600060a086880312156200154057600080fd5b853567ffffffffffffffff8111156200155857600080fd5b6200156688828901620014b0565b9550506020860135620015798162001424565b93506040860135601b81900b81146200159157600080fd5b94979396509394606081013594506080013592915050565b600060208284031215620015bc57600080fd5b5035919050565b600060208284031215620015d657600080fd5b813567ffffffffffffffff811115620015ee57600080fd5b620015fc84828501620014b0565b949350505050565b600080604083850312156200161857600080fd5b823567ffffffffffffffff808211156200163157600080fd5b818501915085601f8301126200164657600080fd5b81356020828211156200165d576200165d62001466565b8160051b9250620016708184016200147c565b82815292840181019281810190898511156200168b57600080fd5b948201945b84861015620016ab5785358252948201949082019062001690565b9997909101359750505050505050565b60005b83811015620016d8578181015183820152602001620016be565b50506000910152565b60006101208251818552805180838701526101409250620017098184880160208501620016bb565b60208501519150620017206020870183601b0b9052565b6040850151915062001736604087018315159052565b606085015191506200175360608701836001600160a01b03169052565b6080850151608087015260a085015160a087015260c085015160c087015260e085015191506200178760e087018315159052565b610100915081850151620017a5838801826001600160a01b03169052565b50601f01601f191694909401019392505050565b6000602080830181845280855180835260408601915060408160051b870101925083870160005b828110156200181257603f19888603018452620017ff858351620016e1565b94509285019290850190600101620017e0565b5092979650505050505050565b6020808252825182820181905260009190848201906040850190845b81811015620018625783516001600160a01b0316835292840192918401916001016200183b565b50909695505050505050565b80356001600160a01b03811681146200188657600080fd5b919050565b6000602082840312156200189e57600080fd5b620018a9826200186e565b9392505050565b60008060408385031215620018c457600080fd5b823567ffffffffffffffff811115620018dc57600080fd5b620018ea85828601620014b0565b925050620018fb602084016200186e565b90509250929050565b600080600080608085870312156200191b57600080fd5b843593506200192d602086016200186e565b93969395505050506040820135916060013590565b602081526000620018a96020830184620016e1565b600082516200196b818460208701620016bb565b9190910192915050565b6000602082840312156200198857600080fd5b5051919050565b600181811c90821680620019a457607f821691505b602082108103620019c557634e487b7160e01b600052602260045260246000fd5b50919050565b600060208284031215620019de57600080fd5b8151620018a98162001424565b601f82111562001a3957600081815260208120601f850160051c8101602086101562001a145750805b601f850160051c820191505b8181101562001a355782815560010162001a20565b5050505b505050565b815167ffffffffffffffff81111562001a5b5762001a5b62001466565b62001a738162001a6c84546200198f565b84620019eb565b602080601f83116001811462001aab576000841562001a925750858301515b600019600386901b1c1916600185901b17855562001a35565b600085815260208120601f198616915b8281101562001adc5788860151825594840194600190910190840162001abb565b508582101562001afb5787850151600019600388901b60f8161c191681555b5050505050600190811b01905550565b634e487b7160e01b600052603260045260246000fd5b60006001820162001b4257634e487b7160e01b600052601160045260246000fd5b506001019056fe6101406040523480156200001257600080fd5b5060405162002932380380620029328339810160408190526200003591620002de565b620000403362000268565b600680546001600160a01b031916331790556080869052620000658361271062000351565b60a05260c0849052600580546001600160a01b03808416620100000262010000600160b01b03199092169190911790915582166101208190526040805163313ce56760e01b8152905184929163313ce5679160048083019260209291908290030181865afa158015620000dc573d6000803e3d6000fd5b505050506040513d601f19601f8201168201806040525081019062000102919062000371565b6200010f90600a62000488565b60e08181525050612710816001600160a01b031663313ce5676040518163ffffffff1660e01b8152600401602060405180830381865afa15801562000158573d6000803e3d6000fd5b505050506040513d601f19601f820116820180604052508101906200017e919062000371565b6200018b90600a62000488565b62000197908862000351565b620001a391906200049d565b6101008181525050620001c26007620002b860201b620020ca1760201c565b600c80546001810182556000919091527fdf6966c971051c3d54ec59162606531493a51404a002842f56009d7e5cf4a8c70180546001600160a01b03191690556200021a600b620002b8602090811b620020ca17901c565b5050600880546001810182556000919091527ff3f7a9fe364faab93b216da50a3214154f22a0a2b415b23a84c8169e8b636ee30180546001600160a01b031916905550620004c09350505050565b600080546001600160a01b038381166001600160a01b0319831681178455604051919092169283917f8be0079c531659141344cd1fd0a4f28419497f9722a3daafe3b4186f6b6457e09190a35050565b80546001019055565b80516001600160a01b0381168114620002d957600080fd5b919050565b60008060008060008060c08789031215620002f857600080fd5b865195506020870151945060408701519350606087015192506200031f60808801620002c1565b91506200032f60a08801620002c1565b90509295509295509295565b634e487b7160e01b600052601160045260246000fd5b80820281158282048414176200036b576200036b6200033b565b92915050565b6000602082840312156200038457600080fd5b5051919050565b600181815b80851115620003cc578160001904821115620003b057620003b06200033b565b80851615620003be57918102915b93841c939080029062000390565b509250929050565b600082620003e5575060016200036b565b81620003f4575060006200036b565b81600181146200040d5760028114620004185762000438565b60019150506200036b565b60ff8411156200042c576200042c6200033b565b50506001821b6200036b565b5060208310610133831016604e8410600b84101617156200045d575081810a6200036b565b6200046983836200038b565b80600019048211156200048057620004806200033b565b029392505050565b6000620004968383620003d4565b9392505050565b600082620004bb57634e487b7160e01b600052601260045260246000fd5b500490565b60805160a05160c05160e0516101005161012051612334620005fe60003960008181610528015281816107e201528181610b0501528181610ca701528181610de701528181611034015281816110f3015281816111ed015281816114e00152818161159f01528181611699015281816119e101528181611b210152611e560152600081816103ca015261209501526000818161022701526120710152600081816104f4015281816105ac0152818161066e01528181610bcc01528181610fae0152818161145a015281816119060152611ce80152600081816102bb015281816106b401528181610c1201528181611002015281816114ae0152818161194c0152611d2e0152600081816103040152818161087a01528181610ec8015281816113800152818161182c01528181611c020152611eee01526123346000f3fe6080604052600436106101a35760003560e01c8063b5d53709116100e0578063dfbf53ae11610084578063edd347cd11610061578063edd347cd14610516578063efdf3c171461054a578063f2fde38b1461056a578063fcee45f41461058a57005b8063dfbf53ae1461048d578063e1a51dff146104ac578063e8b2d47f146104e257005b8063c1ff549b116100bd578063c1ff549b14610417578063c87b502e14610437578063ca015b621461044d578063db29cd3d1461046d57005b8063b5d53709146103b8578063b6e35797146103ec578063b8fe4cfb1461040157005b806370bb45b31161014757806377ed46571161012457806377ed46571461033b5780638da5cb5b146103505780638fb182aa146103825780639473223e1461039857005b806370bb45b3146102dd57806370daf9a3146102f2578063715018a61461032657005b806353aaf54c1161018057806353aaf54c14610249578063578a68061461025f578063690aa8951461027f57806369d5bf6b146102a957005b806310d93502146101ac578063181a2ea1146101cc578063501ff1741461021557005b366101aa57005b005b3480156101b857600080fd5b506101aa6101c736600461218b565b6105aa565b3480156101d857600080fd5b506102026101e73660046121af565b6001600160a01b03166000908152600e602052604090205490565b6040519081526020015b60405180910390f35b34801561022157600080fd5b506102027f000000000000000000000000000000000000000000000000000000000000000081565b34801561025557600080fd5b5061020260045481565b34801561026b57600080fd5b506101aa61027a3660046121d8565b61066c565b34801561028b57600080fd5b506005546102999060ff1681565b604051901515815260200161020c565b3480156102b557600080fd5b506102027f000000000000000000000000000000000000000000000000000000000000000081565b3480156102e957600080fd5b506101aa610970565b3480156102fe57600080fd5b506102027f000000000000000000000000000000000000000000000000000000000000000081565b34801561033257600080fd5b506101aa610bb6565b34801561034757600080fd5b50600354610202565b34801561035c57600080fd5b506000546001600160a01b03165b6040516001600160a01b03909116815260200161020c565b34801561038e57600080fd5b5061020260035481565b3480156103a457600080fd5b506101aa6103b33660046121d8565b610bca565b3480156103c457600080fd5b506102027f000000000000000000000000000000000000000000000000000000000000000081565b3480156103f857600080fd5b50600454610202565b34801561040d57600080fd5b5061020260025481565b34801561042357600080fd5b506101aa6104323660046121d8565b610fac565b34801561044357600080fd5b5061020260015481565b34801561045957600080fd5b506101aa6104683660046121d8565b611458565b34801561047957600080fd5b506101aa6104883660046121d8565b611904565b34801561049957600080fd5b5060055461029990610100900460ff1681565b3480156104b857600080fd5b506102026104c73660046121af565b6001600160a01b03166000908152600a602052604090205490565b3480156104ee57600080fd5b506102027f000000000000000000000000000000000000000000000000000000000000000081565b34801561052257600080fd5b5061036a7f000000000000000000000000000000000000000000000000000000000000000081565b34801561055657600080fd5b506101aa6105653660046121d8565b611ce6565b34801561057657600080fd5b506101aa6105853660046121af565b611fd8565b34801561059657600080fd5b506102026105a53660046121d8565b61206d565b7f00000000000000000000000000000000000000000000000000000000000000004211610603576040517fbfe082fc00000000000000000000000000000000000000000000000000000000815260040160405180910390fd5b61060b6120d3565b600580548215156101000261ff00199091161790556040517f029f9bb82bcc34b8fb93e2f45e19e0db433f6acd8b15ca883f0ef2143b58342c9061065490831515815260200190565b60405180910390a1506005805460ff19166001179055565b7f00000000000000000000000000000000000000000000000000000000000000004211156106ad5760405163700ec25b60e01b815260040160405180910390fd5b60006106d97f000000000000000000000000000000000000000000000000000000000000000083612207565b336000908152600e602052604090205490915081111561070b576040516296118960e51b815260040160405180910390fd5b60006107168261206d565b336000908152600e602052604081208054929350849290919061073a90849061221e565b925050819055508160046000828254610753919061221e565b909155506107639050818361221e565b336000908152600a602052604081208054909190610782908490612231565b92505081905550816003600082825461079b9190612231565b90915550600090506107ad828461221e565b60055460405163a9059cbb60e01b8152620100009091046001600160a01b0390811660048301526024820185905291925084917f0000000000000000000000000000000000000000000000000000000000000000169063a9059cbb906044016020604051808303816000875af115801561082b573d6000803e3d6000fd5b505050506040513d601f19601f8201168201806040525081019061084f9190612244565b5082600260008282546108629190612231565b90915550506006546001600160a01b031663dcb6b26a7f000000000000000000000000000000000000000000000000000000000000000033876108a781600019612261565b6040516001600160e01b031960e087901b16815260048101949094526001600160a01b03909216602484015260448301526064820152608401600060405180830381600087803b1580156108fa57600080fd5b505af115801561090e573d6000803e3d6000fd5b505050506109193390565b6001600160a01b03167fa19c60f7787bc349d4b0903c435f5372c0ec8bd2ac9878a60fbe838caee316668361095084600019612261565b604080519283526020830191909152015b60405180910390a25050505050565b60055460ff166109ac576040517f2ceb370f00000000000000000000000000000000000000000000000000000000815260040160405180910390fd5b336000908152600f602052604090205460ff16156109f6576040517f970f97c200000000000000000000000000000000000000000000000000000000815260040160405180910390fd5b60018054600554909160009182918291610100900460ff1615159003610a6657336000908152600a60205260408120549003610a45576040516302ee147360e21b815260040160405180910390fd5b600354336000908152600a6020526040812080549190559093509150610ab2565b336000908152600e60205260408120549003610a95576040516302ee147360e21b815260040160405180910390fd5b600454336000908152600e60205260408120805491905590935091505b82610abd8584612207565b610ac791906122ad565b336000818152600f60209081526040808320805460ff19166001179055805163a9059cbb60e01b8152600481019490945260248401859052519394507f00000000000000000000000000000000000000000000000000000000000000006001600160a01b03169363a9059cbb936044808201949183900301908290875af1158015610b56573d6000803e3d6000fd5b505050506040513d601f19601f82011682018060405250810190610b7a9190612244565b5060405181815233907fe8354b169cd993d5cdfad1036a9a3f1ea7ed77e430bccb279200fd088243f5959060200160405180910390a250505050565b610bbe6120d3565b610bc8600061212d565b565b7f0000000000000000000000000000000000000000000000000000000000000000421115610c0b5760405163700ec25b60e01b815260040160405180910390fd5b6000610c377f000000000000000000000000000000000000000000000000000000000000000083612207565b336000908152600a6020526040902054909150811115610c6a576040516327905ab760e21b815260040160405180910390fd5b6000610c758261206d565b60055460405163a9059cbb60e01b81526001600160a01b036201000090920482166004820152602481018390529192507f0000000000000000000000000000000000000000000000000000000000000000169063a9059cbb906044016020604051808303816000875af1158015610cf0573d6000803e3d6000fd5b505050506040513d601f19601f82011682018060405250810190610d149190612244565b508060026000828254610d279190612231565b9091555060009050610d39828461221e565b336000908152600a6020526040812080549293508592909190610d5d90849061221e565b9091555050336000908152600a60205260408120549003610ddb57336000908152600960205260408120546008805491929183908110610d9f57610d9f6122cf565b600091825260208083209190910180546001600160a01b0319166001600160a01b03949094169390931790925533815260099091526040812055505b60006001600160a01b037f00000000000000000000000000000000000000000000000000000000000000001663a9059cbb336040516001600160e01b031960e084901b1681526001600160a01b039091166004820152602481018590526044016020604051808303816000875af1158015610e5a573d6000803e3d6000fd5b505050506040513d601f19601f82011682018060405250810190610e7e9190612244565b905080610e9e5760405163c98df4e360e01b815260040160405180910390fd5b8360016000828254610eb0919061221e565b90915550506006546001600160a01b031663dcb6b26a7f000000000000000000000000000000000000000000000000000000000000000033610ef486600019612261565b6040516001600160e01b031960e086901b16815260048101939093526001600160a01b039091166024830152604482015260006064820152608401600060405180830381600087803b158015610f4957600080fd5b505af1158015610f5d573d6000803e3d6000fd5b50505050610f683390565b6001600160a01b03167fcbc0df49dd88ec0ba5b87a3c77ed66af6480b175df0f21649805ed6201c56145836000604051610961929190918252602082015260400190565b7f0000000000000000000000000000000000000000000000000000000000000000421115610fed5760405163700ec25b60e01b815260040160405180910390fd5b6001811015610ffb57600080fd5b60006110277f000000000000000000000000000000000000000000000000000000000000000083612207565b9050806001600160a01b037f00000000000000000000000000000000000000000000000000000000000000001663dd62ed3e336040516001600160e01b031960e084901b1681526001600160a01b039091166004820152306024820152604401602060405180830381865afa1580156110a4573d6000803e3d6000fd5b505050506040513d601f19601f820116820180604052508101906110c891906122e5565b10156110e75760405163ca234f3960e01b815260040160405180910390fd5b60006001600160a01b037f0000000000000000000000000000000000000000000000000000000000000000166323b872dd336040516001600160e01b031960e084901b1681526001600160a01b039091166004820152306024820152604481018590526064016020604051808303816000875af115801561116c573d6000803e3d6000fd5b505050506040513d601f19601f820116820180604052508101906111909190612244565b9050806111b05760405163c98df4e360e01b815260040160405180910390fd5b60006111bb8361206d565b60055460405163a9059cbb60e01b81526001600160a01b036201000090920482166004820152602481018390529192507f0000000000000000000000000000000000000000000000000000000000000000169063a9059cbb906044016020604051808303816000875af1158015611236573d6000803e3d6000fd5b505050506040513d601f19601f8201168201806040525081019061125a9190612244565b50806002600082825461126d9190612231565b9091555061127d9050818461221e565b6001600082825461128e9190612231565b9091555061129e9050818461221e565b600460008282546112af9190612231565b90915550600090506112c1828561221e565b336000908152600e60205260408120805492935083929091906112e5908490612231565b9091555050336000908152600d6020526040812054900361136d57600061130b600b5490565b336000818152600d6020526040812092909255600c805460018082018355919093527fdf6966c971051c3d54ec59162606531493a51404a002842f56009d7e5cf4a8c790920180546001600160a01b0319169091179055600b80549091019055505b6006546001600160a01b031663dcb6b26a7f0000000000000000000000000000000000000000000000000000000000000000336040516001600160e01b031960e085901b16815260048101929092526001600160a01b031660248201526000604482015260648101849052608401600060405180830381600087803b1580156113f557600080fd5b505af1158015611409573d6000803e3d6000fd5b505050506114143390565b6001600160a01b03167fc28482fd780ce54c9bfc165ed6ce12f1e7e4e07dc6270292223ac3275818dd0d600083604051610961929190918252602082015260400190565b7f00000000000000000000000000000000000000000000000000000000000000004211156114995760405163700ec25b60e01b815260040160405180910390fd5b60018110156114a757600080fd5b60006114d37f000000000000000000000000000000000000000000000000000000000000000083612207565b9050806001600160a01b037f00000000000000000000000000000000000000000000000000000000000000001663dd62ed3e336040516001600160e01b031960e084901b1681526001600160a01b039091166004820152306024820152604401602060405180830381865afa158015611550573d6000803e3d6000fd5b505050506040513d601f19601f8201168201806040525081019061157491906122e5565b10156115935760405163ca234f3960e01b815260040160405180910390fd5b60006001600160a01b037f0000000000000000000000000000000000000000000000000000000000000000166323b872dd336040516001600160e01b031960e084901b1681526001600160a01b039091166004820152306024820152604481018590526064016020604051808303816000875af1158015611618573d6000803e3d6000fd5b505050506040513d601f19601f8201168201806040525081019061163c9190612244565b90508061165c5760405163c98df4e360e01b815260040160405180910390fd5b60006116678361206d565b60055460405163a9059cbb60e01b81526001600160a01b036201000090920482166004820152602481018390529192507f0000000000000000000000000000000000000000000000000000000000000000169063a9059cbb906044016020604051808303816000875af11580156116e2573d6000803e3d6000fd5b505050506040513d601f19601f820116820180604052508101906117069190612244565b5080600260008282546117199190612231565b909155506117299050818461221e565b6001600082825461173a9190612231565b9091555061174a9050818461221e565b6003600082825461175b9190612231565b909155506000905061176d828561221e565b336000908152600a6020526040812080549293508392909190611791908490612231565b90915550503360009081526009602052604081205490036118195760006117b760075490565b336000818152600960205260408120929092556008805460018082018355919093527ff3f7a9fe364faab93b216da50a3214154f22a0a2b415b23a84c8169e8b636ee390920180546001600160a01b0319169091179055600780549091019055505b6006546001600160a01b031663dcb6b26a7f0000000000000000000000000000000000000000000000000000000000000000336040516001600160e01b031960e085901b16815260048101929092526001600160a01b031660248201526044810184905260006064820152608401600060405180830381600087803b1580156118a157600080fd5b505af11580156118b5573d6000803e3d6000fd5b505050506118c03390565b6001600160a01b03167fc28482fd780ce54c9bfc165ed6ce12f1e7e4e07dc6270292223ac3275818dd0d826000604051610961929190918252602082015260400190565b7f00000000000000000000000000000000000000000000000000000000000000004211156119455760405163700ec25b60e01b815260040160405180910390fd5b60006119717f000000000000000000000000000000000000000000000000000000000000000083612207565b336000908152600e60205260409020549091508111156119a4576040516327905ab760e21b815260040160405180910390fd5b60006119af8261206d565b60055460405163a9059cbb60e01b81526001600160a01b036201000090920482166004820152602481018390529192507f0000000000000000000000000000000000000000000000000000000000000000169063a9059cbb906044016020604051808303816000875af1158015611a2a573d6000803e3d6000fd5b505050506040513d601f19601f82011682018060405250810190611a4e9190612244565b508060026000828254611a619190612231565b9091555060009050611a73828461221e565b336000908152600e6020526040812080549293508592909190611a9790849061221e565b9091555050336000908152600e60205260408120549003611b1557336000908152600d6020526040812054600c805491929183908110611ad957611ad96122cf565b600091825260208083209190910180546001600160a01b0319166001600160a01b039490941693909317909255338152600d9091526040812055505b60006001600160a01b037f00000000000000000000000000000000000000000000000000000000000000001663a9059cbb336040516001600160e01b031960e084901b1681526001600160a01b039091166004820152602481018590526044016020604051808303816000875af1158015611b94573d6000803e3d6000fd5b505050506040513d601f19601f82011682018060405250810190611bb89190612244565b905080611bd85760405163c98df4e360e01b815260040160405180910390fd5b8360016000828254611bea919061221e565b90915550506006546001600160a01b031663dcb6b26a7f0000000000000000000000000000000000000000000000000000000000000000336000611c3087600019612261565b6040516001600160e01b031960e087901b16815260048101949094526001600160a01b03909216602484015260448301526064820152608401600060405180830381600087803b158015611c8357600080fd5b505af1158015611c97573d6000803e3d6000fd5b50505050611ca23390565b6001600160a01b03167fcbc0df49dd88ec0ba5b87a3c77ed66af6480b175df0f21649805ed6201c56145600084604051610961929190918252602082015260400190565b7f0000000000000000000000000000000000000000000000000000000000000000421115611d275760405163700ec25b60e01b815260040160405180910390fd5b6000611d537f000000000000000000000000000000000000000000000000000000000000000083612207565b336000908152600a6020526040902054909150811115611d85576040516296118960e51b815260040160405180910390fd5b6000611d908261206d565b9050611d9c818361221e565b336000908152600e602052604081208054909190611dbb908490612231565b925050819055508160046000828254611dd49190612231565b9091555050336000908152600a602052604081208054849290611df890849061221e565b925050819055508160036000828254611e11919061221e565b909155508290506000611e24838361221e565b60055460405163a9059cbb60e01b81526001600160a01b036201000090920482166004820152602481018690529192507f0000000000000000000000000000000000000000000000000000000000000000169063a9059cbb906044016020604051808303816000875af1158015611e9f573d6000803e3d6000fd5b505050506040513d601f19601f82011682018060405250810190611ec39190612244565b508260026000828254611ed69190612231565b90915550506006546001600160a01b031663dcb6b26a7f000000000000000000000000000000000000000000000000000000000000000033611f1a88600019612261565b6040516001600160e01b031960e086901b16815260048101939093526001600160a01b039091166024830152604482015260648101879052608401600060405180830381600087803b158015611f6f57600080fd5b505af1158015611f83573d6000803e3d6000fd5b50505050611f8e3390565b6001600160a01b03167fa19c60f7787bc349d4b0903c435f5372c0ec8bd2ac9878a60fbe838caee31666611fc484600019612261565b604080519182526020820185905201610961565b611fe06120d3565b6001600160a01b0381166120615760405162461bcd60e51b815260206004820152602660248201527f4f776e61626c653a206e6577206f776e657220697320746865207a65726f206160448201527f646472657373000000000000000000000000000000000000000000000000000060648201526084015b60405180910390fd5b61206a8161212d565b50565b60007f00000000000000000000000000000000000000000000000000000000000000006120ba7f000000000000000000000000000000000000000000000000000000000000000084612207565b6120c491906122ad565b92915050565b80546001019055565b6000546001600160a01b03163314610bc85760405162461bcd60e51b815260206004820181905260248201527f4f776e61626c653a2063616c6c6572206973206e6f7420746865206f776e65726044820152606401612058565b600080546001600160a01b038381166001600160a01b0319831681178455604051919092169283917f8be0079c531659141344cd1fd0a4f28419497f9722a3daafe3b4186f6b6457e09190a35050565b801515811461206a57600080fd5b60006020828403121561219d57600080fd5b81356121a88161217d565b9392505050565b6000602082840312156121c157600080fd5b81356001600160a01b03811681146121a857600080fd5b6000602082840312156121ea57600080fd5b5035919050565b634e487b7160e01b600052601160045260246000fd5b80820281158282048414176120c4576120c46121f1565b818103818111156120c4576120c46121f1565b808201808211156120c4576120c46121f1565b60006020828403121561225657600080fd5b81516121a88161217d565b808202600082127f800000000000000000000000000000000000000000000000000000000000000084141615612299576122996121f1565b81810583148215176120c4576120c46121f1565b6000826122ca57634e487b7160e01b600052601260045260246000fd5b500490565b634e487b7160e01b600052603260045260246000fd5b6000602082840312156122f757600080fd5b505191905056fea2646970667358221220038e5f75c0bad9f77c0afb30418b880b708a57badd0ac1958b0963c606f688e864736f6c63430008120033a2646970667358221220cfd951a46c9348c0dbfe0a808b103567673a554367c6782a3d5ab6c53f8b54c364736f6c63430008120033",
  "devdoc": {
    "events": {
      "ConcludeFatalError(uint256,uint256,bool,int224,int224)": {
        "params": {
          "isAbove": "The target orice was supposed to be above a set limit.",
          "predictionId": "The unique identifier of the prediction.",
          "priceReading": "The current price reading provided by a dAPI.",
          "priceTarget": "The target point that was the base for a prediction.",
          "timestamp": "The timestamp when conclude failed."
        }
      },
      "PredictionCreated(uint256,address,address,uint256,uint256)": {
        "params": {
          "creator": "The creator responsible for creating the prediction.",
          "marketHandler": "The address of the MarketHandler that enables the prediction to be traded upon.",
          "predictionId": "The unique identifier of the prediction.",
          "timestamp": "The timestamp when the prediction was created to be traded upon."
        }
      }
    },
    "kind": "dev",
    "methods": {
      "concludePrediction_2(uint256,bool)": {
        "params": {
          "_predictionId": "The unique identifier for each prediction created.",
          "_vote": "The final result of the prediction. vote - True : The target price was predicted to be BELOW/ABOVE a threshold AND IS BELOW/ABOVE the threshold respectively. vote - False : The target price was predicted to be BELOW/ABOVE a threshold BUT IS ABOVE/BELOW the threshold respectively."
        }
      },
      "constructor": {
        "params": {
          "_usdc": "The payment token addresTRADING_FEEs."
        }
      },
      "createPrediction(string,bool,int224,uint256,uint256)": {
        "params": {
          "_basePrice": "The minimum cost of one 'Yes' or 'No' token for the prediction market to be created. Is a multiple of 0.01 USD or 1 cent.",
          "_deadline": "The timestamp when the target and current price are to be checked against.",
          "_isAbove": "True if for a prediction the price will go above a set limit and false if otherwise.",
          "_tokenSymbol": "The symbol to represent the asset we are prediction upon. Eg : BTC / ETH / XRP etc."
        }
      },
      "owner()": {
        "details": "Returns the address of the current owner."
      },
      "renounceOwnership()": {
        "details": "Leaves the contract without owner. It will not be possible to call `onlyOwner` functions anymore. Can only be called by the current owner. NOTE: Renouncing ownership will leave the contract without an owner, thereby removing any functionality that is only available to the owner."
      },
      "trackProgress(uint256,address,int256,int256)": {
        "details": "Is important since its harder to track each market handler on 'The Graph' separately."
      },
      "transferOwnership(address)": {
        "details": "Transfers ownership of the contract to a new account (`newOwner`). Can only be called by the current owner."
      }
    },
    "version": 1
  },
  "userdoc": {
    "events": {
      "ConcludeFatalError(uint256,uint256,bool,int224,int224)": {
        "notice": "To track if for some reason a certain prediction was not able to be concluded."
      },
      "PredictionCreated(uint256,address,address,uint256,uint256)": {
        "notice": "Event to declare a prediction market is available to be traded."
      }
    },
    "kind": "user",
    "methods": {
      "PLATFORM_FEE()": {
        "notice": "To avoid DDOS by adding some cost to the creation. Can't be changed once defined."
      },
      "TRADING_FEE()": {
        "notice": "0.01% * 50 = 0.5%."
      },
      "concludePrediction_2(uint256,bool)": {
        "notice": "Called by the Settlement contract which concludes the prediction and returns the vote i.e if the prediction was in the favour of 'Yes' or 'No'."
      },
      "createPrediction(string,bool,int224,uint256,uint256)": {
        "notice": "Called by the owner on behalf of the _caller and create a market for them.Step necessary to make sure all the parameters are vaild and are true with no manipulation."
      },
      "getPrediction(uint256)": {
        "notice": "Getter functions ------"
      },
      "setSettlementAddress(address)": {
        "notice": "Setter functions ------"
      },
      "settlementAddress()": {
        "notice": "The address that starts the chain of concluding a prediction."
      },
      "trackProgress(uint256,address,int256,int256)": {
        "notice": "SPECIAL FUNCTION ====================================================Function provided to act as an aggregator and help track all the things that are happening on all of its child market handlers."
      },
      "vaultAddress()": {
        "notice": "The address responsible for storing the funds collected."
      }
    },
    "notice": "The centre point of Settlement and each new Market Handler",
    "version": 1
  },
  "storageLayout": {
    "storage": [
      {
        "astId": 7,
        "contract": "contracts/common/Trading.sol:PredictionMarket",
        "label": "_owner",
        "offset": 0,
        "slot": "0",
        "type": "t_address"
      },
      {
        "astId": 248,
        "contract": "contracts/common/Trading.sol:PredictionMarket",
        "label": "nextPredictionId",
        "offset": 0,
        "slot": "1",
        "type": "t_struct(Counter)140_storage"
      },
      {
        "astId": 260,
        "contract": "contracts/common/Trading.sol:PredictionMarket",
        "label": "TRADING_FEE",
        "offset": 0,
        "slot": "2",
        "type": "t_uint256"
      },
      {
        "astId": 265,
        "contract": "contracts/common/Trading.sol:PredictionMarket",
        "label": "assetToProxy",
        "offset": 0,
        "slot": "3",
        "type": "t_mapping(t_string_memory_ptr,t_address)"
      },
      {
        "astId": 271,
        "contract": "contracts/common/Trading.sol:PredictionMarket",
        "label": "predictions",
        "offset": 0,
        "slot": "4",
        "type": "t_mapping(t_uint256,t_struct(Prediction)233_storage)"
      },
      {
        "astId": 276,
        "contract": "contracts/common/Trading.sol:PredictionMarket",
        "label": "predictionIdToProxy",
        "offset": 0,
        "slot": "5",
        "type": "t_mapping(t_uint256,t_address)"
      },
      {
        "astId": 281,
        "contract": "contracts/common/Trading.sol:PredictionMarket",
        "label": "blacklisted",
        "offset": 0,
        "slot": "6",
        "type": "t_mapping(t_address,t_bool)"
      },
      {
        "astId": 326,
        "contract": "contracts/common/Trading.sol:PredictionMarket",
        "label": "settlementAddress",
        "offset": 0,
        "slot": "7",
        "type": "t_address"
      },
      {
        "astId": 329,
        "contract": "contracts/common/Trading.sol:PredictionMarket",
        "label": "vaultAddress",
        "offset": 0,
        "slot": "8",
        "type": "t_address"
      }
    ],
    "types": {
      "t_address": {
        "encoding": "inplace",
        "label": "address",
        "numberOfBytes": "20"
      },
      "t_bool": {
        "encoding": "inplace",
        "label": "bool",
        "numberOfBytes": "1"
      },
      "t_int224": {
        "encoding": "inplace",
        "label": "int224",
        "numberOfBytes": "28"
      },
      "t_mapping(t_address,t_bool)": {
        "encoding": "mapping",
        "key": "t_address",
        "label": "mapping(address => bool)",
        "numberOfBytes": "32",
        "value": "t_bool"
      },
      "t_mapping(t_string_memory_ptr,t_address)": {
        "encoding": "mapping",
        "key": "t_string_memory_ptr",
        "label": "mapping(string => address)",
        "numberOfBytes": "32",
        "value": "t_address"
      },
      "t_mapping(t_uint256,t_address)": {
        "encoding": "mapping",
        "key": "t_uint256",
        "label": "mapping(uint256 => address)",
        "numberOfBytes": "32",
        "value": "t_address"
      },
      "t_mapping(t_uint256,t_struct(Prediction)233_storage)": {
        "encoding": "mapping",
        "key": "t_uint256",
        "label": "mapping(uint256 => struct Prediction)",
        "numberOfBytes": "32",
        "value": "t_struct(Prediction)233_storage"
      },
      "t_string_memory_ptr": {
        "encoding": "bytes",
        "label": "string",
        "numberOfBytes": "32"
      },
      "t_string_storage": {
        "encoding": "bytes",
        "label": "string",
        "numberOfBytes": "32"
      },
      "t_struct(Counter)140_storage": {
        "encoding": "inplace",
        "label": "struct Counters.Counter",
        "members": [
          {
            "astId": 139,
            "contract": "contracts/common/Trading.sol:PredictionMarket",
            "label": "_value",
            "offset": 0,
            "slot": "0",
            "type": "t_uint256"
          }
        ],
        "numberOfBytes": "32"
      },
      "t_struct(Prediction)233_storage": {
        "encoding": "inplace",
        "label": "struct Prediction",
        "members": [
          {
            "astId": 216,
            "contract": "contracts/common/Trading.sol:PredictionMarket",
            "label": "tokenSymbol",
            "offset": 0,
            "slot": "0",
            "type": "t_string_storage"
          },
          {
            "astId": 218,
            "contract": "contracts/common/Trading.sol:PredictionMarket",
            "label": "targetPricePoint",
            "offset": 0,
            "slot": "1",
            "type": "t_int224"
          },
          {
            "astId": 220,
            "contract": "contracts/common/Trading.sol:PredictionMarket",
            "label": "isAbove",
            "offset": 28,
            "slot": "1",
            "type": "t_bool"
          },
          {
            "astId": 222,
            "contract": "contracts/common/Trading.sol:PredictionMarket",
            "label": "proxyAddress",
            "offset": 0,
            "slot": "2",
            "type": "t_address"
          },
          {
            "astId": 224,
            "contract": "contracts/common/Trading.sol:PredictionMarket",
            "label": "fee",
            "offset": 0,
            "slot": "3",
            "type": "t_uint256"
          },
          {
            "astId": 226,
            "contract": "contracts/common/Trading.sol:PredictionMarket",
            "label": "timestamp",
            "offset": 0,
            "slot": "4",
            "type": "t_uint256"
          },
          {
            "astId": 228,
            "contract": "contracts/common/Trading.sol:PredictionMarket",
            "label": "deadline",
            "offset": 0,
            "slot": "5",
            "type": "t_uint256"
          },
          {
            "astId": 230,
            "contract": "contracts/common/Trading.sol:PredictionMarket",
            "label": "isActive",
            "offset": 0,
            "slot": "6",
            "type": "t_bool"
          },
          {
            "astId": 232,
            "contract": "contracts/common/Trading.sol:PredictionMarket",
            "label": "marketHandler",
            "offset": 1,
            "slot": "6",
            "type": "t_address"
          }
        ],
        "numberOfBytes": "224"
      },
      "t_uint256": {
        "encoding": "inplace",
        "label": "uint256",
        "numberOfBytes": "32"
      }
    }
  }
}